{
	"fundMe.sol": {
		"FundMe": {
			"abi": [
				{
					"inputs": [
						{
							"internalType": "address",
							"name": "",
							"type": "address"
						}
					],
					"name": "addressToAmountFunded",
					"outputs": [
						{
							"internalType": "uint256",
							"name": "",
							"type": "uint256"
						}
					],
					"stateMutability": "view",
					"type": "function"
				},
				{
					"inputs": [],
					"name": "fund",
					"outputs": [],
					"stateMutability": "payable",
					"type": "function"
				},
				{
					"inputs": [
						{
							"internalType": "uint256",
							"name": "",
							"type": "uint256"
						}
					],
					"name": "funders",
					"outputs": [
						{
							"internalType": "address",
							"name": "",
							"type": "address"
						}
					],
					"stateMutability": "view",
					"type": "function"
				},
				{
					"inputs": [],
					"name": "withDraw",
					"outputs": [],
					"stateMutability": "nonpayable",
					"type": "function"
				}
			],
			"devdoc": {
				"kind": "dev",
				"methods": {},
				"version": 1
			},
			"evm": {
				"assembly": "    /* \"fundMe.sol\":112:2190  contract FundMe {... */\n  mstore(0x40, 0x80)\n    /* \"fundMe.sol\":297:301  5e18 */\n  0x4563918244f40000\n    /* \"fundMe.sol\":276:301  uint256 minimumUSD = 5e18 */\n  0x00\n  sstore\n    /* \"fundMe.sol\":112:2190  contract FundMe {... */\n  callvalue\n  dup1\n  iszero\n  tag_1\n  jumpi\n  0x00\n  dup1\n  revert\ntag_1:\n  pop\n  dataSize(sub_0)\n  dup1\n  dataOffset(sub_0)\n  0x00\n  codecopy\n  0x00\n  return\nstop\n\nsub_0: assembly {\n        /* \"fundMe.sol\":112:2190  contract FundMe {... */\n      mstore(0x40, 0x80)\n      jumpi(tag_1, lt(calldatasize, 0x04))\n      shr(0xe0, calldataload(0x00))\n      dup1\n      0x0fdb1c10\n      eq\n      tag_2\n      jumpi\n      dup1\n      0x3e47d6f3\n      eq\n      tag_3\n      jumpi\n      dup1\n      0xb60d4288\n      eq\n      tag_4\n      jumpi\n      dup1\n      0xdc0d3dff\n      eq\n      tag_5\n      jumpi\n    tag_1:\n      0x00\n      dup1\n      revert\n        /* \"fundMe.sol\":987:2188  function withDraw() public {... */\n    tag_2:\n      callvalue\n      dup1\n      iszero\n      tag_6\n      jumpi\n      0x00\n      dup1\n      revert\n    tag_6:\n      pop\n      tag_7\n      tag_8\n      jump\t// in\n    tag_7:\n      stop\n        /* \"fundMe.sol\":338:394  mapping(address => uint256) public addressToAmountFunded */\n    tag_3:\n      callvalue\n      dup1\n      iszero\n      tag_9\n      jumpi\n      0x00\n      dup1\n      revert\n    tag_9:\n      pop\n      tag_10\n      0x04\n      dup1\n      calldatasize\n      sub\n      dup2\n      add\n      swap1\n      tag_11\n      swap2\n      swap1\n      tag_12\n      jump\t// in\n    tag_11:\n      tag_13\n      jump\t// in\n    tag_10:\n      mload(0x40)\n      tag_14\n      swap2\n      swap1\n      tag_15\n      jump\t// in\n    tag_14:\n      mload(0x40)\n      dup1\n      swap2\n      sub\n      swap1\n      return\n        /* \"fundMe.sol\":401:981  function fund() public payable {... */\n    tag_4:\n      tag_16\n      tag_17\n      jump\t// in\n    tag_16:\n      stop\n        /* \"fundMe.sol\":308:332  address[] public funders */\n    tag_5:\n      callvalue\n      dup1\n      iszero\n      tag_18\n      jumpi\n      0x00\n      dup1\n      revert\n    tag_18:\n      pop\n      tag_19\n      0x04\n      dup1\n      calldatasize\n      sub\n      dup2\n      add\n      swap1\n      tag_20\n      swap2\n      swap1\n      tag_21\n      jump\t// in\n    tag_20:\n      tag_22\n      jump\t// in\n    tag_19:\n      mload(0x40)\n      tag_23\n      swap2\n      swap1\n      tag_24\n      jump\t// in\n    tag_23:\n      mload(0x40)\n      dup1\n      swap2\n      sub\n      swap1\n      return\n        /* \"fundMe.sol\":987:2188  function withDraw() public {... */\n    tag_8:\n        /* \"fundMe.sol\":1042:1062  uint256 fundersIndex */\n      0x00\n        /* \"fundMe.sol\":1024:1259  for (... */\n    tag_26:\n        /* \"fundMe.sol\":1096:1103  funders */\n      0x01\n        /* \"fundMe.sol\":1096:1110  funders.length */\n      dup1\n      sload\n      swap1\n      pop\n        /* \"fundMe.sol\":1080:1092  fundersIndex */\n      dup2\n        /* \"fundMe.sol\":1080:1110  fundersIndex <= funders.length */\n      gt\n        /* \"fundMe.sol\":1024:1259  for (... */\n      tag_27\n      jumpi\n        /* \"fundMe.sol\":1163:1177  address funder */\n      0x00\n        /* \"fundMe.sol\":1180:1187  funders */\n      0x01\n        /* \"fundMe.sol\":1188:1200  fundersIndex */\n      dup3\n        /* \"fundMe.sol\":1180:1201  funders[fundersIndex] */\n      dup2\n      sload\n      dup2\n      lt\n      tag_29\n      jumpi\n      tag_30\n      tag_31\n      jump\t// in\n    tag_30:\n    tag_29:\n      swap1\n      0x00\n      mstore\n      keccak256(0x00, 0x20)\n      add\n      0x00\n      swap1\n      sload\n      swap1\n      0x0100\n      exp\n      swap1\n      div\n      0xffffffffffffffffffffffffffffffffffffffff\n      and\n        /* \"fundMe.sol\":1163:1201  address funder = funders[fundersIndex] */\n      swap1\n      pop\n        /* \"fundMe.sol\":1247:1248  0 */\n      0x00\n        /* \"fundMe.sol\":1215:1236  addressToAmountFunded */\n      0x02\n        /* \"fundMe.sol\":1215:1244  addressToAmountFunded[funder] */\n      0x00\n        /* \"fundMe.sol\":1237:1243  funder */\n      dup4\n        /* \"fundMe.sol\":1215:1244  addressToAmountFunded[funder] */\n      0xffffffffffffffffffffffffffffffffffffffff\n      and\n      0xffffffffffffffffffffffffffffffffffffffff\n      and\n      dup2\n      mstore\n      0x20\n      add\n      swap1\n      dup2\n      mstore\n      0x20\n      add\n      0x00\n      keccak256\n        /* \"fundMe.sol\":1215:1248  addressToAmountFunded[funder] = 0 */\n      dup2\n      swap1\n      sstore\n      pop\n        /* \"fundMe.sol\":1149:1259  {... */\n      pop\n        /* \"fundMe.sol\":1124:1138  fundersIndex++ */\n      dup1\n      dup1\n      tag_33\n      swap1\n      tag_34\n      jump\t// in\n    tag_33:\n      swap2\n      pop\n      pop\n        /* \"fundMe.sol\":1024:1259  for (... */\n      jump(tag_26)\n    tag_27:\n      pop\n        /* \"fundMe.sol\":1321:1322  0 */\n      0x00\n        /* \"fundMe.sol\":1307:1323  new address[](0) */\n      0xffffffffffffffff\n      dup2\n      gt\n      iszero\n      tag_35\n      jumpi\n      tag_36\n      tag_37\n      jump\t// in\n    tag_36:\n    tag_35:\n      mload(0x40)\n      swap1\n      dup1\n      dup3\n      mstore\n      dup1\n      0x20\n      mul\n      0x20\n      add\n      dup3\n      add\n      0x40\n      mstore\n      dup1\n      iszero\n      tag_38\n      jumpi\n      dup2\n      0x20\n      add\n      0x20\n      dup3\n      mul\n      dup1\n      calldatasize\n      dup4\n      calldatacopy\n      dup1\n      dup3\n      add\n      swap2\n      pop\n      pop\n      swap1\n      pop\n    tag_38:\n      pop\n        /* \"fundMe.sol\":1297:1304  funders */\n      0x01\n        /* \"fundMe.sol\":1297:1323  funders = new address[](0) */\n      swap1\n      dup1\n      mload\n      swap1\n      0x20\n      add\n      swap1\n      tag_39\n      swap3\n      swap2\n      swap1\n      tag_40\n      jump\t// in\n    tag_39:\n      pop\n        /* \"fundMe.sol\":1647:1657  msg.sender */\n      caller\n        /* \"fundMe.sol\":1639:1667  payable(msg.sender).transfer */\n      0xffffffffffffffffffffffffffffffffffffffff\n      and\n        /* \"fundMe.sol\":1639:1690  payable(msg.sender).transfer(address(this).balance) */\n      0x08fc\n        /* \"fundMe.sol\":1668:1689  address(this).balance */\n      selfbalance\n        /* \"fundMe.sol\":1639:1690  payable(msg.sender).transfer(address(this).balance) */\n      swap1\n      dup2\n      iszero\n      mul\n      swap1\n      mload(0x40)\n      0x00\n      mload(0x40)\n      dup1\n      dup4\n      sub\n      dup2\n      dup6\n      dup9\n      dup9\n      call\n      swap4\n      pop\n      pop\n      pop\n      pop\n      iszero\n      dup1\n      iszero\n      tag_42\n      jumpi\n      returndatasize\n      0x00\n      dup1\n      returndatacopy\n      revert(0x00, returndatasize)\n    tag_42:\n      pop\n        /* \"fundMe.sol\":1735:1751  bool sendSuccess */\n      0x00\n        /* \"fundMe.sol\":1762:1772  msg.sender */\n      caller\n        /* \"fundMe.sol\":1754:1778  payable(msg.sender).send */\n      0xffffffffffffffffffffffffffffffffffffffff\n      and\n        /* \"fundMe.sol\":1754:1801  payable(msg.sender).send(address(this).balance) */\n      0x08fc\n        /* \"fundMe.sol\":1779:1800  address(this).balance */\n      selfbalance\n        /* \"fundMe.sol\":1754:1801  payable(msg.sender).send(address(this).balance) */\n      swap1\n      dup2\n      iszero\n      mul\n      swap1\n      mload(0x40)\n      0x00\n      mload(0x40)\n      dup1\n      dup4\n      sub\n      dup2\n      dup6\n      dup9\n      dup9\n      call\n      swap4\n      pop\n      pop\n      pop\n      pop\n        /* \"fundMe.sol\":1735:1801  bool sendSuccess = payable(msg.sender).send(address(this).balance) */\n      swap1\n      pop\n        /* \"fundMe.sol\":1819:1830  sendSuccess */\n      dup1\n        /* \"fundMe.sol\":1811:1866  require(sendSuccess, \"there was an error: send failed\") */\n      tag_44\n      jumpi\n      mload(0x40)\n      0x08c379a000000000000000000000000000000000000000000000000000000000\n      dup2\n      mstore\n      0x04\n      add\n      tag_45\n      swap1\n      tag_46\n      jump\t// in\n    tag_45:\n      mload(0x40)\n      dup1\n      swap2\n      sub\n      swap1\n      revert\n    tag_44:\n        /* \"fundMe.sol\":2017:2033  bool callSuccess */\n      0x00\n        /* \"fundMe.sol\":2086:2096  msg.sender */\n      caller\n        /* \"fundMe.sol\":2078:2102  payable(msg.sender).call */\n      0xffffffffffffffffffffffffffffffffffffffff\n      and\n        /* \"fundMe.sol\":2110:2131  address(this).balance */\n      selfbalance\n        /* \"fundMe.sol\":2078:2136  payable(msg.sender).call{value: address(this).balance}(\"\") */\n      mload(0x40)\n      tag_47\n      swap1\n      tag_48\n      jump\t// in\n    tag_47:\n      0x00\n      mload(0x40)\n      dup1\n      dup4\n      sub\n      dup2\n      dup6\n      dup8\n      gas\n      call\n      swap3\n      pop\n      pop\n      pop\n      returndatasize\n      dup1\n      0x00\n      dup2\n      eq\n      tag_51\n      jumpi\n      mload(0x40)\n      swap2\n      pop\n      and(add(returndatasize, 0x3f), not(0x1f))\n      dup3\n      add\n      0x40\n      mstore\n      returndatasize\n      dup3\n      mstore\n      returndatasize\n      0x00\n      0x20\n      dup5\n      add\n      returndatacopy\n      jump(tag_50)\n    tag_51:\n      0x60\n      swap2\n      pop\n    tag_50:\n      pop\n        /* \"fundMe.sol\":2003:2136  (... */\n      pop\n      swap1\n      pop\n        /* \"fundMe.sol\":2154:2165  callSuccess */\n      dup1\n        /* \"fundMe.sol\":2146:2181  require(callSuccess, \"call failed\") */\n      tag_52\n      jumpi\n      mload(0x40)\n      0x08c379a000000000000000000000000000000000000000000000000000000000\n      dup2\n      mstore\n      0x04\n      add\n      tag_53\n      swap1\n      tag_54\n      jump\t// in\n    tag_53:\n      mload(0x40)\n      dup1\n      swap2\n      sub\n      swap1\n      revert\n    tag_52:\n        /* \"fundMe.sol\":1014:2188  {... */\n      pop\n      pop\n        /* \"fundMe.sol\":987:2188  function withDraw() public {... */\n      jump\t// out\n        /* \"fundMe.sol\":338:394  mapping(address => uint256) public addressToAmountFunded */\n    tag_13:\n      mstore(0x20, 0x02)\n      dup1\n      0x00\n      mstore\n      keccak256(0x00, 0x40)\n      0x00\n      swap2\n      pop\n      swap1\n      pop\n      sload\n      dup2\n      jump\t// out\n        /* \"fundMe.sol\":401:981  function fund() public payable {... */\n    tag_17:\n        /* \"fundMe.sol\":533:543  minimumUSD */\n      sload(0x00)\n        /* \"fundMe.sol\":504:530  msg.value.conversionRate() */\n      tag_56\n        /* \"fundMe.sol\":504:513  msg.value */\n      callvalue\n        /* \"fundMe.sol\":504:528  msg.value.conversionRate */\n      tag_57\n        /* \"fundMe.sol\":504:530  msg.value.conversionRate() */\n      jump\t// in\n    tag_56:\n        /* \"fundMe.sol\":504:543  msg.value.conversionRate() > minimumUSD */\n      gt\n        /* \"fundMe.sol\":483:884  require(... */\n      tag_58\n      jumpi\n      mload(0x40)\n      0x08c379a000000000000000000000000000000000000000000000000000000000\n      dup2\n      mstore\n      0x04\n      add\n      tag_59\n      swap1\n      tag_60\n      jump\t// in\n    tag_59:\n      mload(0x40)\n      dup1\n      swap2\n      sub\n      swap1\n      revert\n    tag_58:\n        /* \"fundMe.sol\":894:901  funders */\n      0x01\n        /* \"fundMe.sol\":907:917  msg.sender */\n      caller\n        /* \"fundMe.sol\":894:918  funders.push(msg.sender) */\n      swap1\n      dup1\n      0x01\n      dup2\n      sload\n      add\n      dup1\n      dup3\n      sstore\n      dup1\n      swap2\n      pop\n      pop\n      0x01\n      swap1\n      sub\n      swap1\n      0x00\n      mstore\n      keccak256(0x00, 0x20)\n      add\n      0x00\n      swap1\n      swap2\n      swap1\n      swap2\n      swap1\n      swap2\n      0x0100\n      exp\n      dup2\n      sload\n      dup2\n      0xffffffffffffffffffffffffffffffffffffffff\n      mul\n      not\n      and\n      swap1\n      dup4\n      0xffffffffffffffffffffffffffffffffffffffff\n      and\n      mul\n      or\n      swap1\n      sstore\n      pop\n        /* \"fundMe.sol\":965:974  msg.value */\n      callvalue\n        /* \"fundMe.sol\":928:949  addressToAmountFunded */\n      0x02\n        /* \"fundMe.sol\":928:961  addressToAmountFunded[msg.sender] */\n      0x00\n        /* \"fundMe.sol\":950:960  msg.sender */\n      caller\n        /* \"fundMe.sol\":928:961  addressToAmountFunded[msg.sender] */\n      0xffffffffffffffffffffffffffffffffffffffff\n      and\n      0xffffffffffffffffffffffffffffffffffffffff\n      and\n      dup2\n      mstore\n      0x20\n      add\n      swap1\n      dup2\n      mstore\n      0x20\n      add\n      0x00\n      keccak256\n      0x00\n        /* \"fundMe.sol\":928:974  addressToAmountFunded[msg.sender] += msg.value */\n      dup3\n      dup3\n      sload\n      tag_62\n      swap2\n      swap1\n      tag_63\n      jump\t// in\n    tag_62:\n      swap3\n      pop\n      pop\n      dup2\n      swap1\n      sstore\n      pop\n        /* \"fundMe.sol\":401:981  function fund() public payable {... */\n      jump\t// out\n        /* \"fundMe.sol\":308:332  address[] public funders */\n    tag_22:\n      0x01\n      dup2\n      dup2\n      sload\n      dup2\n      lt\n      tag_64\n      jumpi\n      0x00\n      dup1\n      revert\n    tag_64:\n      swap1\n      0x00\n      mstore\n      keccak256(0x00, 0x20)\n      add\n      0x00\n      swap2\n      pop\n      sload\n      swap1\n      0x0100\n      exp\n      swap1\n      div\n      0xffffffffffffffffffffffffffffffffffffffff\n      and\n      dup2\n      jump\t// out\n        /* \"priceConvertor.sol\":1381:1587  function conversionRate(uint256 _ethAmt) internal view returns (uint256) {... */\n    tag_57:\n        /* \"priceConvertor.sol\":1445:1452  uint256 */\n      0x00\n        /* \"priceConvertor.sol\":1464:1480  uint256 ethPrice */\n      dup1\n        /* \"priceConvertor.sol\":1483:1493  getPrice() */\n      tag_67\n        /* \"priceConvertor.sol\":1483:1491  getPrice */\n      tag_68\n        /* \"priceConvertor.sol\":1483:1493  getPrice() */\n      jump\t// in\n    tag_67:\n        /* \"priceConvertor.sol\":1464:1493  uint256 ethPrice = getPrice() */\n      swap1\n      pop\n        /* \"priceConvertor.sol\":1503:1522  uint256 ethAmtinUSD */\n      0x00\n        /* \"priceConvertor.sol\":1548:1552  1e18 */\n      0x0de0b6b3a7640000\n        /* \"priceConvertor.sol\":1537:1544  _ethAmt */\n      dup5\n        /* \"priceConvertor.sol\":1526:1534  ethPrice */\n      dup4\n        /* \"priceConvertor.sol\":1526:1544  ethPrice * _ethAmt */\n      tag_69\n      swap2\n      swap1\n      tag_70\n      jump\t// in\n    tag_69:\n        /* \"priceConvertor.sol\":1525:1552  (ethPrice * _ethAmt) / 1e18 */\n      tag_71\n      swap2\n      swap1\n      tag_72\n      jump\t// in\n    tag_71:\n        /* \"priceConvertor.sol\":1503:1552  uint256 ethAmtinUSD = (ethPrice * _ethAmt) / 1e18 */\n      swap1\n      pop\n        /* \"priceConvertor.sol\":1569:1580  ethAmtinUSD */\n      dup1\n        /* \"priceConvertor.sol\":1562:1580  return ethAmtinUSD */\n      swap3\n      pop\n      pop\n      pop\n        /* \"priceConvertor.sol\":1381:1587  function conversionRate(uint256 _ethAmt) internal view returns (uint256) {... */\n      swap2\n      swap1\n      pop\n      jump\t// out\n        /* \"priceConvertor.sol\":811:1375  function getPrice() internal view returns (uint256) {... */\n    tag_68:\n        /* \"priceConvertor.sol\":854:861  uint256 */\n      0x00\n        /* \"priceConvertor.sol\":948:979  AggregatorV3Interface priceFeed */\n      dup1\n        /* \"priceConvertor.sol\":1017:1059  0x694AA1769357215DE4FAC081bf1f309aDC325306 */\n      0x694aa1769357215de4fac081bf1f309adc325306\n        /* \"priceConvertor.sol\":948:1069  AggregatorV3Interface priceFeed = AggregatorV3Interface(... */\n      swap1\n      pop\n        /* \"priceConvertor.sol\":1140:1152  int256 price */\n      0x00\n        /* \"priceConvertor.sol\":1272:1281  priceFeed */\n      dup2\n        /* \"priceConvertor.sol\":1272:1297  priceFeed.latestRoundData */\n      0xffffffffffffffffffffffffffffffffffffffff\n      and\n      0xfeaf968c\n        /* \"priceConvertor.sol\":1272:1299  priceFeed.latestRoundData() */\n      mload(0x40)\n      dup2\n      0xffffffff\n      and\n      0xe0\n      shl\n      dup2\n      mstore\n      0x04\n      add\n      0xa0\n      mload(0x40)\n      dup1\n      dup4\n      sub\n      dup2\n      dup7\n      gas\n      staticcall\n      iszero\n      dup1\n      iszero\n      tag_75\n      jumpi\n      returndatasize\n      0x00\n      dup1\n      returndatacopy\n      revert(0x00, returndatasize)\n    tag_75:\n      pop\n      pop\n      pop\n      pop\n      mload(0x40)\n      returndatasize\n      not(0x1f)\n      0x1f\n      dup3\n      add\n      and\n      dup3\n      add\n      dup1\n      0x40\n      mstore\n      pop\n      dup2\n      add\n      swap1\n      tag_76\n      swap2\n      swap1\n      tag_77\n      jump\t// in\n    tag_76:\n        /* \"priceConvertor.sol\":1079:1299  (... */\n      pop\n      pop\n      pop\n      swap2\n      pop\n      pop\n        /* \"priceConvertor.sol\":1332:1336  1e18 */\n      0x0de0b6b3a7640000\n        /* \"priceConvertor.sol\":1324:1329  price */\n      dup2\n        /* \"priceConvertor.sol\":1324:1336  price * 1e18 */\n      tag_78\n      swap2\n      swap1\n      tag_79\n      jump\t// in\n    tag_78:\n        /* \"priceConvertor.sol\":1309:1337  return uint256(price * 1e18) */\n      swap3\n      pop\n      pop\n      pop\n        /* \"priceConvertor.sol\":811:1375  function getPrice() internal view returns (uint256) {... */\n      swap1\n      jump\t// out\n    tag_40:\n      dup3\n      dup1\n      sload\n      dup3\n      dup3\n      sstore\n      swap1\n      0x00\n      mstore\n      keccak256(0x00, 0x20)\n      swap1\n      dup2\n      add\n      swap3\n      dup3\n      iszero\n      tag_80\n      jumpi\n      swap2\n      0x20\n      mul\n      dup3\n      add\n    tag_81:\n      dup3\n      dup2\n      gt\n      iszero\n      tag_82\n      jumpi\n      dup3\n      mload\n      dup3\n      exp(0x0100, 0x00)\n      dup2\n      sload\n      dup2\n      0xffffffffffffffffffffffffffffffffffffffff\n      mul\n      not\n      and\n      swap1\n      dup4\n      0xffffffffffffffffffffffffffffffffffffffff\n      and\n      mul\n      or\n      swap1\n      sstore\n      pop\n      swap2\n      0x20\n      add\n      swap2\n      swap1\n      0x01\n      add\n      swap1\n      jump(tag_81)\n    tag_82:\n    tag_80:\n      pop\n      swap1\n      pop\n      tag_83\n      swap2\n      swap1\n      tag_84\n      jump\t// in\n    tag_83:\n      pop\n      swap1\n      jump\t// out\n    tag_84:\n    tag_85:\n      dup1\n      dup3\n      gt\n      iszero\n      tag_86\n      jumpi\n      0x00\n      dup2\n      0x00\n      swap1\n      sstore\n      pop\n      0x01\n      add\n      jump(tag_85)\n    tag_86:\n      pop\n      swap1\n      jump\t// out\n        /* \"#utility.yul\":88:205   */\n    tag_88:\n        /* \"#utility.yul\":197:198   */\n      0x00\n        /* \"#utility.yul\":194:195   */\n      dup1\n        /* \"#utility.yul\":187:199   */\n      revert\n        /* \"#utility.yul\":334:460   */\n    tag_90:\n        /* \"#utility.yul\":371:378   */\n      0x00\n        /* \"#utility.yul\":411:453   */\n      0xffffffffffffffffffffffffffffffffffffffff\n        /* \"#utility.yul\":404:409   */\n      dup3\n        /* \"#utility.yul\":400:454   */\n      and\n        /* \"#utility.yul\":389:454   */\n      swap1\n      pop\n        /* \"#utility.yul\":334:460   */\n      swap2\n      swap1\n      pop\n      jump\t// out\n        /* \"#utility.yul\":466:562   */\n    tag_91:\n        /* \"#utility.yul\":503:510   */\n      0x00\n        /* \"#utility.yul\":532:556   */\n      tag_124\n        /* \"#utility.yul\":550:555   */\n      dup3\n        /* \"#utility.yul\":532:556   */\n      tag_90\n      jump\t// in\n    tag_124:\n        /* \"#utility.yul\":521:556   */\n      swap1\n      pop\n        /* \"#utility.yul\":466:562   */\n      swap2\n      swap1\n      pop\n      jump\t// out\n        /* \"#utility.yul\":568:690   */\n    tag_92:\n        /* \"#utility.yul\":641:665   */\n      tag_126\n        /* \"#utility.yul\":659:664   */\n      dup2\n        /* \"#utility.yul\":641:665   */\n      tag_91\n      jump\t// in\n    tag_126:\n        /* \"#utility.yul\":634:639   */\n      dup2\n        /* \"#utility.yul\":631:666   */\n      eq\n        /* \"#utility.yul\":621:684   */\n      tag_127\n      jumpi\n        /* \"#utility.yul\":680:681   */\n      0x00\n        /* \"#utility.yul\":677:678   */\n      dup1\n        /* \"#utility.yul\":670:682   */\n      revert\n        /* \"#utility.yul\":621:684   */\n    tag_127:\n        /* \"#utility.yul\":568:690   */\n      pop\n      jump\t// out\n        /* \"#utility.yul\":696:835   */\n    tag_93:\n        /* \"#utility.yul\":742:747   */\n      0x00\n        /* \"#utility.yul\":780:786   */\n      dup2\n        /* \"#utility.yul\":767:787   */\n      calldataload\n        /* \"#utility.yul\":758:787   */\n      swap1\n      pop\n        /* \"#utility.yul\":796:829   */\n      tag_129\n        /* \"#utility.yul\":823:828   */\n      dup2\n        /* \"#utility.yul\":796:829   */\n      tag_92\n      jump\t// in\n    tag_129:\n        /* \"#utility.yul\":696:835   */\n      swap3\n      swap2\n      pop\n      pop\n      jump\t// out\n        /* \"#utility.yul\":841:1170   */\n    tag_12:\n        /* \"#utility.yul\":900:906   */\n      0x00\n        /* \"#utility.yul\":949:951   */\n      0x20\n        /* \"#utility.yul\":937:946   */\n      dup3\n        /* \"#utility.yul\":928:935   */\n      dup5\n        /* \"#utility.yul\":924:947   */\n      sub\n        /* \"#utility.yul\":920:952   */\n      slt\n        /* \"#utility.yul\":917:1036   */\n      iszero\n      tag_131\n      jumpi\n        /* \"#utility.yul\":955:1034   */\n      tag_132\n      tag_88\n      jump\t// in\n    tag_132:\n        /* \"#utility.yul\":917:1036   */\n    tag_131:\n        /* \"#utility.yul\":1075:1076   */\n      0x00\n        /* \"#utility.yul\":1100:1153   */\n      tag_133\n        /* \"#utility.yul\":1145:1152   */\n      dup5\n        /* \"#utility.yul\":1136:1142   */\n      dup3\n        /* \"#utility.yul\":1125:1134   */\n      dup6\n        /* \"#utility.yul\":1121:1143   */\n      add\n        /* \"#utility.yul\":1100:1153   */\n      tag_93\n      jump\t// in\n    tag_133:\n        /* \"#utility.yul\":1090:1153   */\n      swap2\n      pop\n        /* \"#utility.yul\":1046:1163   */\n      pop\n        /* \"#utility.yul\":841:1170   */\n      swap3\n      swap2\n      pop\n      pop\n      jump\t// out\n        /* \"#utility.yul\":1176:1253   */\n    tag_94:\n        /* \"#utility.yul\":1213:1220   */\n      0x00\n        /* \"#utility.yul\":1242:1247   */\n      dup2\n        /* \"#utility.yul\":1231:1247   */\n      swap1\n      pop\n        /* \"#utility.yul\":1176:1253   */\n      swap2\n      swap1\n      pop\n      jump\t// out\n        /* \"#utility.yul\":1259:1377   */\n    tag_95:\n        /* \"#utility.yul\":1346:1370   */\n      tag_136\n        /* \"#utility.yul\":1364:1369   */\n      dup2\n        /* \"#utility.yul\":1346:1370   */\n      tag_94\n      jump\t// in\n    tag_136:\n        /* \"#utility.yul\":1341:1344   */\n      dup3\n        /* \"#utility.yul\":1334:1371   */\n      mstore\n        /* \"#utility.yul\":1259:1377   */\n      pop\n      pop\n      jump\t// out\n        /* \"#utility.yul\":1383:1605   */\n    tag_15:\n        /* \"#utility.yul\":1476:1480   */\n      0x00\n        /* \"#utility.yul\":1514:1516   */\n      0x20\n        /* \"#utility.yul\":1503:1512   */\n      dup3\n        /* \"#utility.yul\":1499:1517   */\n      add\n        /* \"#utility.yul\":1491:1517   */\n      swap1\n      pop\n        /* \"#utility.yul\":1527:1598   */\n      tag_138\n        /* \"#utility.yul\":1595:1596   */\n      0x00\n        /* \"#utility.yul\":1584:1593   */\n      dup4\n        /* \"#utility.yul\":1580:1597   */\n      add\n        /* \"#utility.yul\":1571:1577   */\n      dup5\n        /* \"#utility.yul\":1527:1598   */\n      tag_95\n      jump\t// in\n    tag_138:\n        /* \"#utility.yul\":1383:1605   */\n      swap3\n      swap2\n      pop\n      pop\n      jump\t// out\n        /* \"#utility.yul\":1611:1733   */\n    tag_96:\n        /* \"#utility.yul\":1684:1708   */\n      tag_140\n        /* \"#utility.yul\":1702:1707   */\n      dup2\n        /* \"#utility.yul\":1684:1708   */\n      tag_94\n      jump\t// in\n    tag_140:\n        /* \"#utility.yul\":1677:1682   */\n      dup2\n        /* \"#utility.yul\":1674:1709   */\n      eq\n        /* \"#utility.yul\":1664:1727   */\n      tag_141\n      jumpi\n        /* \"#utility.yul\":1723:1724   */\n      0x00\n        /* \"#utility.yul\":1720:1721   */\n      dup1\n        /* \"#utility.yul\":1713:1725   */\n      revert\n        /* \"#utility.yul\":1664:1727   */\n    tag_141:\n        /* \"#utility.yul\":1611:1733   */\n      pop\n      jump\t// out\n        /* \"#utility.yul\":1739:1878   */\n    tag_97:\n        /* \"#utility.yul\":1785:1790   */\n      0x00\n        /* \"#utility.yul\":1823:1829   */\n      dup2\n        /* \"#utility.yul\":1810:1830   */\n      calldataload\n        /* \"#utility.yul\":1801:1830   */\n      swap1\n      pop\n        /* \"#utility.yul\":1839:1872   */\n      tag_143\n        /* \"#utility.yul\":1866:1871   */\n      dup2\n        /* \"#utility.yul\":1839:1872   */\n      tag_96\n      jump\t// in\n    tag_143:\n        /* \"#utility.yul\":1739:1878   */\n      swap3\n      swap2\n      pop\n      pop\n      jump\t// out\n        /* \"#utility.yul\":1884:2213   */\n    tag_21:\n        /* \"#utility.yul\":1943:1949   */\n      0x00\n        /* \"#utility.yul\":1992:1994   */\n      0x20\n        /* \"#utility.yul\":1980:1989   */\n      dup3\n        /* \"#utility.yul\":1971:1978   */\n      dup5\n        /* \"#utility.yul\":1967:1990   */\n      sub\n        /* \"#utility.yul\":1963:1995   */\n      slt\n        /* \"#utility.yul\":1960:2079   */\n      iszero\n      tag_145\n      jumpi\n        /* \"#utility.yul\":1998:2077   */\n      tag_146\n      tag_88\n      jump\t// in\n    tag_146:\n        /* \"#utility.yul\":1960:2079   */\n    tag_145:\n        /* \"#utility.yul\":2118:2119   */\n      0x00\n        /* \"#utility.yul\":2143:2196   */\n      tag_147\n        /* \"#utility.yul\":2188:2195   */\n      dup5\n        /* \"#utility.yul\":2179:2185   */\n      dup3\n        /* \"#utility.yul\":2168:2177   */\n      dup6\n        /* \"#utility.yul\":2164:2186   */\n      add\n        /* \"#utility.yul\":2143:2196   */\n      tag_97\n      jump\t// in\n    tag_147:\n        /* \"#utility.yul\":2133:2196   */\n      swap2\n      pop\n        /* \"#utility.yul\":2089:2206   */\n      pop\n        /* \"#utility.yul\":1884:2213   */\n      swap3\n      swap2\n      pop\n      pop\n      jump\t// out\n        /* \"#utility.yul\":2219:2337   */\n    tag_98:\n        /* \"#utility.yul\":2306:2330   */\n      tag_149\n        /* \"#utility.yul\":2324:2329   */\n      dup2\n        /* \"#utility.yul\":2306:2330   */\n      tag_91\n      jump\t// in\n    tag_149:\n        /* \"#utility.yul\":2301:2304   */\n      dup3\n        /* \"#utility.yul\":2294:2331   */\n      mstore\n        /* \"#utility.yul\":2219:2337   */\n      pop\n      pop\n      jump\t// out\n        /* \"#utility.yul\":2343:2565   */\n    tag_24:\n        /* \"#utility.yul\":2436:2440   */\n      0x00\n        /* \"#utility.yul\":2474:2476   */\n      0x20\n        /* \"#utility.yul\":2463:2472   */\n      dup3\n        /* \"#utility.yul\":2459:2477   */\n      add\n        /* \"#utility.yul\":2451:2477   */\n      swap1\n      pop\n        /* \"#utility.yul\":2487:2558   */\n      tag_151\n        /* \"#utility.yul\":2555:2556   */\n      0x00\n        /* \"#utility.yul\":2544:2553   */\n      dup4\n        /* \"#utility.yul\":2540:2557   */\n      add\n        /* \"#utility.yul\":2531:2537   */\n      dup5\n        /* \"#utility.yul\":2487:2558   */\n      tag_98\n      jump\t// in\n    tag_151:\n        /* \"#utility.yul\":2343:2565   */\n      swap3\n      swap2\n      pop\n      pop\n      jump\t// out\n        /* \"#utility.yul\":2571:2751   */\n    tag_31:\n        /* \"#utility.yul\":2619:2696   */\n      0x4e487b7100000000000000000000000000000000000000000000000000000000\n        /* \"#utility.yul\":2616:2617   */\n      0x00\n        /* \"#utility.yul\":2609:2697   */\n      mstore\n        /* \"#utility.yul\":2716:2720   */\n      0x32\n        /* \"#utility.yul\":2713:2714   */\n      0x04\n        /* \"#utility.yul\":2706:2721   */\n      mstore\n        /* \"#utility.yul\":2740:2744   */\n      0x24\n        /* \"#utility.yul\":2737:2738   */\n      0x00\n        /* \"#utility.yul\":2730:2745   */\n      revert\n        /* \"#utility.yul\":2757:2937   */\n    tag_99:\n        /* \"#utility.yul\":2805:2882   */\n      0x4e487b7100000000000000000000000000000000000000000000000000000000\n        /* \"#utility.yul\":2802:2803   */\n      0x00\n        /* \"#utility.yul\":2795:2883   */\n      mstore\n        /* \"#utility.yul\":2902:2906   */\n      0x11\n        /* \"#utility.yul\":2899:2900   */\n      0x04\n        /* \"#utility.yul\":2892:2907   */\n      mstore\n        /* \"#utility.yul\":2926:2930   */\n      0x24\n        /* \"#utility.yul\":2923:2924   */\n      0x00\n        /* \"#utility.yul\":2916:2931   */\n      revert\n        /* \"#utility.yul\":2943:3176   */\n    tag_34:\n        /* \"#utility.yul\":2982:2985   */\n      0x00\n        /* \"#utility.yul\":3005:3029   */\n      tag_155\n        /* \"#utility.yul\":3023:3028   */\n      dup3\n        /* \"#utility.yul\":3005:3029   */\n      tag_94\n      jump\t// in\n    tag_155:\n        /* \"#utility.yul\":2996:3029   */\n      swap2\n      pop\n        /* \"#utility.yul\":3051:3117   */\n      0xffffffffffffffffffffffffffffffffffffffffffffffffffffffffffffffff\n        /* \"#utility.yul\":3044:3049   */\n      dup3\n        /* \"#utility.yul\":3041:3118   */\n      sub\n        /* \"#utility.yul\":3038:3141   */\n      tag_156\n      jumpi\n        /* \"#utility.yul\":3121:3139   */\n      tag_157\n      tag_99\n      jump\t// in\n    tag_157:\n        /* \"#utility.yul\":3038:3141   */\n    tag_156:\n        /* \"#utility.yul\":3168:3169   */\n      0x01\n        /* \"#utility.yul\":3161:3166   */\n      dup3\n        /* \"#utility.yul\":3157:3170   */\n      add\n        /* \"#utility.yul\":3150:3170   */\n      swap1\n      pop\n        /* \"#utility.yul\":2943:3176   */\n      swap2\n      swap1\n      pop\n      jump\t// out\n        /* \"#utility.yul\":3182:3362   */\n    tag_37:\n        /* \"#utility.yul\":3230:3307   */\n      0x4e487b7100000000000000000000000000000000000000000000000000000000\n        /* \"#utility.yul\":3227:3228   */\n      0x00\n        /* \"#utility.yul\":3220:3308   */\n      mstore\n        /* \"#utility.yul\":3327:3331   */\n      0x41\n        /* \"#utility.yul\":3324:3325   */\n      0x04\n        /* \"#utility.yul\":3317:3332   */\n      mstore\n        /* \"#utility.yul\":3351:3355   */\n      0x24\n        /* \"#utility.yul\":3348:3349   */\n      0x00\n        /* \"#utility.yul\":3341:3356   */\n      revert\n        /* \"#utility.yul\":3368:3537   */\n    tag_100:\n        /* \"#utility.yul\":3452:3463   */\n      0x00\n        /* \"#utility.yul\":3486:3492   */\n      dup3\n        /* \"#utility.yul\":3481:3484   */\n      dup3\n        /* \"#utility.yul\":3474:3493   */\n      mstore\n        /* \"#utility.yul\":3526:3530   */\n      0x20\n        /* \"#utility.yul\":3521:3524   */\n      dup3\n        /* \"#utility.yul\":3517:3531   */\n      add\n        /* \"#utility.yul\":3502:3531   */\n      swap1\n      pop\n        /* \"#utility.yul\":3368:3537   */\n      swap3\n      swap2\n      pop\n      pop\n      jump\t// out\n        /* \"#utility.yul\":3543:3724   */\n    tag_101:\n        /* \"#utility.yul\":3683:3716   */\n      0x74686572652077617320616e206572726f723a2073656e64206661696c656400\n        /* \"#utility.yul\":3679:3680   */\n      0x00\n        /* \"#utility.yul\":3671:3677   */\n      dup3\n        /* \"#utility.yul\":3667:3681   */\n      add\n        /* \"#utility.yul\":3660:3717   */\n      mstore\n        /* \"#utility.yul\":3543:3724   */\n      pop\n      jump\t// out\n        /* \"#utility.yul\":3730:4096   */\n    tag_102:\n        /* \"#utility.yul\":3872:3875   */\n      0x00\n        /* \"#utility.yul\":3893:3960   */\n      tag_162\n        /* \"#utility.yul\":3957:3959   */\n      0x1f\n        /* \"#utility.yul\":3952:3955   */\n      dup4\n        /* \"#utility.yul\":3893:3960   */\n      tag_100\n      jump\t// in\n    tag_162:\n        /* \"#utility.yul\":3886:3960   */\n      swap2\n      pop\n        /* \"#utility.yul\":3969:4062   */\n      tag_163\n        /* \"#utility.yul\":4058:4061   */\n      dup3\n        /* \"#utility.yul\":3969:4062   */\n      tag_101\n      jump\t// in\n    tag_163:\n        /* \"#utility.yul\":4087:4089   */\n      0x20\n        /* \"#utility.yul\":4082:4085   */\n      dup3\n        /* \"#utility.yul\":4078:4090   */\n      add\n        /* \"#utility.yul\":4071:4090   */\n      swap1\n      pop\n        /* \"#utility.yul\":3730:4096   */\n      swap2\n      swap1\n      pop\n      jump\t// out\n        /* \"#utility.yul\":4102:4521   */\n    tag_46:\n        /* \"#utility.yul\":4268:4272   */\n      0x00\n        /* \"#utility.yul\":4306:4308   */\n      0x20\n        /* \"#utility.yul\":4295:4304   */\n      dup3\n        /* \"#utility.yul\":4291:4309   */\n      add\n        /* \"#utility.yul\":4283:4309   */\n      swap1\n      pop\n        /* \"#utility.yul\":4355:4364   */\n      dup2\n        /* \"#utility.yul\":4349:4353   */\n      dup2\n        /* \"#utility.yul\":4345:4365   */\n      sub\n        /* \"#utility.yul\":4341:4342   */\n      0x00\n        /* \"#utility.yul\":4330:4339   */\n      dup4\n        /* \"#utility.yul\":4326:4343   */\n      add\n        /* \"#utility.yul\":4319:4366   */\n      mstore\n        /* \"#utility.yul\":4383:4514   */\n      tag_165\n        /* \"#utility.yul\":4509:4513   */\n      dup2\n        /* \"#utility.yul\":4383:4514   */\n      tag_102\n      jump\t// in\n    tag_165:\n        /* \"#utility.yul\":4375:4514   */\n      swap1\n      pop\n        /* \"#utility.yul\":4102:4521   */\n      swap2\n      swap1\n      pop\n      jump\t// out\n        /* \"#utility.yul\":4527:4674   */\n    tag_103:\n        /* \"#utility.yul\":4628:4639   */\n      0x00\n        /* \"#utility.yul\":4665:4668   */\n      dup2\n        /* \"#utility.yul\":4650:4668   */\n      swap1\n      pop\n        /* \"#utility.yul\":4527:4674   */\n      swap3\n      swap2\n      pop\n      pop\n      jump\t// out\n        /* \"#utility.yul\":4680:4794   */\n    tag_104:\n      pop\n      jump\t// out\n        /* \"#utility.yul\":4800:5198   */\n    tag_105:\n        /* \"#utility.yul\":4959:4962   */\n      0x00\n        /* \"#utility.yul\":4980:5063   */\n      tag_169\n        /* \"#utility.yul\":5061:5062   */\n      0x00\n        /* \"#utility.yul\":5056:5059   */\n      dup4\n        /* \"#utility.yul\":4980:5063   */\n      tag_103\n      jump\t// in\n    tag_169:\n        /* \"#utility.yul\":4973:5063   */\n      swap2\n      pop\n        /* \"#utility.yul\":5072:5165   */\n      tag_170\n        /* \"#utility.yul\":5161:5164   */\n      dup3\n        /* \"#utility.yul\":5072:5165   */\n      tag_104\n      jump\t// in\n    tag_170:\n        /* \"#utility.yul\":5190:5191   */\n      0x00\n        /* \"#utility.yul\":5185:5188   */\n      dup3\n        /* \"#utility.yul\":5181:5192   */\n      add\n        /* \"#utility.yul\":5174:5192   */\n      swap1\n      pop\n        /* \"#utility.yul\":4800:5198   */\n      swap2\n      swap1\n      pop\n      jump\t// out\n        /* \"#utility.yul\":5204:5583   */\n    tag_48:\n        /* \"#utility.yul\":5388:5391   */\n      0x00\n        /* \"#utility.yul\":5410:5557   */\n      tag_172\n        /* \"#utility.yul\":5553:5556   */\n      dup3\n        /* \"#utility.yul\":5410:5557   */\n      tag_105\n      jump\t// in\n    tag_172:\n        /* \"#utility.yul\":5403:5557   */\n      swap2\n      pop\n        /* \"#utility.yul\":5574:5577   */\n      dup2\n        /* \"#utility.yul\":5567:5577   */\n      swap1\n      pop\n        /* \"#utility.yul\":5204:5583   */\n      swap2\n      swap1\n      pop\n      jump\t// out\n        /* \"#utility.yul\":5589:5750   */\n    tag_106:\n        /* \"#utility.yul\":5729:5742   */\n      0x63616c6c206661696c6564000000000000000000000000000000000000000000\n        /* \"#utility.yul\":5725:5726   */\n      0x00\n        /* \"#utility.yul\":5717:5723   */\n      dup3\n        /* \"#utility.yul\":5713:5727   */\n      add\n        /* \"#utility.yul\":5706:5743   */\n      mstore\n        /* \"#utility.yul\":5589:5750   */\n      pop\n      jump\t// out\n        /* \"#utility.yul\":5756:6122   */\n    tag_107:\n        /* \"#utility.yul\":5898:5901   */\n      0x00\n        /* \"#utility.yul\":5919:5986   */\n      tag_175\n        /* \"#utility.yul\":5983:5985   */\n      0x0b\n        /* \"#utility.yul\":5978:5981   */\n      dup4\n        /* \"#utility.yul\":5919:5986   */\n      tag_100\n      jump\t// in\n    tag_175:\n        /* \"#utility.yul\":5912:5986   */\n      swap2\n      pop\n        /* \"#utility.yul\":5995:6088   */\n      tag_176\n        /* \"#utility.yul\":6084:6087   */\n      dup3\n        /* \"#utility.yul\":5995:6088   */\n      tag_106\n      jump\t// in\n    tag_176:\n        /* \"#utility.yul\":6113:6115   */\n      0x20\n        /* \"#utility.yul\":6108:6111   */\n      dup3\n        /* \"#utility.yul\":6104:6116   */\n      add\n        /* \"#utility.yul\":6097:6116   */\n      swap1\n      pop\n        /* \"#utility.yul\":5756:6122   */\n      swap2\n      swap1\n      pop\n      jump\t// out\n        /* \"#utility.yul\":6128:6547   */\n    tag_54:\n        /* \"#utility.yul\":6294:6298   */\n      0x00\n        /* \"#utility.yul\":6332:6334   */\n      0x20\n        /* \"#utility.yul\":6321:6330   */\n      dup3\n        /* \"#utility.yul\":6317:6335   */\n      add\n        /* \"#utility.yul\":6309:6335   */\n      swap1\n      pop\n        /* \"#utility.yul\":6381:6390   */\n      dup2\n        /* \"#utility.yul\":6375:6379   */\n      dup2\n        /* \"#utility.yul\":6371:6391   */\n      sub\n        /* \"#utility.yul\":6367:6368   */\n      0x00\n        /* \"#utility.yul\":6356:6365   */\n      dup4\n        /* \"#utility.yul\":6352:6369   */\n      add\n        /* \"#utility.yul\":6345:6392   */\n      mstore\n        /* \"#utility.yul\":6409:6540   */\n      tag_178\n        /* \"#utility.yul\":6535:6539   */\n      dup2\n        /* \"#utility.yul\":6409:6540   */\n      tag_107\n      jump\t// in\n    tag_178:\n        /* \"#utility.yul\":6401:6540   */\n      swap1\n      pop\n        /* \"#utility.yul\":6128:6547   */\n      swap2\n      swap1\n      pop\n      jump\t// out\n        /* \"#utility.yul\":6553:6724   */\n    tag_108:\n        /* \"#utility.yul\":6693:6716   */\n      0x6469646e742073656e6420656e6f756768204554480000000000000000000000\n        /* \"#utility.yul\":6689:6690   */\n      0x00\n        /* \"#utility.yul\":6681:6687   */\n      dup3\n        /* \"#utility.yul\":6677:6691   */\n      add\n        /* \"#utility.yul\":6670:6717   */\n      mstore\n        /* \"#utility.yul\":6553:6724   */\n      pop\n      jump\t// out\n        /* \"#utility.yul\":6730:7096   */\n    tag_109:\n        /* \"#utility.yul\":6872:6875   */\n      0x00\n        /* \"#utility.yul\":6893:6960   */\n      tag_181\n        /* \"#utility.yul\":6957:6959   */\n      0x15\n        /* \"#utility.yul\":6952:6955   */\n      dup4\n        /* \"#utility.yul\":6893:6960   */\n      tag_100\n      jump\t// in\n    tag_181:\n        /* \"#utility.yul\":6886:6960   */\n      swap2\n      pop\n        /* \"#utility.yul\":6969:7062   */\n      tag_182\n        /* \"#utility.yul\":7058:7061   */\n      dup3\n        /* \"#utility.yul\":6969:7062   */\n      tag_108\n      jump\t// in\n    tag_182:\n        /* \"#utility.yul\":7087:7089   */\n      0x20\n        /* \"#utility.yul\":7082:7085   */\n      dup3\n        /* \"#utility.yul\":7078:7090   */\n      add\n        /* \"#utility.yul\":7071:7090   */\n      swap1\n      pop\n        /* \"#utility.yul\":6730:7096   */\n      swap2\n      swap1\n      pop\n      jump\t// out\n        /* \"#utility.yul\":7102:7521   */\n    tag_60:\n        /* \"#utility.yul\":7268:7272   */\n      0x00\n        /* \"#utility.yul\":7306:7308   */\n      0x20\n        /* \"#utility.yul\":7295:7304   */\n      dup3\n        /* \"#utility.yul\":7291:7309   */\n      add\n        /* \"#utility.yul\":7283:7309   */\n      swap1\n      pop\n        /* \"#utility.yul\":7355:7364   */\n      dup2\n        /* \"#utility.yul\":7349:7353   */\n      dup2\n        /* \"#utility.yul\":7345:7365   */\n      sub\n        /* \"#utility.yul\":7341:7342   */\n      0x00\n        /* \"#utility.yul\":7330:7339   */\n      dup4\n        /* \"#utility.yul\":7326:7343   */\n      add\n        /* \"#utility.yul\":7319:7366   */\n      mstore\n        /* \"#utility.yul\":7383:7514   */\n      tag_184\n        /* \"#utility.yul\":7509:7513   */\n      dup2\n        /* \"#utility.yul\":7383:7514   */\n      tag_109\n      jump\t// in\n    tag_184:\n        /* \"#utility.yul\":7375:7514   */\n      swap1\n      pop\n        /* \"#utility.yul\":7102:7521   */\n      swap2\n      swap1\n      pop\n      jump\t// out\n        /* \"#utility.yul\":7527:7718   */\n    tag_63:\n        /* \"#utility.yul\":7567:7570   */\n      0x00\n        /* \"#utility.yul\":7586:7606   */\n      tag_186\n        /* \"#utility.yul\":7604:7605   */\n      dup3\n        /* \"#utility.yul\":7586:7606   */\n      tag_94\n      jump\t// in\n    tag_186:\n        /* \"#utility.yul\":7581:7606   */\n      swap2\n      pop\n        /* \"#utility.yul\":7620:7640   */\n      tag_187\n        /* \"#utility.yul\":7638:7639   */\n      dup4\n        /* \"#utility.yul\":7620:7640   */\n      tag_94\n      jump\t// in\n    tag_187:\n        /* \"#utility.yul\":7615:7640   */\n      swap3\n      pop\n        /* \"#utility.yul\":7663:7664   */\n      dup3\n        /* \"#utility.yul\":7660:7661   */\n      dup3\n        /* \"#utility.yul\":7656:7665   */\n      add\n        /* \"#utility.yul\":7649:7665   */\n      swap1\n      pop\n        /* \"#utility.yul\":7684:7687   */\n      dup1\n        /* \"#utility.yul\":7681:7682   */\n      dup3\n        /* \"#utility.yul\":7678:7688   */\n      gt\n        /* \"#utility.yul\":7675:7711   */\n      iszero\n      tag_188\n      jumpi\n        /* \"#utility.yul\":7691:7709   */\n      tag_189\n      tag_99\n      jump\t// in\n    tag_189:\n        /* \"#utility.yul\":7675:7711   */\n    tag_188:\n        /* \"#utility.yul\":7527:7718   */\n      swap3\n      swap2\n      pop\n      pop\n      jump\t// out\n        /* \"#utility.yul\":7724:8134   */\n    tag_70:\n        /* \"#utility.yul\":7764:7771   */\n      0x00\n        /* \"#utility.yul\":7787:7807   */\n      tag_191\n        /* \"#utility.yul\":7805:7806   */\n      dup3\n        /* \"#utility.yul\":7787:7807   */\n      tag_94\n      jump\t// in\n    tag_191:\n        /* \"#utility.yul\":7782:7807   */\n      swap2\n      pop\n        /* \"#utility.yul\":7821:7841   */\n      tag_192\n        /* \"#utility.yul\":7839:7840   */\n      dup4\n        /* \"#utility.yul\":7821:7841   */\n      tag_94\n      jump\t// in\n    tag_192:\n        /* \"#utility.yul\":7816:7841   */\n      swap3\n      pop\n        /* \"#utility.yul\":7876:7877   */\n      dup3\n        /* \"#utility.yul\":7873:7874   */\n      dup3\n        /* \"#utility.yul\":7869:7878   */\n      mul\n        /* \"#utility.yul\":7898:7928   */\n      tag_193\n        /* \"#utility.yul\":7916:7927   */\n      dup2\n        /* \"#utility.yul\":7898:7928   */\n      tag_94\n      jump\t// in\n    tag_193:\n        /* \"#utility.yul\":7887:7928   */\n      swap2\n      pop\n        /* \"#utility.yul\":8077:8078   */\n      dup3\n        /* \"#utility.yul\":8068:8075   */\n      dup3\n        /* \"#utility.yul\":8064:8079   */\n      div\n        /* \"#utility.yul\":8061:8062   */\n      dup5\n        /* \"#utility.yul\":8058:8080   */\n      eq\n        /* \"#utility.yul\":8038:8039   */\n      dup4\n        /* \"#utility.yul\":8031:8040   */\n      iszero\n        /* \"#utility.yul\":8011:8094   */\n      or\n        /* \"#utility.yul\":7988:8127   */\n      tag_194\n      jumpi\n        /* \"#utility.yul\":8107:8125   */\n      tag_195\n      tag_99\n      jump\t// in\n    tag_195:\n        /* \"#utility.yul\":7988:8127   */\n    tag_194:\n        /* \"#utility.yul\":7772:8134   */\n      pop\n        /* \"#utility.yul\":7724:8134   */\n      swap3\n      swap2\n      pop\n      pop\n      jump\t// out\n        /* \"#utility.yul\":8140:8320   */\n    tag_110:\n        /* \"#utility.yul\":8188:8265   */\n      0x4e487b7100000000000000000000000000000000000000000000000000000000\n        /* \"#utility.yul\":8185:8186   */\n      0x00\n        /* \"#utility.yul\":8178:8266   */\n      mstore\n        /* \"#utility.yul\":8285:8289   */\n      0x12\n        /* \"#utility.yul\":8282:8283   */\n      0x04\n        /* \"#utility.yul\":8275:8290   */\n      mstore\n        /* \"#utility.yul\":8309:8313   */\n      0x24\n        /* \"#utility.yul\":8306:8307   */\n      0x00\n        /* \"#utility.yul\":8299:8314   */\n      revert\n        /* \"#utility.yul\":8326:8511   */\n    tag_72:\n        /* \"#utility.yul\":8366:8367   */\n      0x00\n        /* \"#utility.yul\":8383:8403   */\n      tag_198\n        /* \"#utility.yul\":8401:8402   */\n      dup3\n        /* \"#utility.yul\":8383:8403   */\n      tag_94\n      jump\t// in\n    tag_198:\n        /* \"#utility.yul\":8378:8403   */\n      swap2\n      pop\n        /* \"#utility.yul\":8417:8437   */\n      tag_199\n        /* \"#utility.yul\":8435:8436   */\n      dup4\n        /* \"#utility.yul\":8417:8437   */\n      tag_94\n      jump\t// in\n    tag_199:\n        /* \"#utility.yul\":8412:8437   */\n      swap3\n      pop\n        /* \"#utility.yul\":8456:8457   */\n      dup3\n        /* \"#utility.yul\":8446:8481   */\n      tag_200\n      jumpi\n        /* \"#utility.yul\":8461:8479   */\n      tag_201\n      tag_110\n      jump\t// in\n    tag_201:\n        /* \"#utility.yul\":8446:8481   */\n    tag_200:\n        /* \"#utility.yul\":8503:8504   */\n      dup3\n        /* \"#utility.yul\":8500:8501   */\n      dup3\n        /* \"#utility.yul\":8496:8505   */\n      div\n        /* \"#utility.yul\":8491:8505   */\n      swap1\n      pop\n        /* \"#utility.yul\":8326:8511   */\n      swap3\n      swap2\n      pop\n      pop\n      jump\t// out\n        /* \"#utility.yul\":8517:8622   */\n    tag_111:\n        /* \"#utility.yul\":8553:8560   */\n      0x00\n        /* \"#utility.yul\":8593:8615   */\n      0xffffffffffffffffffff\n        /* \"#utility.yul\":8586:8591   */\n      dup3\n        /* \"#utility.yul\":8582:8616   */\n      and\n        /* \"#utility.yul\":8571:8616   */\n      swap1\n      pop\n        /* \"#utility.yul\":8517:8622   */\n      swap2\n      swap1\n      pop\n      jump\t// out\n        /* \"#utility.yul\":8628:8748   */\n    tag_112:\n        /* \"#utility.yul\":8700:8723   */\n      tag_204\n        /* \"#utility.yul\":8717:8722   */\n      dup2\n        /* \"#utility.yul\":8700:8723   */\n      tag_111\n      jump\t// in\n    tag_204:\n        /* \"#utility.yul\":8693:8698   */\n      dup2\n        /* \"#utility.yul\":8690:8724   */\n      eq\n        /* \"#utility.yul\":8680:8742   */\n      tag_205\n      jumpi\n        /* \"#utility.yul\":8738:8739   */\n      0x00\n        /* \"#utility.yul\":8735:8736   */\n      dup1\n        /* \"#utility.yul\":8728:8740   */\n      revert\n        /* \"#utility.yul\":8680:8742   */\n    tag_205:\n        /* \"#utility.yul\":8628:8748   */\n      pop\n      jump\t// out\n        /* \"#utility.yul\":8754:8895   */\n    tag_113:\n        /* \"#utility.yul\":8810:8815   */\n      0x00\n        /* \"#utility.yul\":8841:8847   */\n      dup2\n        /* \"#utility.yul\":8835:8848   */\n      mload\n        /* \"#utility.yul\":8826:8848   */\n      swap1\n      pop\n        /* \"#utility.yul\":8857:8889   */\n      tag_207\n        /* \"#utility.yul\":8883:8888   */\n      dup2\n        /* \"#utility.yul\":8857:8889   */\n      tag_112\n      jump\t// in\n    tag_207:\n        /* \"#utility.yul\":8754:8895   */\n      swap3\n      swap2\n      pop\n      pop\n      jump\t// out\n        /* \"#utility.yul\":8901:8977   */\n    tag_114:\n        /* \"#utility.yul\":8937:8944   */\n      0x00\n        /* \"#utility.yul\":8966:8971   */\n      dup2\n        /* \"#utility.yul\":8955:8971   */\n      swap1\n      pop\n        /* \"#utility.yul\":8901:8977   */\n      swap2\n      swap1\n      pop\n      jump\t// out\n        /* \"#utility.yul\":8983:9103   */\n    tag_115:\n        /* \"#utility.yul\":9055:9078   */\n      tag_210\n        /* \"#utility.yul\":9072:9077   */\n      dup2\n        /* \"#utility.yul\":9055:9078   */\n      tag_114\n      jump\t// in\n    tag_210:\n        /* \"#utility.yul\":9048:9053   */\n      dup2\n        /* \"#utility.yul\":9045:9079   */\n      eq\n        /* \"#utility.yul\":9035:9097   */\n      tag_211\n      jumpi\n        /* \"#utility.yul\":9093:9094   */\n      0x00\n        /* \"#utility.yul\":9090:9091   */\n      dup1\n        /* \"#utility.yul\":9083:9095   */\n      revert\n        /* \"#utility.yul\":9035:9097   */\n    tag_211:\n        /* \"#utility.yul\":8983:9103   */\n      pop\n      jump\t// out\n        /* \"#utility.yul\":9109:9250   */\n    tag_116:\n        /* \"#utility.yul\":9165:9170   */\n      0x00\n        /* \"#utility.yul\":9196:9202   */\n      dup2\n        /* \"#utility.yul\":9190:9203   */\n      mload\n        /* \"#utility.yul\":9181:9203   */\n      swap1\n      pop\n        /* \"#utility.yul\":9212:9244   */\n      tag_213\n        /* \"#utility.yul\":9238:9243   */\n      dup2\n        /* \"#utility.yul\":9212:9244   */\n      tag_115\n      jump\t// in\n    tag_213:\n        /* \"#utility.yul\":9109:9250   */\n      swap3\n      swap2\n      pop\n      pop\n      jump\t// out\n        /* \"#utility.yul\":9256:9399   */\n    tag_117:\n        /* \"#utility.yul\":9313:9318   */\n      0x00\n        /* \"#utility.yul\":9344:9350   */\n      dup2\n        /* \"#utility.yul\":9338:9351   */\n      mload\n        /* \"#utility.yul\":9329:9351   */\n      swap1\n      pop\n        /* \"#utility.yul\":9360:9393   */\n      tag_215\n        /* \"#utility.yul\":9387:9392   */\n      dup2\n        /* \"#utility.yul\":9360:9393   */\n      tag_96\n      jump\t// in\n    tag_215:\n        /* \"#utility.yul\":9256:9399   */\n      swap3\n      swap2\n      pop\n      pop\n      jump\t// out\n        /* \"#utility.yul\":9405:10376   */\n    tag_77:\n        /* \"#utility.yul\":9508:9514   */\n      0x00\n        /* \"#utility.yul\":9516:9522   */\n      dup1\n        /* \"#utility.yul\":9524:9530   */\n      0x00\n        /* \"#utility.yul\":9532:9538   */\n      dup1\n        /* \"#utility.yul\":9540:9546   */\n      0x00\n        /* \"#utility.yul\":9589:9592   */\n      0xa0\n        /* \"#utility.yul\":9577:9586   */\n      dup7\n        /* \"#utility.yul\":9568:9575   */\n      dup9\n        /* \"#utility.yul\":9564:9587   */\n      sub\n        /* \"#utility.yul\":9560:9593   */\n      slt\n        /* \"#utility.yul\":9557:9677   */\n      iszero\n      tag_217\n      jumpi\n        /* \"#utility.yul\":9596:9675   */\n      tag_218\n      tag_88\n      jump\t// in\n    tag_218:\n        /* \"#utility.yul\":9557:9677   */\n    tag_217:\n        /* \"#utility.yul\":9716:9717   */\n      0x00\n        /* \"#utility.yul\":9741:9804   */\n      tag_219\n        /* \"#utility.yul\":9796:9803   */\n      dup9\n        /* \"#utility.yul\":9787:9793   */\n      dup3\n        /* \"#utility.yul\":9776:9785   */\n      dup10\n        /* \"#utility.yul\":9772:9794   */\n      add\n        /* \"#utility.yul\":9741:9804   */\n      tag_113\n      jump\t// in\n    tag_219:\n        /* \"#utility.yul\":9731:9804   */\n      swap6\n      pop\n        /* \"#utility.yul\":9687:9814   */\n      pop\n        /* \"#utility.yul\":9853:9855   */\n      0x20\n        /* \"#utility.yul\":9879:9942   */\n      tag_220\n        /* \"#utility.yul\":9934:9941   */\n      dup9\n        /* \"#utility.yul\":9925:9931   */\n      dup3\n        /* \"#utility.yul\":9914:9923   */\n      dup10\n        /* \"#utility.yul\":9910:9932   */\n      add\n        /* \"#utility.yul\":9879:9942   */\n      tag_116\n      jump\t// in\n    tag_220:\n        /* \"#utility.yul\":9869:9942   */\n      swap5\n      pop\n        /* \"#utility.yul\":9824:9952   */\n      pop\n        /* \"#utility.yul\":9991:9993   */\n      0x40\n        /* \"#utility.yul\":10017:10081   */\n      tag_221\n        /* \"#utility.yul\":10073:10080   */\n      dup9\n        /* \"#utility.yul\":10064:10070   */\n      dup3\n        /* \"#utility.yul\":10053:10062   */\n      dup10\n        /* \"#utility.yul\":10049:10071   */\n      add\n        /* \"#utility.yul\":10017:10081   */\n      tag_117\n      jump\t// in\n    tag_221:\n        /* \"#utility.yul\":10007:10081   */\n      swap4\n      pop\n        /* \"#utility.yul\":9962:10091   */\n      pop\n        /* \"#utility.yul\":10130:10132   */\n      0x60\n        /* \"#utility.yul\":10156:10220   */\n      tag_222\n        /* \"#utility.yul\":10212:10219   */\n      dup9\n        /* \"#utility.yul\":10203:10209   */\n      dup3\n        /* \"#utility.yul\":10192:10201   */\n      dup10\n        /* \"#utility.yul\":10188:10210   */\n      add\n        /* \"#utility.yul\":10156:10220   */\n      tag_117\n      jump\t// in\n    tag_222:\n        /* \"#utility.yul\":10146:10220   */\n      swap3\n      pop\n        /* \"#utility.yul\":10101:10230   */\n      pop\n        /* \"#utility.yul\":10269:10272   */\n      0x80\n        /* \"#utility.yul\":10296:10359   */\n      tag_223\n        /* \"#utility.yul\":10351:10358   */\n      dup9\n        /* \"#utility.yul\":10342:10348   */\n      dup3\n        /* \"#utility.yul\":10331:10340   */\n      dup10\n        /* \"#utility.yul\":10327:10349   */\n      add\n        /* \"#utility.yul\":10296:10359   */\n      tag_113\n      jump\t// in\n    tag_223:\n        /* \"#utility.yul\":10286:10359   */\n      swap2\n      pop\n        /* \"#utility.yul\":10240:10369   */\n      pop\n        /* \"#utility.yul\":9405:10376   */\n      swap3\n      swap6\n      pop\n      swap3\n      swap6\n      swap1\n      swap4\n      pop\n      jump\t// out\n        /* \"#utility.yul\":10382:10938   */\n    tag_79:\n        /* \"#utility.yul\":10421:10428   */\n      0x00\n        /* \"#utility.yul\":10444:10463   */\n      tag_225\n        /* \"#utility.yul\":10461:10462   */\n      dup3\n        /* \"#utility.yul\":10444:10463   */\n      tag_114\n      jump\t// in\n    tag_225:\n        /* \"#utility.yul\":10439:10463   */\n      swap2\n      pop\n        /* \"#utility.yul\":10477:10496   */\n      tag_226\n        /* \"#utility.yul\":10494:10495   */\n      dup4\n        /* \"#utility.yul\":10477:10496   */\n      tag_114\n      jump\t// in\n    tag_226:\n        /* \"#utility.yul\":10472:10496   */\n      swap3\n      pop\n        /* \"#utility.yul\":10531:10532   */\n      dup3\n        /* \"#utility.yul\":10528:10529   */\n      dup3\n        /* \"#utility.yul\":10524:10533   */\n      mul\n        /* \"#utility.yul\":10553:10582   */\n      tag_227\n        /* \"#utility.yul\":10570:10581   */\n      dup2\n        /* \"#utility.yul\":10553:10582   */\n      tag_114\n      jump\t// in\n    tag_227:\n        /* \"#utility.yul\":10542:10582   */\n      swap2\n      pop\n        /* \"#utility.yul\":10640:10706   */\n      0x8000000000000000000000000000000000000000000000000000000000000000\n        /* \"#utility.yul\":10637:10638   */\n      dup5\n        /* \"#utility.yul\":10634:10707   */\n      eq\n        /* \"#utility.yul\":10630:10631   */\n      0x00\n        /* \"#utility.yul\":10627:10628   */\n      dup5\n        /* \"#utility.yul\":10623:10632   */\n      slt\n        /* \"#utility.yul\":10619:10708   */\n      and\n        /* \"#utility.yul\":10616:10731   */\n      iszero\n      tag_228\n      jumpi\n        /* \"#utility.yul\":10711:10729   */\n      tag_229\n      tag_99\n      jump\t// in\n    tag_229:\n        /* \"#utility.yul\":10616:10731   */\n    tag_228:\n        /* \"#utility.yul\":10881:10882   */\n      dup3\n        /* \"#utility.yul\":10872:10879   */\n      dup3\n        /* \"#utility.yul\":10867:10883   */\n      sdiv\n        /* \"#utility.yul\":10864:10865   */\n      dup5\n        /* \"#utility.yul\":10861:10884   */\n      eq\n        /* \"#utility.yul\":10841:10842   */\n      dup4\n        /* \"#utility.yul\":10834:10843   */\n      iszero\n        /* \"#utility.yul\":10814:10898   */\n      or\n        /* \"#utility.yul\":10791:10931   */\n      tag_230\n      jumpi\n        /* \"#utility.yul\":10911:10929   */\n      tag_231\n      tag_99\n      jump\t// in\n    tag_231:\n        /* \"#utility.yul\":10791:10931   */\n    tag_230:\n        /* \"#utility.yul\":10429:10938   */\n      pop\n        /* \"#utility.yul\":10382:10938   */\n      swap3\n      swap2\n      pop\n      pop\n      jump\t// out\n\n    auxdata: 0xa2646970667358221220c06ada6e2c954d16f851312ebba3dd724771b8828c259c986c2241961574621664736f6c634300081a0033\n}\n",
				"bytecode": {
					"linkReferences": {},
					"object": "6080604052674563918244f400005f553480156019575f80fd5b50610c1e806100275f395ff3fe60806040526004361061003e575f3560e01c80630fdb1c10146100425780633e47d6f314610058578063b60d428814610094578063dc0d3dff1461009e575b5f80fd5b34801561004d575f80fd5b506100566100da565b005b348015610063575f80fd5b5061007e60048036038101906100799190610674565b610344565b60405161008b91906106b7565b60405180910390f35b61009c610359565b005b3480156100a9575f80fd5b506100c460048036038101906100bf91906106fa565b610459565b6040516100d19190610734565b60405180910390f35b5f5b600180549050811161017d575f600182815481106100fd576100fc61074d565b5b905f5260205f20015f9054906101000a900473ffffffffffffffffffffffffffffffffffffffff1690505f60025f8373ffffffffffffffffffffffffffffffffffffffff1673ffffffffffffffffffffffffffffffffffffffff1681526020019081526020015f2081905550508080610175906107a7565b9150506100dc565b505f67ffffffffffffffff811115610198576101976107ee565b5b6040519080825280602002602001820160405280156101c65781602001602082028036833780820191505090505b50600190805190602001906101dc929190610574565b503373ffffffffffffffffffffffffffffffffffffffff166108fc4790811502906040515f60405180830381858888f19350505050158015610220573d5f803e3d5ffd5b505f3373ffffffffffffffffffffffffffffffffffffffff166108fc4790811502906040515f60405180830381858888f19350505050905080610298576040517f08c379a000000000000000000000000000000000000000000000000000000000815260040161028f90610875565b60405180910390fd5b5f3373ffffffffffffffffffffffffffffffffffffffff16476040516102bd906108c0565b5f6040518083038185875af1925050503d805f81146102f7576040519150601f19603f3d011682016040523d82523d5f602084013e6102fc565b606091505b5050905080610340576040517f08c379a00000000000000000000000000000000000000000000000000000000081526004016103379061091e565b60405180910390fd5b5050565b6002602052805f5260405f205f915090505481565b5f5461036434610494565b116103a4576040517f08c379a000000000000000000000000000000000000000000000000000000000815260040161039b90610986565b60405180910390fd5b600133908060018154018082558091505060019003905f5260205f20015f9091909190916101000a81548173ffffffffffffffffffffffffffffffffffffffff021916908373ffffffffffffffffffffffffffffffffffffffff1602179055503460025f3373ffffffffffffffffffffffffffffffffffffffff1673ffffffffffffffffffffffffffffffffffffffff1681526020019081526020015f205f82825461045091906109a4565b92505081905550565b60018181548110610468575f80fd5b905f5260205f20015f915054906101000a900473ffffffffffffffffffffffffffffffffffffffff1681565b5f8061049e6104cc565b90505f670de0b6b3a764000084836104b691906109d7565b6104c09190610a45565b90508092505050919050565b5f8073694aa1769357215de4fac081bf1f309adc32530690505f8173ffffffffffffffffffffffffffffffffffffffff1663feaf968c6040518163ffffffff1660e01b815260040160a060405180830381865afa15801561052f573d5f803e3d5ffd5b505050506040513d601f19601f820116820180604052508101906105539190610afb565b505050915050670de0b6b3a76400008161056d9190610b72565b9250505090565b828054828255905f5260205f209081019282156105ea579160200282015b828111156105e9578251825f6101000a81548173ffffffffffffffffffffffffffffffffffffffff021916908373ffffffffffffffffffffffffffffffffffffffff16021790555091602001919060010190610592565b5b5090506105f791906105fb565b5090565b5b80821115610612575f815f9055506001016105fc565b5090565b5f80fd5b5f73ffffffffffffffffffffffffffffffffffffffff82169050919050565b5f6106438261061a565b9050919050565b61065381610639565b811461065d575f80fd5b50565b5f8135905061066e8161064a565b92915050565b5f6020828403121561068957610688610616565b5b5f61069684828501610660565b91505092915050565b5f819050919050565b6106b18161069f565b82525050565b5f6020820190506106ca5f8301846106a8565b92915050565b6106d98161069f565b81146106e3575f80fd5b50565b5f813590506106f4816106d0565b92915050565b5f6020828403121561070f5761070e610616565b5b5f61071c848285016106e6565b91505092915050565b61072e81610639565b82525050565b5f6020820190506107475f830184610725565b92915050565b7f4e487b71000000000000000000000000000000000000000000000000000000005f52603260045260245ffd5b7f4e487b71000000000000000000000000000000000000000000000000000000005f52601160045260245ffd5b5f6107b18261069f565b91507fffffffffffffffffffffffffffffffffffffffffffffffffffffffffffffffff82036107e3576107e261077a565b5b600182019050919050565b7f4e487b71000000000000000000000000000000000000000000000000000000005f52604160045260245ffd5b5f82825260208201905092915050565b7f74686572652077617320616e206572726f723a2073656e64206661696c6564005f82015250565b5f61085f601f8361081b565b915061086a8261082b565b602082019050919050565b5f6020820190508181035f83015261088c81610853565b9050919050565b5f81905092915050565b50565b5f6108ab5f83610893565b91506108b68261089d565b5f82019050919050565b5f6108ca826108a0565b9150819050919050565b7f63616c6c206661696c65640000000000000000000000000000000000000000005f82015250565b5f610908600b8361081b565b9150610913826108d4565b602082019050919050565b5f6020820190508181035f830152610935816108fc565b9050919050565b7f6469646e742073656e6420656e6f7567682045544800000000000000000000005f82015250565b5f61097060158361081b565b915061097b8261093c565b602082019050919050565b5f6020820190508181035f83015261099d81610964565b9050919050565b5f6109ae8261069f565b91506109b98361069f565b92508282019050808211156109d1576109d061077a565b5b92915050565b5f6109e18261069f565b91506109ec8361069f565b92508282026109fa8161069f565b91508282048414831517610a1157610a1061077a565b5b5092915050565b7f4e487b71000000000000000000000000000000000000000000000000000000005f52601260045260245ffd5b5f610a4f8261069f565b9150610a5a8361069f565b925082610a6a57610a69610a18565b5b828204905092915050565b5f69ffffffffffffffffffff82169050919050565b610a9381610a75565b8114610a9d575f80fd5b50565b5f81519050610aae81610a8a565b92915050565b5f819050919050565b610ac681610ab4565b8114610ad0575f80fd5b50565b5f81519050610ae181610abd565b92915050565b5f81519050610af5816106d0565b92915050565b5f805f805f60a08688031215610b1457610b13610616565b5b5f610b2188828901610aa0565b9550506020610b3288828901610ad3565b9450506040610b4388828901610ae7565b9350506060610b5488828901610ae7565b9250506080610b6588828901610aa0565b9150509295509295909350565b5f610b7c82610ab4565b9150610b8783610ab4565b9250828202610b9581610ab4565b91507f800000000000000000000000000000000000000000000000000000000000000084145f84121615610bcc57610bcb61077a565b5b8282058414831517610be157610be061077a565b5b509291505056fea2646970667358221220c06ada6e2c954d16f851312ebba3dd724771b8828c259c986c2241961574621664736f6c634300081a0033",
					"opcodes": "PUSH1 0x80 PUSH1 0x40 MSTORE PUSH8 0x4563918244F40000 PUSH0 SSTORE CALLVALUE DUP1 ISZERO PUSH1 0x19 JUMPI PUSH0 DUP1 REVERT JUMPDEST POP PUSH2 0xC1E DUP1 PUSH2 0x27 PUSH0 CODECOPY PUSH0 RETURN INVALID PUSH1 0x80 PUSH1 0x40 MSTORE PUSH1 0x4 CALLDATASIZE LT PUSH2 0x3E JUMPI PUSH0 CALLDATALOAD PUSH1 0xE0 SHR DUP1 PUSH4 0xFDB1C10 EQ PUSH2 0x42 JUMPI DUP1 PUSH4 0x3E47D6F3 EQ PUSH2 0x58 JUMPI DUP1 PUSH4 0xB60D4288 EQ PUSH2 0x94 JUMPI DUP1 PUSH4 0xDC0D3DFF EQ PUSH2 0x9E JUMPI JUMPDEST PUSH0 DUP1 REVERT JUMPDEST CALLVALUE DUP1 ISZERO PUSH2 0x4D JUMPI PUSH0 DUP1 REVERT JUMPDEST POP PUSH2 0x56 PUSH2 0xDA JUMP JUMPDEST STOP JUMPDEST CALLVALUE DUP1 ISZERO PUSH2 0x63 JUMPI PUSH0 DUP1 REVERT JUMPDEST POP PUSH2 0x7E PUSH1 0x4 DUP1 CALLDATASIZE SUB DUP2 ADD SWAP1 PUSH2 0x79 SWAP2 SWAP1 PUSH2 0x674 JUMP JUMPDEST PUSH2 0x344 JUMP JUMPDEST PUSH1 0x40 MLOAD PUSH2 0x8B SWAP2 SWAP1 PUSH2 0x6B7 JUMP JUMPDEST PUSH1 0x40 MLOAD DUP1 SWAP2 SUB SWAP1 RETURN JUMPDEST PUSH2 0x9C PUSH2 0x359 JUMP JUMPDEST STOP JUMPDEST CALLVALUE DUP1 ISZERO PUSH2 0xA9 JUMPI PUSH0 DUP1 REVERT JUMPDEST POP PUSH2 0xC4 PUSH1 0x4 DUP1 CALLDATASIZE SUB DUP2 ADD SWAP1 PUSH2 0xBF SWAP2 SWAP1 PUSH2 0x6FA JUMP JUMPDEST PUSH2 0x459 JUMP JUMPDEST PUSH1 0x40 MLOAD PUSH2 0xD1 SWAP2 SWAP1 PUSH2 0x734 JUMP JUMPDEST PUSH1 0x40 MLOAD DUP1 SWAP2 SUB SWAP1 RETURN JUMPDEST PUSH0 JUMPDEST PUSH1 0x1 DUP1 SLOAD SWAP1 POP DUP2 GT PUSH2 0x17D JUMPI PUSH0 PUSH1 0x1 DUP3 DUP2 SLOAD DUP2 LT PUSH2 0xFD JUMPI PUSH2 0xFC PUSH2 0x74D JUMP JUMPDEST JUMPDEST SWAP1 PUSH0 MSTORE PUSH1 0x20 PUSH0 KECCAK256 ADD PUSH0 SWAP1 SLOAD SWAP1 PUSH2 0x100 EXP SWAP1 DIV PUSH20 0xFFFFFFFFFFFFFFFFFFFFFFFFFFFFFFFFFFFFFFFF AND SWAP1 POP PUSH0 PUSH1 0x2 PUSH0 DUP4 PUSH20 0xFFFFFFFFFFFFFFFFFFFFFFFFFFFFFFFFFFFFFFFF AND PUSH20 0xFFFFFFFFFFFFFFFFFFFFFFFFFFFFFFFFFFFFFFFF AND DUP2 MSTORE PUSH1 0x20 ADD SWAP1 DUP2 MSTORE PUSH1 0x20 ADD PUSH0 KECCAK256 DUP2 SWAP1 SSTORE POP POP DUP1 DUP1 PUSH2 0x175 SWAP1 PUSH2 0x7A7 JUMP JUMPDEST SWAP2 POP POP PUSH2 0xDC JUMP JUMPDEST POP PUSH0 PUSH8 0xFFFFFFFFFFFFFFFF DUP2 GT ISZERO PUSH2 0x198 JUMPI PUSH2 0x197 PUSH2 0x7EE JUMP JUMPDEST JUMPDEST PUSH1 0x40 MLOAD SWAP1 DUP1 DUP3 MSTORE DUP1 PUSH1 0x20 MUL PUSH1 0x20 ADD DUP3 ADD PUSH1 0x40 MSTORE DUP1 ISZERO PUSH2 0x1C6 JUMPI DUP2 PUSH1 0x20 ADD PUSH1 0x20 DUP3 MUL DUP1 CALLDATASIZE DUP4 CALLDATACOPY DUP1 DUP3 ADD SWAP2 POP POP SWAP1 POP JUMPDEST POP PUSH1 0x1 SWAP1 DUP1 MLOAD SWAP1 PUSH1 0x20 ADD SWAP1 PUSH2 0x1DC SWAP3 SWAP2 SWAP1 PUSH2 0x574 JUMP JUMPDEST POP CALLER PUSH20 0xFFFFFFFFFFFFFFFFFFFFFFFFFFFFFFFFFFFFFFFF AND PUSH2 0x8FC SELFBALANCE SWAP1 DUP2 ISZERO MUL SWAP1 PUSH1 0x40 MLOAD PUSH0 PUSH1 0x40 MLOAD DUP1 DUP4 SUB DUP2 DUP6 DUP9 DUP9 CALL SWAP4 POP POP POP POP ISZERO DUP1 ISZERO PUSH2 0x220 JUMPI RETURNDATASIZE PUSH0 DUP1 RETURNDATACOPY RETURNDATASIZE PUSH0 REVERT JUMPDEST POP PUSH0 CALLER PUSH20 0xFFFFFFFFFFFFFFFFFFFFFFFFFFFFFFFFFFFFFFFF AND PUSH2 0x8FC SELFBALANCE SWAP1 DUP2 ISZERO MUL SWAP1 PUSH1 0x40 MLOAD PUSH0 PUSH1 0x40 MLOAD DUP1 DUP4 SUB DUP2 DUP6 DUP9 DUP9 CALL SWAP4 POP POP POP POP SWAP1 POP DUP1 PUSH2 0x298 JUMPI PUSH1 0x40 MLOAD PUSH32 0x8C379A000000000000000000000000000000000000000000000000000000000 DUP2 MSTORE PUSH1 0x4 ADD PUSH2 0x28F SWAP1 PUSH2 0x875 JUMP JUMPDEST PUSH1 0x40 MLOAD DUP1 SWAP2 SUB SWAP1 REVERT JUMPDEST PUSH0 CALLER PUSH20 0xFFFFFFFFFFFFFFFFFFFFFFFFFFFFFFFFFFFFFFFF AND SELFBALANCE PUSH1 0x40 MLOAD PUSH2 0x2BD SWAP1 PUSH2 0x8C0 JUMP JUMPDEST PUSH0 PUSH1 0x40 MLOAD DUP1 DUP4 SUB DUP2 DUP6 DUP8 GAS CALL SWAP3 POP POP POP RETURNDATASIZE DUP1 PUSH0 DUP2 EQ PUSH2 0x2F7 JUMPI PUSH1 0x40 MLOAD SWAP2 POP PUSH1 0x1F NOT PUSH1 0x3F RETURNDATASIZE ADD AND DUP3 ADD PUSH1 0x40 MSTORE RETURNDATASIZE DUP3 MSTORE RETURNDATASIZE PUSH0 PUSH1 0x20 DUP5 ADD RETURNDATACOPY PUSH2 0x2FC JUMP JUMPDEST PUSH1 0x60 SWAP2 POP JUMPDEST POP POP SWAP1 POP DUP1 PUSH2 0x340 JUMPI PUSH1 0x40 MLOAD PUSH32 0x8C379A000000000000000000000000000000000000000000000000000000000 DUP2 MSTORE PUSH1 0x4 ADD PUSH2 0x337 SWAP1 PUSH2 0x91E JUMP JUMPDEST PUSH1 0x40 MLOAD DUP1 SWAP2 SUB SWAP1 REVERT JUMPDEST POP POP JUMP JUMPDEST PUSH1 0x2 PUSH1 0x20 MSTORE DUP1 PUSH0 MSTORE PUSH1 0x40 PUSH0 KECCAK256 PUSH0 SWAP2 POP SWAP1 POP SLOAD DUP2 JUMP JUMPDEST PUSH0 SLOAD PUSH2 0x364 CALLVALUE PUSH2 0x494 JUMP JUMPDEST GT PUSH2 0x3A4 JUMPI PUSH1 0x40 MLOAD PUSH32 0x8C379A000000000000000000000000000000000000000000000000000000000 DUP2 MSTORE PUSH1 0x4 ADD PUSH2 0x39B SWAP1 PUSH2 0x986 JUMP JUMPDEST PUSH1 0x40 MLOAD DUP1 SWAP2 SUB SWAP1 REVERT JUMPDEST PUSH1 0x1 CALLER SWAP1 DUP1 PUSH1 0x1 DUP2 SLOAD ADD DUP1 DUP3 SSTORE DUP1 SWAP2 POP POP PUSH1 0x1 SWAP1 SUB SWAP1 PUSH0 MSTORE PUSH1 0x20 PUSH0 KECCAK256 ADD PUSH0 SWAP1 SWAP2 SWAP1 SWAP2 SWAP1 SWAP2 PUSH2 0x100 EXP DUP2 SLOAD DUP2 PUSH20 0xFFFFFFFFFFFFFFFFFFFFFFFFFFFFFFFFFFFFFFFF MUL NOT AND SWAP1 DUP4 PUSH20 0xFFFFFFFFFFFFFFFFFFFFFFFFFFFFFFFFFFFFFFFF AND MUL OR SWAP1 SSTORE POP CALLVALUE PUSH1 0x2 PUSH0 CALLER PUSH20 0xFFFFFFFFFFFFFFFFFFFFFFFFFFFFFFFFFFFFFFFF AND PUSH20 0xFFFFFFFFFFFFFFFFFFFFFFFFFFFFFFFFFFFFFFFF AND DUP2 MSTORE PUSH1 0x20 ADD SWAP1 DUP2 MSTORE PUSH1 0x20 ADD PUSH0 KECCAK256 PUSH0 DUP3 DUP3 SLOAD PUSH2 0x450 SWAP2 SWAP1 PUSH2 0x9A4 JUMP JUMPDEST SWAP3 POP POP DUP2 SWAP1 SSTORE POP JUMP JUMPDEST PUSH1 0x1 DUP2 DUP2 SLOAD DUP2 LT PUSH2 0x468 JUMPI PUSH0 DUP1 REVERT JUMPDEST SWAP1 PUSH0 MSTORE PUSH1 0x20 PUSH0 KECCAK256 ADD PUSH0 SWAP2 POP SLOAD SWAP1 PUSH2 0x100 EXP SWAP1 DIV PUSH20 0xFFFFFFFFFFFFFFFFFFFFFFFFFFFFFFFFFFFFFFFF AND DUP2 JUMP JUMPDEST PUSH0 DUP1 PUSH2 0x49E PUSH2 0x4CC JUMP JUMPDEST SWAP1 POP PUSH0 PUSH8 0xDE0B6B3A7640000 DUP5 DUP4 PUSH2 0x4B6 SWAP2 SWAP1 PUSH2 0x9D7 JUMP JUMPDEST PUSH2 0x4C0 SWAP2 SWAP1 PUSH2 0xA45 JUMP JUMPDEST SWAP1 POP DUP1 SWAP3 POP POP POP SWAP2 SWAP1 POP JUMP JUMPDEST PUSH0 DUP1 PUSH20 0x694AA1769357215DE4FAC081BF1F309ADC325306 SWAP1 POP PUSH0 DUP2 PUSH20 0xFFFFFFFFFFFFFFFFFFFFFFFFFFFFFFFFFFFFFFFF AND PUSH4 0xFEAF968C PUSH1 0x40 MLOAD DUP2 PUSH4 0xFFFFFFFF AND PUSH1 0xE0 SHL DUP2 MSTORE PUSH1 0x4 ADD PUSH1 0xA0 PUSH1 0x40 MLOAD DUP1 DUP4 SUB DUP2 DUP7 GAS STATICCALL ISZERO DUP1 ISZERO PUSH2 0x52F JUMPI RETURNDATASIZE PUSH0 DUP1 RETURNDATACOPY RETURNDATASIZE PUSH0 REVERT JUMPDEST POP POP POP POP PUSH1 0x40 MLOAD RETURNDATASIZE PUSH1 0x1F NOT PUSH1 0x1F DUP3 ADD AND DUP3 ADD DUP1 PUSH1 0x40 MSTORE POP DUP2 ADD SWAP1 PUSH2 0x553 SWAP2 SWAP1 PUSH2 0xAFB JUMP JUMPDEST POP POP POP SWAP2 POP POP PUSH8 0xDE0B6B3A7640000 DUP2 PUSH2 0x56D SWAP2 SWAP1 PUSH2 0xB72 JUMP JUMPDEST SWAP3 POP POP POP SWAP1 JUMP JUMPDEST DUP3 DUP1 SLOAD DUP3 DUP3 SSTORE SWAP1 PUSH0 MSTORE PUSH1 0x20 PUSH0 KECCAK256 SWAP1 DUP2 ADD SWAP3 DUP3 ISZERO PUSH2 0x5EA JUMPI SWAP2 PUSH1 0x20 MUL DUP3 ADD JUMPDEST DUP3 DUP2 GT ISZERO PUSH2 0x5E9 JUMPI DUP3 MLOAD DUP3 PUSH0 PUSH2 0x100 EXP DUP2 SLOAD DUP2 PUSH20 0xFFFFFFFFFFFFFFFFFFFFFFFFFFFFFFFFFFFFFFFF MUL NOT AND SWAP1 DUP4 PUSH20 0xFFFFFFFFFFFFFFFFFFFFFFFFFFFFFFFFFFFFFFFF AND MUL OR SWAP1 SSTORE POP SWAP2 PUSH1 0x20 ADD SWAP2 SWAP1 PUSH1 0x1 ADD SWAP1 PUSH2 0x592 JUMP JUMPDEST JUMPDEST POP SWAP1 POP PUSH2 0x5F7 SWAP2 SWAP1 PUSH2 0x5FB JUMP JUMPDEST POP SWAP1 JUMP JUMPDEST JUMPDEST DUP1 DUP3 GT ISZERO PUSH2 0x612 JUMPI PUSH0 DUP2 PUSH0 SWAP1 SSTORE POP PUSH1 0x1 ADD PUSH2 0x5FC JUMP JUMPDEST POP SWAP1 JUMP JUMPDEST PUSH0 DUP1 REVERT JUMPDEST PUSH0 PUSH20 0xFFFFFFFFFFFFFFFFFFFFFFFFFFFFFFFFFFFFFFFF DUP3 AND SWAP1 POP SWAP2 SWAP1 POP JUMP JUMPDEST PUSH0 PUSH2 0x643 DUP3 PUSH2 0x61A JUMP JUMPDEST SWAP1 POP SWAP2 SWAP1 POP JUMP JUMPDEST PUSH2 0x653 DUP2 PUSH2 0x639 JUMP JUMPDEST DUP2 EQ PUSH2 0x65D JUMPI PUSH0 DUP1 REVERT JUMPDEST POP JUMP JUMPDEST PUSH0 DUP2 CALLDATALOAD SWAP1 POP PUSH2 0x66E DUP2 PUSH2 0x64A JUMP JUMPDEST SWAP3 SWAP2 POP POP JUMP JUMPDEST PUSH0 PUSH1 0x20 DUP3 DUP5 SUB SLT ISZERO PUSH2 0x689 JUMPI PUSH2 0x688 PUSH2 0x616 JUMP JUMPDEST JUMPDEST PUSH0 PUSH2 0x696 DUP5 DUP3 DUP6 ADD PUSH2 0x660 JUMP JUMPDEST SWAP2 POP POP SWAP3 SWAP2 POP POP JUMP JUMPDEST PUSH0 DUP2 SWAP1 POP SWAP2 SWAP1 POP JUMP JUMPDEST PUSH2 0x6B1 DUP2 PUSH2 0x69F JUMP JUMPDEST DUP3 MSTORE POP POP JUMP JUMPDEST PUSH0 PUSH1 0x20 DUP3 ADD SWAP1 POP PUSH2 0x6CA PUSH0 DUP4 ADD DUP5 PUSH2 0x6A8 JUMP JUMPDEST SWAP3 SWAP2 POP POP JUMP JUMPDEST PUSH2 0x6D9 DUP2 PUSH2 0x69F JUMP JUMPDEST DUP2 EQ PUSH2 0x6E3 JUMPI PUSH0 DUP1 REVERT JUMPDEST POP JUMP JUMPDEST PUSH0 DUP2 CALLDATALOAD SWAP1 POP PUSH2 0x6F4 DUP2 PUSH2 0x6D0 JUMP JUMPDEST SWAP3 SWAP2 POP POP JUMP JUMPDEST PUSH0 PUSH1 0x20 DUP3 DUP5 SUB SLT ISZERO PUSH2 0x70F JUMPI PUSH2 0x70E PUSH2 0x616 JUMP JUMPDEST JUMPDEST PUSH0 PUSH2 0x71C DUP5 DUP3 DUP6 ADD PUSH2 0x6E6 JUMP JUMPDEST SWAP2 POP POP SWAP3 SWAP2 POP POP JUMP JUMPDEST PUSH2 0x72E DUP2 PUSH2 0x639 JUMP JUMPDEST DUP3 MSTORE POP POP JUMP JUMPDEST PUSH0 PUSH1 0x20 DUP3 ADD SWAP1 POP PUSH2 0x747 PUSH0 DUP4 ADD DUP5 PUSH2 0x725 JUMP JUMPDEST SWAP3 SWAP2 POP POP JUMP JUMPDEST PUSH32 0x4E487B7100000000000000000000000000000000000000000000000000000000 PUSH0 MSTORE PUSH1 0x32 PUSH1 0x4 MSTORE PUSH1 0x24 PUSH0 REVERT JUMPDEST PUSH32 0x4E487B7100000000000000000000000000000000000000000000000000000000 PUSH0 MSTORE PUSH1 0x11 PUSH1 0x4 MSTORE PUSH1 0x24 PUSH0 REVERT JUMPDEST PUSH0 PUSH2 0x7B1 DUP3 PUSH2 0x69F JUMP JUMPDEST SWAP2 POP PUSH32 0xFFFFFFFFFFFFFFFFFFFFFFFFFFFFFFFFFFFFFFFFFFFFFFFFFFFFFFFFFFFFFFFF DUP3 SUB PUSH2 0x7E3 JUMPI PUSH2 0x7E2 PUSH2 0x77A JUMP JUMPDEST JUMPDEST PUSH1 0x1 DUP3 ADD SWAP1 POP SWAP2 SWAP1 POP JUMP JUMPDEST PUSH32 0x4E487B7100000000000000000000000000000000000000000000000000000000 PUSH0 MSTORE PUSH1 0x41 PUSH1 0x4 MSTORE PUSH1 0x24 PUSH0 REVERT JUMPDEST PUSH0 DUP3 DUP3 MSTORE PUSH1 0x20 DUP3 ADD SWAP1 POP SWAP3 SWAP2 POP POP JUMP JUMPDEST PUSH32 0x74686572652077617320616E206572726F723A2073656E64206661696C656400 PUSH0 DUP3 ADD MSTORE POP JUMP JUMPDEST PUSH0 PUSH2 0x85F PUSH1 0x1F DUP4 PUSH2 0x81B JUMP JUMPDEST SWAP2 POP PUSH2 0x86A DUP3 PUSH2 0x82B JUMP JUMPDEST PUSH1 0x20 DUP3 ADD SWAP1 POP SWAP2 SWAP1 POP JUMP JUMPDEST PUSH0 PUSH1 0x20 DUP3 ADD SWAP1 POP DUP2 DUP2 SUB PUSH0 DUP4 ADD MSTORE PUSH2 0x88C DUP2 PUSH2 0x853 JUMP JUMPDEST SWAP1 POP SWAP2 SWAP1 POP JUMP JUMPDEST PUSH0 DUP2 SWAP1 POP SWAP3 SWAP2 POP POP JUMP JUMPDEST POP JUMP JUMPDEST PUSH0 PUSH2 0x8AB PUSH0 DUP4 PUSH2 0x893 JUMP JUMPDEST SWAP2 POP PUSH2 0x8B6 DUP3 PUSH2 0x89D JUMP JUMPDEST PUSH0 DUP3 ADD SWAP1 POP SWAP2 SWAP1 POP JUMP JUMPDEST PUSH0 PUSH2 0x8CA DUP3 PUSH2 0x8A0 JUMP JUMPDEST SWAP2 POP DUP2 SWAP1 POP SWAP2 SWAP1 POP JUMP JUMPDEST PUSH32 0x63616C6C206661696C6564000000000000000000000000000000000000000000 PUSH0 DUP3 ADD MSTORE POP JUMP JUMPDEST PUSH0 PUSH2 0x908 PUSH1 0xB DUP4 PUSH2 0x81B JUMP JUMPDEST SWAP2 POP PUSH2 0x913 DUP3 PUSH2 0x8D4 JUMP JUMPDEST PUSH1 0x20 DUP3 ADD SWAP1 POP SWAP2 SWAP1 POP JUMP JUMPDEST PUSH0 PUSH1 0x20 DUP3 ADD SWAP1 POP DUP2 DUP2 SUB PUSH0 DUP4 ADD MSTORE PUSH2 0x935 DUP2 PUSH2 0x8FC JUMP JUMPDEST SWAP1 POP SWAP2 SWAP1 POP JUMP JUMPDEST PUSH32 0x6469646E742073656E6420656E6F756768204554480000000000000000000000 PUSH0 DUP3 ADD MSTORE POP JUMP JUMPDEST PUSH0 PUSH2 0x970 PUSH1 0x15 DUP4 PUSH2 0x81B JUMP JUMPDEST SWAP2 POP PUSH2 0x97B DUP3 PUSH2 0x93C JUMP JUMPDEST PUSH1 0x20 DUP3 ADD SWAP1 POP SWAP2 SWAP1 POP JUMP JUMPDEST PUSH0 PUSH1 0x20 DUP3 ADD SWAP1 POP DUP2 DUP2 SUB PUSH0 DUP4 ADD MSTORE PUSH2 0x99D DUP2 PUSH2 0x964 JUMP JUMPDEST SWAP1 POP SWAP2 SWAP1 POP JUMP JUMPDEST PUSH0 PUSH2 0x9AE DUP3 PUSH2 0x69F JUMP JUMPDEST SWAP2 POP PUSH2 0x9B9 DUP4 PUSH2 0x69F JUMP JUMPDEST SWAP3 POP DUP3 DUP3 ADD SWAP1 POP DUP1 DUP3 GT ISZERO PUSH2 0x9D1 JUMPI PUSH2 0x9D0 PUSH2 0x77A JUMP JUMPDEST JUMPDEST SWAP3 SWAP2 POP POP JUMP JUMPDEST PUSH0 PUSH2 0x9E1 DUP3 PUSH2 0x69F JUMP JUMPDEST SWAP2 POP PUSH2 0x9EC DUP4 PUSH2 0x69F JUMP JUMPDEST SWAP3 POP DUP3 DUP3 MUL PUSH2 0x9FA DUP2 PUSH2 0x69F JUMP JUMPDEST SWAP2 POP DUP3 DUP3 DIV DUP5 EQ DUP4 ISZERO OR PUSH2 0xA11 JUMPI PUSH2 0xA10 PUSH2 0x77A JUMP JUMPDEST JUMPDEST POP SWAP3 SWAP2 POP POP JUMP JUMPDEST PUSH32 0x4E487B7100000000000000000000000000000000000000000000000000000000 PUSH0 MSTORE PUSH1 0x12 PUSH1 0x4 MSTORE PUSH1 0x24 PUSH0 REVERT JUMPDEST PUSH0 PUSH2 0xA4F DUP3 PUSH2 0x69F JUMP JUMPDEST SWAP2 POP PUSH2 0xA5A DUP4 PUSH2 0x69F JUMP JUMPDEST SWAP3 POP DUP3 PUSH2 0xA6A JUMPI PUSH2 0xA69 PUSH2 0xA18 JUMP JUMPDEST JUMPDEST DUP3 DUP3 DIV SWAP1 POP SWAP3 SWAP2 POP POP JUMP JUMPDEST PUSH0 PUSH10 0xFFFFFFFFFFFFFFFFFFFF DUP3 AND SWAP1 POP SWAP2 SWAP1 POP JUMP JUMPDEST PUSH2 0xA93 DUP2 PUSH2 0xA75 JUMP JUMPDEST DUP2 EQ PUSH2 0xA9D JUMPI PUSH0 DUP1 REVERT JUMPDEST POP JUMP JUMPDEST PUSH0 DUP2 MLOAD SWAP1 POP PUSH2 0xAAE DUP2 PUSH2 0xA8A JUMP JUMPDEST SWAP3 SWAP2 POP POP JUMP JUMPDEST PUSH0 DUP2 SWAP1 POP SWAP2 SWAP1 POP JUMP JUMPDEST PUSH2 0xAC6 DUP2 PUSH2 0xAB4 JUMP JUMPDEST DUP2 EQ PUSH2 0xAD0 JUMPI PUSH0 DUP1 REVERT JUMPDEST POP JUMP JUMPDEST PUSH0 DUP2 MLOAD SWAP1 POP PUSH2 0xAE1 DUP2 PUSH2 0xABD JUMP JUMPDEST SWAP3 SWAP2 POP POP JUMP JUMPDEST PUSH0 DUP2 MLOAD SWAP1 POP PUSH2 0xAF5 DUP2 PUSH2 0x6D0 JUMP JUMPDEST SWAP3 SWAP2 POP POP JUMP JUMPDEST PUSH0 DUP1 PUSH0 DUP1 PUSH0 PUSH1 0xA0 DUP7 DUP9 SUB SLT ISZERO PUSH2 0xB14 JUMPI PUSH2 0xB13 PUSH2 0x616 JUMP JUMPDEST JUMPDEST PUSH0 PUSH2 0xB21 DUP9 DUP3 DUP10 ADD PUSH2 0xAA0 JUMP JUMPDEST SWAP6 POP POP PUSH1 0x20 PUSH2 0xB32 DUP9 DUP3 DUP10 ADD PUSH2 0xAD3 JUMP JUMPDEST SWAP5 POP POP PUSH1 0x40 PUSH2 0xB43 DUP9 DUP3 DUP10 ADD PUSH2 0xAE7 JUMP JUMPDEST SWAP4 POP POP PUSH1 0x60 PUSH2 0xB54 DUP9 DUP3 DUP10 ADD PUSH2 0xAE7 JUMP JUMPDEST SWAP3 POP POP PUSH1 0x80 PUSH2 0xB65 DUP9 DUP3 DUP10 ADD PUSH2 0xAA0 JUMP JUMPDEST SWAP2 POP POP SWAP3 SWAP6 POP SWAP3 SWAP6 SWAP1 SWAP4 POP JUMP JUMPDEST PUSH0 PUSH2 0xB7C DUP3 PUSH2 0xAB4 JUMP JUMPDEST SWAP2 POP PUSH2 0xB87 DUP4 PUSH2 0xAB4 JUMP JUMPDEST SWAP3 POP DUP3 DUP3 MUL PUSH2 0xB95 DUP2 PUSH2 0xAB4 JUMP JUMPDEST SWAP2 POP PUSH32 0x8000000000000000000000000000000000000000000000000000000000000000 DUP5 EQ PUSH0 DUP5 SLT AND ISZERO PUSH2 0xBCC JUMPI PUSH2 0xBCB PUSH2 0x77A JUMP JUMPDEST JUMPDEST DUP3 DUP3 SDIV DUP5 EQ DUP4 ISZERO OR PUSH2 0xBE1 JUMPI PUSH2 0xBE0 PUSH2 0x77A JUMP JUMPDEST JUMPDEST POP SWAP3 SWAP2 POP POP JUMP INVALID LOG2 PUSH5 0x6970667358 0x22 SLT KECCAK256 0xC0 PUSH11 0xDA6E2C954D16F851312EBB LOG3 0xDD PUSH19 0x4771B8828C259C986C2241961574621664736F PUSH13 0x634300081A0033000000000000 "
				},
				"gasEstimates": {
					"creation": {
						"codeDepositCost": "620400",
						"executionCost": "22754",
						"totalCost": "643154"
					},
					"external": {
						"addressToAmountFunded(address)": "2802",
						"fund()": "infinite",
						"funders(uint256)": "4988",
						"withDraw()": "infinite"
					}
				},
				"methodIdentifiers": {
					"addressToAmountFunded(address)": "3e47d6f3",
					"fund()": "b60d4288",
					"funders(uint256)": "dc0d3dff",
					"withDraw()": "0fdb1c10"
				}
			},
			"storageLayout": {
				"storage": [
					{
						"astId": 55,
						"contract": "fundMe.sol:FundMe",
						"label": "minimumUSD",
						"offset": 0,
						"slot": "0",
						"type": "t_uint256"
					},
					{
						"astId": 58,
						"contract": "fundMe.sol:FundMe",
						"label": "funders",
						"offset": 0,
						"slot": "1",
						"type": "t_array(t_address)dyn_storage"
					},
					{
						"astId": 62,
						"contract": "fundMe.sol:FundMe",
						"label": "addressToAmountFunded",
						"offset": 0,
						"slot": "2",
						"type": "t_mapping(t_address,t_uint256)"
					}
				],
				"types": {
					"t_address": {
						"encoding": "inplace",
						"label": "address",
						"numberOfBytes": "20"
					},
					"t_array(t_address)dyn_storage": {
						"base": "t_address",
						"encoding": "dynamic_array",
						"label": "address[]",
						"numberOfBytes": "32"
					},
					"t_mapping(t_address,t_uint256)": {
						"encoding": "mapping",
						"key": "t_address",
						"label": "mapping(address => uint256)",
						"numberOfBytes": "32",
						"value": "t_uint256"
					},
					"t_uint256": {
						"encoding": "inplace",
						"label": "uint256",
						"numberOfBytes": "32"
					}
				}
			},
			"userdoc": {
				"kind": "user",
				"methods": {},
				"version": 1
			}
		}
	}
}