{
	"fundMe.sol": {
		"FundMe": {
			"abi": [
				{
					"inputs": [],
					"stateMutability": "nonpayable",
					"type": "constructor"
				},
				{
					"inputs": [],
					"name": "notOwner",
					"type": "error"
				},
				{
					"stateMutability": "payable",
					"type": "fallback"
				},
				{
					"inputs": [
						{
							"internalType": "address",
							"name": "",
							"type": "address"
						}
					],
					"name": "addressToAmountFunded",
					"outputs": [
						{
							"internalType": "uint256",
							"name": "",
							"type": "uint256"
						}
					],
					"stateMutability": "view",
					"type": "function"
				},
				{
					"inputs": [],
					"name": "fund",
					"outputs": [],
					"stateMutability": "payable",
					"type": "function"
				},
				{
					"inputs": [
						{
							"internalType": "uint256",
							"name": "",
							"type": "uint256"
						}
					],
					"name": "funders",
					"outputs": [
						{
							"internalType": "address",
							"name": "",
							"type": "address"
						}
					],
					"stateMutability": "view",
					"type": "function"
				},
				{
					"inputs": [],
					"name": "i_owner",
					"outputs": [
						{
							"internalType": "address",
							"name": "",
							"type": "address"
						}
					],
					"stateMutability": "view",
					"type": "function"
				},
				{
					"inputs": [],
					"name": "minimumUSD",
					"outputs": [
						{
							"internalType": "uint256",
							"name": "",
							"type": "uint256"
						}
					],
					"stateMutability": "view",
					"type": "function"
				},
				{
					"inputs": [],
					"name": "withDraw",
					"outputs": [],
					"stateMutability": "nonpayable",
					"type": "function"
				},
				{
					"stateMutability": "payable",
					"type": "receive"
				}
			],
			"devdoc": {
				"kind": "dev",
				"methods": {},
				"version": 1
			},
			"evm": {
				"assembly": "    /* \"fundMe.sol\":131:3403  contract FundMe {... */\n  mstore(0x40, 0xa0)\n    /* \"fundMe.sol\":633:684  constructor() {... */\n  callvalue\n  dup1\n  iszero\n  tag_1\n  jumpi\n  0x00\n  dup1\n  revert\ntag_1:\n  pop\n    /* \"fundMe.sol\":667:677  msg.sender */\n  caller\n    /* \"fundMe.sol\":657:677  i_owner = msg.sender */\n  0xffffffffffffffffffffffffffffffffffffffff\n  and\n  0x80\n  dup2\n  0xffffffffffffffffffffffffffffffffffffffff\n  and\n  dup2\n  mstore\n  pop\n  pop\n    /* \"fundMe.sol\":131:3403  contract FundMe {... */\n  mload(0x80)\n  codecopy(0x00, dataOffset(sub_0), dataSize(sub_0))\n  0x00\n  assignImmutable(\"0x5ae62207e7adee0b793bf869601474e77943fa4d9e3e0420f34d788e59bc19bd\")\n  return(0x00, dataSize(sub_0))\nstop\n\nsub_0: assembly {\n        /* \"fundMe.sol\":131:3403  contract FundMe {... */\n      mstore(0x40, 0x80)\n      jumpi(tag_1, lt(calldatasize, 0x04))\n      shr(0xe0, calldataload(0x00))\n      dup1\n      0x0fdb1c10\n      eq\n      tag_3\n      jumpi\n      dup1\n      0x3430a88c\n      eq\n      tag_4\n      jumpi\n      dup1\n      0x3e47d6f3\n      eq\n      tag_5\n      jumpi\n      dup1\n      0xb60d4288\n      eq\n      tag_6\n      jumpi\n      dup1\n      0xdba6335f\n      eq\n      tag_7\n      jumpi\n      dup1\n      0xdc0d3dff\n      eq\n      tag_8\n      jumpi\n      jump(tag_2)\n    tag_1:\n      jumpi(tag_2, calldatasize)\n        /* \"fundMe.sol\":3327:3333  fund() */\n      tag_11\n        /* \"fundMe.sol\":3327:3331  fund */\n      tag_12\n        /* \"fundMe.sol\":3327:3333  fund() */\n      jump\t// in\n    tag_11:\n        /* \"fundMe.sol\":131:3403  contract FundMe {... */\n      stop\n    tag_2:\n        /* \"fundMe.sol\":3386:3392  fund() */\n      tag_15\n        /* \"fundMe.sol\":3386:3390  fund */\n      tag_12\n        /* \"fundMe.sol\":3386:3392  fund() */\n      jump\t// in\n    tag_15:\n        /* \"fundMe.sol\":131:3403  contract FundMe {... */\n      stop\n        /* \"fundMe.sol\":1276:2672  function withDraw()... */\n    tag_3:\n      callvalue\n      dup1\n      iszero\n      tag_16\n      jumpi\n      0x00\n      dup1\n      revert\n    tag_16:\n      pop\n      tag_17\n      tag_18\n      jump\t// in\n    tag_17:\n      stop\n        /* \"fundMe.sol\":295:341  uint256 public constant minimumUSD = 50 * 1e18 */\n    tag_4:\n      callvalue\n      dup1\n      iszero\n      tag_19\n      jumpi\n      0x00\n      dup1\n      revert\n    tag_19:\n      pop\n      tag_20\n      tag_21\n      jump\t// in\n    tag_20:\n      mload(0x40)\n      tag_22\n      swap2\n      swap1\n      tag_23\n      jump\t// in\n    tag_22:\n      mload(0x40)\n      dup1\n      swap2\n      sub\n      swap1\n      return\n        /* \"fundMe.sol\":570:626  mapping(address => uint256) public addressToAmountFunded */\n    tag_5:\n      callvalue\n      dup1\n      iszero\n      tag_24\n      jumpi\n      0x00\n      dup1\n      revert\n    tag_24:\n      pop\n      tag_25\n      0x04\n      dup1\n      calldatasize\n      sub\n      dup2\n      add\n      swap1\n      tag_26\n      swap2\n      swap1\n      tag_27\n      jump\t// in\n    tag_26:\n      tag_28\n      jump\t// in\n    tag_25:\n      mload(0x40)\n      tag_29\n      swap2\n      swap1\n      tag_23\n      jump\t// in\n    tag_29:\n      mload(0x40)\n      dup1\n      swap2\n      sub\n      swap1\n      return\n        /* \"fundMe.sol\":690:1270  function fund() public payable {... */\n    tag_6:\n      tag_30\n      tag_12\n      jump\t// in\n    tag_30:\n      stop\n        /* \"fundMe.sol\":501:533  address public immutable i_owner */\n    tag_7:\n      callvalue\n      dup1\n      iszero\n      tag_31\n      jumpi\n      0x00\n      dup1\n      revert\n    tag_31:\n      pop\n      tag_32\n      tag_33\n      jump\t// in\n    tag_32:\n      mload(0x40)\n      tag_34\n      swap2\n      swap1\n      tag_35\n      jump\t// in\n    tag_34:\n      mload(0x40)\n      dup1\n      swap2\n      sub\n      swap1\n      return\n        /* \"fundMe.sol\":540:564  address[] public funders */\n    tag_8:\n      callvalue\n      dup1\n      iszero\n      tag_36\n      jumpi\n      0x00\n      dup1\n      revert\n    tag_36:\n      pop\n      tag_37\n      0x04\n      dup1\n      calldatasize\n      sub\n      dup2\n      add\n      swap1\n      tag_38\n      swap2\n      swap1\n      tag_39\n      jump\t// in\n    tag_38:\n      tag_40\n      jump\t// in\n    tag_37:\n      mload(0x40)\n      tag_41\n      swap2\n      swap1\n      tag_35\n      jump\t// in\n    tag_41:\n      mload(0x40)\n      dup1\n      swap2\n      sub\n      swap1\n      return\n        /* \"fundMe.sol\":690:1270  function fund() public payable {... */\n    tag_12:\n        /* \"fundMe.sol\":332:341  50 * 1e18 */\n      0x02b5e3af16b1880000\n        /* \"fundMe.sol\":793:819  msg.value.conversionRate() */\n      tag_43\n        /* \"fundMe.sol\":793:802  msg.value */\n      callvalue\n        /* \"fundMe.sol\":793:817  msg.value.conversionRate */\n      tag_44\n        /* \"fundMe.sol\":793:819  msg.value.conversionRate() */\n      jump\t// in\n    tag_43:\n        /* \"fundMe.sol\":793:832  msg.value.conversionRate() > minimumUSD */\n      gt\n        /* \"fundMe.sol\":772:1173  require(... */\n      tag_45\n      jumpi\n      mload(0x40)\n      0x08c379a000000000000000000000000000000000000000000000000000000000\n      dup2\n      mstore\n      0x04\n      add\n      tag_46\n      swap1\n      tag_47\n      jump\t// in\n    tag_46:\n      mload(0x40)\n      dup1\n      swap2\n      sub\n      swap1\n      revert\n    tag_45:\n        /* \"fundMe.sol\":1183:1190  funders */\n      0x00\n        /* \"fundMe.sol\":1196:1206  msg.sender */\n      caller\n        /* \"fundMe.sol\":1183:1207  funders.push(msg.sender) */\n      swap1\n      dup1\n      0x01\n      dup2\n      sload\n      add\n      dup1\n      dup3\n      sstore\n      dup1\n      swap2\n      pop\n      pop\n      0x01\n      swap1\n      sub\n      swap1\n      0x00\n      mstore\n      keccak256(0x00, 0x20)\n      add\n      0x00\n      swap1\n      swap2\n      swap1\n      swap2\n      swap1\n      swap2\n      0x0100\n      exp\n      dup2\n      sload\n      dup2\n      0xffffffffffffffffffffffffffffffffffffffff\n      mul\n      not\n      and\n      swap1\n      dup4\n      0xffffffffffffffffffffffffffffffffffffffff\n      and\n      mul\n      or\n      swap1\n      sstore\n      pop\n        /* \"fundMe.sol\":1254:1263  msg.value */\n      callvalue\n        /* \"fundMe.sol\":1217:1238  addressToAmountFunded */\n      0x01\n        /* \"fundMe.sol\":1217:1250  addressToAmountFunded[msg.sender] */\n      0x00\n        /* \"fundMe.sol\":1239:1249  msg.sender */\n      caller\n        /* \"fundMe.sol\":1217:1250  addressToAmountFunded[msg.sender] */\n      0xffffffffffffffffffffffffffffffffffffffff\n      and\n      0xffffffffffffffffffffffffffffffffffffffff\n      and\n      dup2\n      mstore\n      0x20\n      add\n      swap1\n      dup2\n      mstore\n      0x20\n      add\n      0x00\n      keccak256\n      0x00\n        /* \"fundMe.sol\":1217:1263  addressToAmountFunded[msg.sender] += msg.value */\n      dup3\n      dup3\n      sload\n      tag_49\n      swap2\n      swap1\n      tag_50\n      jump\t// in\n    tag_49:\n      swap3\n      pop\n      pop\n      dup2\n      swap1\n      sstore\n      pop\n        /* \"fundMe.sol\":690:1270  function fund() public payable {... */\n      jump\t// out\n        /* \"fundMe.sol\":1276:2672  function withDraw()... */\n    tag_18:\n        /* \"fundMe.sol\":2983:2990  i_owner */\n      immutable(\"0x5ae62207e7adee0b793bf869601474e77943fa4d9e3e0420f34d788e59bc19bd\")\n        /* \"fundMe.sol\":2969:2990  msg.sender != i_owner */\n      0xffffffffffffffffffffffffffffffffffffffff\n      and\n        /* \"fundMe.sol\":2969:2979  msg.sender */\n      caller\n        /* \"fundMe.sol\":2969:2990  msg.sender != i_owner */\n      0xffffffffffffffffffffffffffffffffffffffff\n      and\n      eq\n        /* \"fundMe.sol\":2965:3077  if (msg.sender != i_owner) {... */\n      tag_52\n      jumpi\n        /* \"fundMe.sol\":3013:3023  notOwner() */\n      mload(0x40)\n      0x251c9d6300000000000000000000000000000000000000000000000000000000\n      dup2\n      mstore\n      0x04\n      add\n      mload(0x40)\n      dup1\n      swap2\n      sub\n      swap1\n      revert\n        /* \"fundMe.sol\":2965:3077  if (msg.sender != i_owner) {... */\n    tag_52:\n        /* \"fundMe.sol\":1518:1538  uint256 fundersIndex */\n      0x00\n        /* \"fundMe.sol\":1500:1735  for (... */\n    tag_54:\n        /* \"fundMe.sol\":1572:1579  funders */\n      0x00\n        /* \"fundMe.sol\":1572:1586  funders.length */\n      dup1\n      sload\n      swap1\n      pop\n        /* \"fundMe.sol\":1556:1568  fundersIndex */\n      dup2\n        /* \"fundMe.sol\":1556:1586  fundersIndex <= funders.length */\n      gt\n        /* \"fundMe.sol\":1500:1735  for (... */\n      tag_55\n      jumpi\n        /* \"fundMe.sol\":1639:1653  address funder */\n      0x00\n        /* \"fundMe.sol\":1656:1663  funders */\n      dup1\n        /* \"fundMe.sol\":1664:1676  fundersIndex */\n      dup3\n        /* \"fundMe.sol\":1656:1677  funders[fundersIndex] */\n      dup2\n      sload\n      dup2\n      lt\n      tag_57\n      jumpi\n      tag_58\n      tag_59\n      jump\t// in\n    tag_58:\n    tag_57:\n      swap1\n      0x00\n      mstore\n      keccak256(0x00, 0x20)\n      add\n      0x00\n      swap1\n      sload\n      swap1\n      0x0100\n      exp\n      swap1\n      div\n      0xffffffffffffffffffffffffffffffffffffffff\n      and\n        /* \"fundMe.sol\":1639:1677  address funder = funders[fundersIndex] */\n      swap1\n      pop\n        /* \"fundMe.sol\":1723:1724  0 */\n      0x00\n        /* \"fundMe.sol\":1691:1712  addressToAmountFunded */\n      0x01\n        /* \"fundMe.sol\":1691:1720  addressToAmountFunded[funder] */\n      0x00\n        /* \"fundMe.sol\":1713:1719  funder */\n      dup4\n        /* \"fundMe.sol\":1691:1720  addressToAmountFunded[funder] */\n      0xffffffffffffffffffffffffffffffffffffffff\n      and\n      0xffffffffffffffffffffffffffffffffffffffff\n      and\n      dup2\n      mstore\n      0x20\n      add\n      swap1\n      dup2\n      mstore\n      0x20\n      add\n      0x00\n      keccak256\n        /* \"fundMe.sol\":1691:1724  addressToAmountFunded[funder] = 0 */\n      dup2\n      swap1\n      sstore\n      pop\n        /* \"fundMe.sol\":1625:1735  {... */\n      pop\n        /* \"fundMe.sol\":1600:1614  fundersIndex++ */\n      dup1\n      dup1\n      tag_61\n      swap1\n      tag_62\n      jump\t// in\n    tag_61:\n      swap2\n      pop\n      pop\n        /* \"fundMe.sol\":1500:1735  for (... */\n      jump(tag_54)\n    tag_55:\n      pop\n        /* \"fundMe.sol\":1797:1798  0 */\n      0x00\n        /* \"fundMe.sol\":1783:1799  new address[](0) */\n      0xffffffffffffffff\n      dup2\n      gt\n      iszero\n      tag_63\n      jumpi\n      tag_64\n      tag_65\n      jump\t// in\n    tag_64:\n    tag_63:\n      mload(0x40)\n      swap1\n      dup1\n      dup3\n      mstore\n      dup1\n      0x20\n      mul\n      0x20\n      add\n      dup3\n      add\n      0x40\n      mstore\n      dup1\n      iszero\n      tag_66\n      jumpi\n      dup2\n      0x20\n      add\n      0x20\n      dup3\n      mul\n      dup1\n      calldatasize\n      dup4\n      calldatacopy\n      dup1\n      dup3\n      add\n      swap2\n      pop\n      pop\n      swap1\n      pop\n    tag_66:\n      pop\n        /* \"fundMe.sol\":1773:1780  funders */\n      0x00\n        /* \"fundMe.sol\":1773:1799  funders = new address[](0) */\n      swap1\n      dup1\n      mload\n      swap1\n      0x20\n      add\n      swap1\n      tag_67\n      swap3\n      swap2\n      swap1\n      tag_68\n      jump\t// in\n    tag_67:\n      pop\n        /* \"fundMe.sol\":2501:2517  bool callSuccess */\n      0x00\n        /* \"fundMe.sol\":2570:2580  msg.sender */\n      caller\n        /* \"fundMe.sol\":2562:2586  payable(msg.sender).call */\n      0xffffffffffffffffffffffffffffffffffffffff\n      and\n        /* \"fundMe.sol\":2594:2615  address(this).balance */\n      selfbalance\n        /* \"fundMe.sol\":2562:2620  payable(msg.sender).call{value: address(this).balance}(\"\") */\n      mload(0x40)\n      tag_69\n      swap1\n      tag_70\n      jump\t// in\n    tag_69:\n      0x00\n      mload(0x40)\n      dup1\n      dup4\n      sub\n      dup2\n      dup6\n      dup8\n      gas\n      call\n      swap3\n      pop\n      pop\n      pop\n      returndatasize\n      dup1\n      0x00\n      dup2\n      eq\n      tag_73\n      jumpi\n      mload(0x40)\n      swap2\n      pop\n      and(add(returndatasize, 0x3f), not(0x1f))\n      dup3\n      add\n      0x40\n      mstore\n      returndatasize\n      dup3\n      mstore\n      returndatasize\n      0x00\n      0x20\n      dup5\n      add\n      returndatacopy\n      jump(tag_72)\n    tag_73:\n      0x60\n      swap2\n      pop\n    tag_72:\n      pop\n        /* \"fundMe.sol\":2487:2620  (... */\n      pop\n      swap1\n      pop\n        /* \"fundMe.sol\":2638:2649  callSuccess */\n      dup1\n        /* \"fundMe.sol\":2630:2665  require(callSuccess, \"call failed\") */\n      tag_74\n      jumpi\n      mload(0x40)\n      0x08c379a000000000000000000000000000000000000000000000000000000000\n      dup2\n      mstore\n      0x04\n      add\n      tag_75\n      swap1\n      tag_76\n      jump\t// in\n    tag_75:\n      mload(0x40)\n      dup1\n      swap2\n      sub\n      swap1\n      revert\n    tag_74:\n        /* \"fundMe.sol\":1383:2672  {... */\n      pop\n        /* \"fundMe.sol\":1276:2672  function withDraw()... */\n      jump\t// out\n        /* \"fundMe.sol\":295:341  uint256 public constant minimumUSD = 50 * 1e18 */\n    tag_21:\n        /* \"fundMe.sol\":332:341  50 * 1e18 */\n      0x02b5e3af16b1880000\n        /* \"fundMe.sol\":295:341  uint256 public constant minimumUSD = 50 * 1e18 */\n      dup2\n      jump\t// out\n        /* \"fundMe.sol\":570:626  mapping(address => uint256) public addressToAmountFunded */\n    tag_28:\n      mstore(0x20, 0x01)\n      dup1\n      0x00\n      mstore\n      keccak256(0x00, 0x40)\n      0x00\n      swap2\n      pop\n      swap1\n      pop\n      sload\n      dup2\n      jump\t// out\n        /* \"fundMe.sol\":501:533  address public immutable i_owner */\n    tag_33:\n      immutable(\"0x5ae62207e7adee0b793bf869601474e77943fa4d9e3e0420f34d788e59bc19bd\")\n      dup2\n      jump\t// out\n        /* \"fundMe.sol\":540:564  address[] public funders */\n    tag_40:\n      0x00\n      dup2\n      dup2\n      sload\n      dup2\n      lt\n      tag_77\n      jumpi\n      0x00\n      dup1\n      revert\n    tag_77:\n      swap1\n      0x00\n      mstore\n      keccak256(0x00, 0x20)\n      add\n      0x00\n      swap2\n      pop\n      sload\n      swap1\n      0x0100\n      exp\n      swap1\n      div\n      0xffffffffffffffffffffffffffffffffffffffff\n      and\n      dup2\n      jump\t// out\n        /* \"priceConvertor.sol\":1381:1587  function conversionRate(uint256 _ethAmt) internal view returns (uint256) {... */\n    tag_44:\n        /* \"priceConvertor.sol\":1445:1452  uint256 */\n      0x00\n        /* \"priceConvertor.sol\":1464:1480  uint256 ethPrice */\n      dup1\n        /* \"priceConvertor.sol\":1483:1493  getPrice() */\n      tag_80\n        /* \"priceConvertor.sol\":1483:1491  getPrice */\n      tag_81\n        /* \"priceConvertor.sol\":1483:1493  getPrice() */\n      jump\t// in\n    tag_80:\n        /* \"priceConvertor.sol\":1464:1493  uint256 ethPrice = getPrice() */\n      swap1\n      pop\n        /* \"priceConvertor.sol\":1503:1522  uint256 ethAmtinUSD */\n      0x00\n        /* \"priceConvertor.sol\":1548:1552  1e18 */\n      0x0de0b6b3a7640000\n        /* \"priceConvertor.sol\":1537:1544  _ethAmt */\n      dup5\n        /* \"priceConvertor.sol\":1526:1534  ethPrice */\n      dup4\n        /* \"priceConvertor.sol\":1526:1544  ethPrice * _ethAmt */\n      tag_82\n      swap2\n      swap1\n      tag_83\n      jump\t// in\n    tag_82:\n        /* \"priceConvertor.sol\":1525:1552  (ethPrice * _ethAmt) / 1e18 */\n      tag_84\n      swap2\n      swap1\n      tag_85\n      jump\t// in\n    tag_84:\n        /* \"priceConvertor.sol\":1503:1552  uint256 ethAmtinUSD = (ethPrice * _ethAmt) / 1e18 */\n      swap1\n      pop\n        /* \"priceConvertor.sol\":1569:1580  ethAmtinUSD */\n      dup1\n        /* \"priceConvertor.sol\":1562:1580  return ethAmtinUSD */\n      swap3\n      pop\n      pop\n      pop\n        /* \"priceConvertor.sol\":1381:1587  function conversionRate(uint256 _ethAmt) internal view returns (uint256) {... */\n      swap2\n      swap1\n      pop\n      jump\t// out\n        /* \"priceConvertor.sol\":811:1375  function getPrice() internal view returns (uint256) {... */\n    tag_81:\n        /* \"priceConvertor.sol\":854:861  uint256 */\n      0x00\n        /* \"priceConvertor.sol\":948:979  AggregatorV3Interface priceFeed */\n      dup1\n        /* \"priceConvertor.sol\":1017:1059  0x694AA1769357215DE4FAC081bf1f309aDC325306 */\n      0x694aa1769357215de4fac081bf1f309adc325306\n        /* \"priceConvertor.sol\":948:1069  AggregatorV3Interface priceFeed = AggregatorV3Interface(... */\n      swap1\n      pop\n        /* \"priceConvertor.sol\":1140:1152  int256 price */\n      0x00\n        /* \"priceConvertor.sol\":1272:1281  priceFeed */\n      dup2\n        /* \"priceConvertor.sol\":1272:1297  priceFeed.latestRoundData */\n      0xffffffffffffffffffffffffffffffffffffffff\n      and\n      0xfeaf968c\n        /* \"priceConvertor.sol\":1272:1299  priceFeed.latestRoundData() */\n      mload(0x40)\n      dup2\n      0xffffffff\n      and\n      0xe0\n      shl\n      dup2\n      mstore\n      0x04\n      add\n      0xa0\n      mload(0x40)\n      dup1\n      dup4\n      sub\n      dup2\n      dup7\n      gas\n      staticcall\n      iszero\n      dup1\n      iszero\n      tag_88\n      jumpi\n      returndatasize\n      0x00\n      dup1\n      returndatacopy\n      revert(0x00, returndatasize)\n    tag_88:\n      pop\n      pop\n      pop\n      pop\n      mload(0x40)\n      returndatasize\n      not(0x1f)\n      0x1f\n      dup3\n      add\n      and\n      dup3\n      add\n      dup1\n      0x40\n      mstore\n      pop\n      dup2\n      add\n      swap1\n      tag_89\n      swap2\n      swap1\n      tag_90\n      jump\t// in\n    tag_89:\n        /* \"priceConvertor.sol\":1079:1299  (... */\n      pop\n      pop\n      pop\n      swap2\n      pop\n      pop\n        /* \"priceConvertor.sol\":1332:1336  1e18 */\n      0x0de0b6b3a7640000\n        /* \"priceConvertor.sol\":1324:1329  price */\n      dup2\n        /* \"priceConvertor.sol\":1324:1336  price * 1e18 */\n      tag_91\n      swap2\n      swap1\n      tag_92\n      jump\t// in\n    tag_91:\n        /* \"priceConvertor.sol\":1309:1337  return uint256(price * 1e18) */\n      swap3\n      pop\n      pop\n      pop\n        /* \"priceConvertor.sol\":811:1375  function getPrice() internal view returns (uint256) {... */\n      swap1\n      jump\t// out\n    tag_68:\n      dup3\n      dup1\n      sload\n      dup3\n      dup3\n      sstore\n      swap1\n      0x00\n      mstore\n      keccak256(0x00, 0x20)\n      swap1\n      dup2\n      add\n      swap3\n      dup3\n      iszero\n      tag_93\n      jumpi\n      swap2\n      0x20\n      mul\n      dup3\n      add\n    tag_94:\n      dup3\n      dup2\n      gt\n      iszero\n      tag_95\n      jumpi\n      dup3\n      mload\n      dup3\n      exp(0x0100, 0x00)\n      dup2\n      sload\n      dup2\n      0xffffffffffffffffffffffffffffffffffffffff\n      mul\n      not\n      and\n      swap1\n      dup4\n      0xffffffffffffffffffffffffffffffffffffffff\n      and\n      mul\n      or\n      swap1\n      sstore\n      pop\n      swap2\n      0x20\n      add\n      swap2\n      swap1\n      0x01\n      add\n      swap1\n      jump(tag_94)\n    tag_95:\n    tag_93:\n      pop\n      swap1\n      pop\n      tag_96\n      swap2\n      swap1\n      tag_97\n      jump\t// in\n    tag_96:\n      pop\n      swap1\n      jump\t// out\n    tag_97:\n    tag_98:\n      dup1\n      dup3\n      gt\n      iszero\n      tag_99\n      jumpi\n      0x00\n      dup2\n      0x00\n      swap1\n      sstore\n      pop\n      0x01\n      add\n      jump(tag_98)\n    tag_99:\n      pop\n      swap1\n      jump\t// out\n        /* \"#utility.yul\":7:84   */\n    tag_100:\n        /* \"#utility.yul\":44:51   */\n      0x00\n        /* \"#utility.yul\":73:78   */\n      dup2\n        /* \"#utility.yul\":62:78   */\n      swap1\n      pop\n        /* \"#utility.yul\":7:84   */\n      swap2\n      swap1\n      pop\n      jump\t// out\n        /* \"#utility.yul\":90:208   */\n    tag_101:\n        /* \"#utility.yul\":177:201   */\n      tag_132\n        /* \"#utility.yul\":195:200   */\n      dup2\n        /* \"#utility.yul\":177:201   */\n      tag_100\n      jump\t// in\n    tag_132:\n        /* \"#utility.yul\":172:175   */\n      dup3\n        /* \"#utility.yul\":165:202   */\n      mstore\n        /* \"#utility.yul\":90:208   */\n      pop\n      pop\n      jump\t// out\n        /* \"#utility.yul\":214:436   */\n    tag_23:\n        /* \"#utility.yul\":307:311   */\n      0x00\n        /* \"#utility.yul\":345:347   */\n      0x20\n        /* \"#utility.yul\":334:343   */\n      dup3\n        /* \"#utility.yul\":330:348   */\n      add\n        /* \"#utility.yul\":322:348   */\n      swap1\n      pop\n        /* \"#utility.yul\":358:429   */\n      tag_134\n        /* \"#utility.yul\":426:427   */\n      0x00\n        /* \"#utility.yul\":415:424   */\n      dup4\n        /* \"#utility.yul\":411:428   */\n      add\n        /* \"#utility.yul\":402:408   */\n      dup5\n        /* \"#utility.yul\":358:429   */\n      tag_101\n      jump\t// in\n    tag_134:\n        /* \"#utility.yul\":214:436   */\n      swap3\n      swap2\n      pop\n      pop\n      jump\t// out\n        /* \"#utility.yul\":523:640   */\n    tag_103:\n        /* \"#utility.yul\":632:633   */\n      0x00\n        /* \"#utility.yul\":629:630   */\n      dup1\n        /* \"#utility.yul\":622:634   */\n      revert\n        /* \"#utility.yul\":769:895   */\n    tag_105:\n        /* \"#utility.yul\":806:813   */\n      0x00\n        /* \"#utility.yul\":846:888   */\n      0xffffffffffffffffffffffffffffffffffffffff\n        /* \"#utility.yul\":839:844   */\n      dup3\n        /* \"#utility.yul\":835:889   */\n      and\n        /* \"#utility.yul\":824:889   */\n      swap1\n      pop\n        /* \"#utility.yul\":769:895   */\n      swap2\n      swap1\n      pop\n      jump\t// out\n        /* \"#utility.yul\":901:997   */\n    tag_106:\n        /* \"#utility.yul\":938:945   */\n      0x00\n        /* \"#utility.yul\":967:991   */\n      tag_140\n        /* \"#utility.yul\":985:990   */\n      dup3\n        /* \"#utility.yul\":967:991   */\n      tag_105\n      jump\t// in\n    tag_140:\n        /* \"#utility.yul\":956:991   */\n      swap1\n      pop\n        /* \"#utility.yul\":901:997   */\n      swap2\n      swap1\n      pop\n      jump\t// out\n        /* \"#utility.yul\":1003:1125   */\n    tag_107:\n        /* \"#utility.yul\":1076:1100   */\n      tag_142\n        /* \"#utility.yul\":1094:1099   */\n      dup2\n        /* \"#utility.yul\":1076:1100   */\n      tag_106\n      jump\t// in\n    tag_142:\n        /* \"#utility.yul\":1069:1074   */\n      dup2\n        /* \"#utility.yul\":1066:1101   */\n      eq\n        /* \"#utility.yul\":1056:1119   */\n      tag_143\n      jumpi\n        /* \"#utility.yul\":1115:1116   */\n      0x00\n        /* \"#utility.yul\":1112:1113   */\n      dup1\n        /* \"#utility.yul\":1105:1117   */\n      revert\n        /* \"#utility.yul\":1056:1119   */\n    tag_143:\n        /* \"#utility.yul\":1003:1125   */\n      pop\n      jump\t// out\n        /* \"#utility.yul\":1131:1270   */\n    tag_108:\n        /* \"#utility.yul\":1177:1182   */\n      0x00\n        /* \"#utility.yul\":1215:1221   */\n      dup2\n        /* \"#utility.yul\":1202:1222   */\n      calldataload\n        /* \"#utility.yul\":1193:1222   */\n      swap1\n      pop\n        /* \"#utility.yul\":1231:1264   */\n      tag_145\n        /* \"#utility.yul\":1258:1263   */\n      dup2\n        /* \"#utility.yul\":1231:1264   */\n      tag_107\n      jump\t// in\n    tag_145:\n        /* \"#utility.yul\":1131:1270   */\n      swap3\n      swap2\n      pop\n      pop\n      jump\t// out\n        /* \"#utility.yul\":1276:1605   */\n    tag_27:\n        /* \"#utility.yul\":1335:1341   */\n      0x00\n        /* \"#utility.yul\":1384:1386   */\n      0x20\n        /* \"#utility.yul\":1372:1381   */\n      dup3\n        /* \"#utility.yul\":1363:1370   */\n      dup5\n        /* \"#utility.yul\":1359:1382   */\n      sub\n        /* \"#utility.yul\":1355:1387   */\n      slt\n        /* \"#utility.yul\":1352:1471   */\n      iszero\n      tag_147\n      jumpi\n        /* \"#utility.yul\":1390:1469   */\n      tag_148\n      tag_103\n      jump\t// in\n    tag_148:\n        /* \"#utility.yul\":1352:1471   */\n    tag_147:\n        /* \"#utility.yul\":1510:1511   */\n      0x00\n        /* \"#utility.yul\":1535:1588   */\n      tag_149\n        /* \"#utility.yul\":1580:1587   */\n      dup5\n        /* \"#utility.yul\":1571:1577   */\n      dup3\n        /* \"#utility.yul\":1560:1569   */\n      dup6\n        /* \"#utility.yul\":1556:1578   */\n      add\n        /* \"#utility.yul\":1535:1588   */\n      tag_108\n      jump\t// in\n    tag_149:\n        /* \"#utility.yul\":1525:1588   */\n      swap2\n      pop\n        /* \"#utility.yul\":1481:1598   */\n      pop\n        /* \"#utility.yul\":1276:1605   */\n      swap3\n      swap2\n      pop\n      pop\n      jump\t// out\n        /* \"#utility.yul\":1611:1729   */\n    tag_109:\n        /* \"#utility.yul\":1698:1722   */\n      tag_151\n        /* \"#utility.yul\":1716:1721   */\n      dup2\n        /* \"#utility.yul\":1698:1722   */\n      tag_106\n      jump\t// in\n    tag_151:\n        /* \"#utility.yul\":1693:1696   */\n      dup3\n        /* \"#utility.yul\":1686:1723   */\n      mstore\n        /* \"#utility.yul\":1611:1729   */\n      pop\n      pop\n      jump\t// out\n        /* \"#utility.yul\":1735:1957   */\n    tag_35:\n        /* \"#utility.yul\":1828:1832   */\n      0x00\n        /* \"#utility.yul\":1866:1868   */\n      0x20\n        /* \"#utility.yul\":1855:1864   */\n      dup3\n        /* \"#utility.yul\":1851:1869   */\n      add\n        /* \"#utility.yul\":1843:1869   */\n      swap1\n      pop\n        /* \"#utility.yul\":1879:1950   */\n      tag_153\n        /* \"#utility.yul\":1947:1948   */\n      0x00\n        /* \"#utility.yul\":1936:1945   */\n      dup4\n        /* \"#utility.yul\":1932:1949   */\n      add\n        /* \"#utility.yul\":1923:1929   */\n      dup5\n        /* \"#utility.yul\":1879:1950   */\n      tag_109\n      jump\t// in\n    tag_153:\n        /* \"#utility.yul\":1735:1957   */\n      swap3\n      swap2\n      pop\n      pop\n      jump\t// out\n        /* \"#utility.yul\":1963:2085   */\n    tag_110:\n        /* \"#utility.yul\":2036:2060   */\n      tag_155\n        /* \"#utility.yul\":2054:2059   */\n      dup2\n        /* \"#utility.yul\":2036:2060   */\n      tag_100\n      jump\t// in\n    tag_155:\n        /* \"#utility.yul\":2029:2034   */\n      dup2\n        /* \"#utility.yul\":2026:2061   */\n      eq\n        /* \"#utility.yul\":2016:2079   */\n      tag_156\n      jumpi\n        /* \"#utility.yul\":2075:2076   */\n      0x00\n        /* \"#utility.yul\":2072:2073   */\n      dup1\n        /* \"#utility.yul\":2065:2077   */\n      revert\n        /* \"#utility.yul\":2016:2079   */\n    tag_156:\n        /* \"#utility.yul\":1963:2085   */\n      pop\n      jump\t// out\n        /* \"#utility.yul\":2091:2230   */\n    tag_111:\n        /* \"#utility.yul\":2137:2142   */\n      0x00\n        /* \"#utility.yul\":2175:2181   */\n      dup2\n        /* \"#utility.yul\":2162:2182   */\n      calldataload\n        /* \"#utility.yul\":2153:2182   */\n      swap1\n      pop\n        /* \"#utility.yul\":2191:2224   */\n      tag_158\n        /* \"#utility.yul\":2218:2223   */\n      dup2\n        /* \"#utility.yul\":2191:2224   */\n      tag_110\n      jump\t// in\n    tag_158:\n        /* \"#utility.yul\":2091:2230   */\n      swap3\n      swap2\n      pop\n      pop\n      jump\t// out\n        /* \"#utility.yul\":2236:2565   */\n    tag_39:\n        /* \"#utility.yul\":2295:2301   */\n      0x00\n        /* \"#utility.yul\":2344:2346   */\n      0x20\n        /* \"#utility.yul\":2332:2341   */\n      dup3\n        /* \"#utility.yul\":2323:2330   */\n      dup5\n        /* \"#utility.yul\":2319:2342   */\n      sub\n        /* \"#utility.yul\":2315:2347   */\n      slt\n        /* \"#utility.yul\":2312:2431   */\n      iszero\n      tag_160\n      jumpi\n        /* \"#utility.yul\":2350:2429   */\n      tag_161\n      tag_103\n      jump\t// in\n    tag_161:\n        /* \"#utility.yul\":2312:2431   */\n    tag_160:\n        /* \"#utility.yul\":2470:2471   */\n      0x00\n        /* \"#utility.yul\":2495:2548   */\n      tag_162\n        /* \"#utility.yul\":2540:2547   */\n      dup5\n        /* \"#utility.yul\":2531:2537   */\n      dup3\n        /* \"#utility.yul\":2520:2529   */\n      dup6\n        /* \"#utility.yul\":2516:2538   */\n      add\n        /* \"#utility.yul\":2495:2548   */\n      tag_111\n      jump\t// in\n    tag_162:\n        /* \"#utility.yul\":2485:2548   */\n      swap2\n      pop\n        /* \"#utility.yul\":2441:2558   */\n      pop\n        /* \"#utility.yul\":2236:2565   */\n      swap3\n      swap2\n      pop\n      pop\n      jump\t// out\n        /* \"#utility.yul\":2571:2740   */\n    tag_112:\n        /* \"#utility.yul\":2655:2666   */\n      0x00\n        /* \"#utility.yul\":2689:2695   */\n      dup3\n        /* \"#utility.yul\":2684:2687   */\n      dup3\n        /* \"#utility.yul\":2677:2696   */\n      mstore\n        /* \"#utility.yul\":2729:2733   */\n      0x20\n        /* \"#utility.yul\":2724:2727   */\n      dup3\n        /* \"#utility.yul\":2720:2734   */\n      add\n        /* \"#utility.yul\":2705:2734   */\n      swap1\n      pop\n        /* \"#utility.yul\":2571:2740   */\n      swap3\n      swap2\n      pop\n      pop\n      jump\t// out\n        /* \"#utility.yul\":2746:2917   */\n    tag_113:\n        /* \"#utility.yul\":2886:2909   */\n      0x6469646e742073656e6420656e6f756768204554480000000000000000000000\n        /* \"#utility.yul\":2882:2883   */\n      0x00\n        /* \"#utility.yul\":2874:2880   */\n      dup3\n        /* \"#utility.yul\":2870:2884   */\n      add\n        /* \"#utility.yul\":2863:2910   */\n      mstore\n        /* \"#utility.yul\":2746:2917   */\n      pop\n      jump\t// out\n        /* \"#utility.yul\":2923:3289   */\n    tag_114:\n        /* \"#utility.yul\":3065:3068   */\n      0x00\n        /* \"#utility.yul\":3086:3153   */\n      tag_166\n        /* \"#utility.yul\":3150:3152   */\n      0x15\n        /* \"#utility.yul\":3145:3148   */\n      dup4\n        /* \"#utility.yul\":3086:3153   */\n      tag_112\n      jump\t// in\n    tag_166:\n        /* \"#utility.yul\":3079:3153   */\n      swap2\n      pop\n        /* \"#utility.yul\":3162:3255   */\n      tag_167\n        /* \"#utility.yul\":3251:3254   */\n      dup3\n        /* \"#utility.yul\":3162:3255   */\n      tag_113\n      jump\t// in\n    tag_167:\n        /* \"#utility.yul\":3280:3282   */\n      0x20\n        /* \"#utility.yul\":3275:3278   */\n      dup3\n        /* \"#utility.yul\":3271:3283   */\n      add\n        /* \"#utility.yul\":3264:3283   */\n      swap1\n      pop\n        /* \"#utility.yul\":2923:3289   */\n      swap2\n      swap1\n      pop\n      jump\t// out\n        /* \"#utility.yul\":3295:3714   */\n    tag_47:\n        /* \"#utility.yul\":3461:3465   */\n      0x00\n        /* \"#utility.yul\":3499:3501   */\n      0x20\n        /* \"#utility.yul\":3488:3497   */\n      dup3\n        /* \"#utility.yul\":3484:3502   */\n      add\n        /* \"#utility.yul\":3476:3502   */\n      swap1\n      pop\n        /* \"#utility.yul\":3548:3557   */\n      dup2\n        /* \"#utility.yul\":3542:3546   */\n      dup2\n        /* \"#utility.yul\":3538:3558   */\n      sub\n        /* \"#utility.yul\":3534:3535   */\n      0x00\n        /* \"#utility.yul\":3523:3532   */\n      dup4\n        /* \"#utility.yul\":3519:3536   */\n      add\n        /* \"#utility.yul\":3512:3559   */\n      mstore\n        /* \"#utility.yul\":3576:3707   */\n      tag_169\n        /* \"#utility.yul\":3702:3706   */\n      dup2\n        /* \"#utility.yul\":3576:3707   */\n      tag_114\n      jump\t// in\n    tag_169:\n        /* \"#utility.yul\":3568:3707   */\n      swap1\n      pop\n        /* \"#utility.yul\":3295:3714   */\n      swap2\n      swap1\n      pop\n      jump\t// out\n        /* \"#utility.yul\":3720:3900   */\n    tag_115:\n        /* \"#utility.yul\":3768:3845   */\n      0x4e487b7100000000000000000000000000000000000000000000000000000000\n        /* \"#utility.yul\":3765:3766   */\n      0x00\n        /* \"#utility.yul\":3758:3846   */\n      mstore\n        /* \"#utility.yul\":3865:3869   */\n      0x11\n        /* \"#utility.yul\":3862:3863   */\n      0x04\n        /* \"#utility.yul\":3855:3870   */\n      mstore\n        /* \"#utility.yul\":3889:3893   */\n      0x24\n        /* \"#utility.yul\":3886:3887   */\n      0x00\n        /* \"#utility.yul\":3879:3894   */\n      revert\n        /* \"#utility.yul\":3906:4097   */\n    tag_50:\n        /* \"#utility.yul\":3946:3949   */\n      0x00\n        /* \"#utility.yul\":3965:3985   */\n      tag_172\n        /* \"#utility.yul\":3983:3984   */\n      dup3\n        /* \"#utility.yul\":3965:3985   */\n      tag_100\n      jump\t// in\n    tag_172:\n        /* \"#utility.yul\":3960:3985   */\n      swap2\n      pop\n        /* \"#utility.yul\":3999:4019   */\n      tag_173\n        /* \"#utility.yul\":4017:4018   */\n      dup4\n        /* \"#utility.yul\":3999:4019   */\n      tag_100\n      jump\t// in\n    tag_173:\n        /* \"#utility.yul\":3994:4019   */\n      swap3\n      pop\n        /* \"#utility.yul\":4042:4043   */\n      dup3\n        /* \"#utility.yul\":4039:4040   */\n      dup3\n        /* \"#utility.yul\":4035:4044   */\n      add\n        /* \"#utility.yul\":4028:4044   */\n      swap1\n      pop\n        /* \"#utility.yul\":4063:4066   */\n      dup1\n        /* \"#utility.yul\":4060:4061   */\n      dup3\n        /* \"#utility.yul\":4057:4067   */\n      gt\n        /* \"#utility.yul\":4054:4090   */\n      iszero\n      tag_174\n      jumpi\n        /* \"#utility.yul\":4070:4088   */\n      tag_175\n      tag_115\n      jump\t// in\n    tag_175:\n        /* \"#utility.yul\":4054:4090   */\n    tag_174:\n        /* \"#utility.yul\":3906:4097   */\n      swap3\n      swap2\n      pop\n      pop\n      jump\t// out\n        /* \"#utility.yul\":4103:4283   */\n    tag_59:\n        /* \"#utility.yul\":4151:4228   */\n      0x4e487b7100000000000000000000000000000000000000000000000000000000\n        /* \"#utility.yul\":4148:4149   */\n      0x00\n        /* \"#utility.yul\":4141:4229   */\n      mstore\n        /* \"#utility.yul\":4248:4252   */\n      0x32\n        /* \"#utility.yul\":4245:4246   */\n      0x04\n        /* \"#utility.yul\":4238:4253   */\n      mstore\n        /* \"#utility.yul\":4272:4276   */\n      0x24\n        /* \"#utility.yul\":4269:4270   */\n      0x00\n        /* \"#utility.yul\":4262:4277   */\n      revert\n        /* \"#utility.yul\":4289:4522   */\n    tag_62:\n        /* \"#utility.yul\":4328:4331   */\n      0x00\n        /* \"#utility.yul\":4351:4375   */\n      tag_178\n        /* \"#utility.yul\":4369:4374   */\n      dup3\n        /* \"#utility.yul\":4351:4375   */\n      tag_100\n      jump\t// in\n    tag_178:\n        /* \"#utility.yul\":4342:4375   */\n      swap2\n      pop\n        /* \"#utility.yul\":4397:4463   */\n      0xffffffffffffffffffffffffffffffffffffffffffffffffffffffffffffffff\n        /* \"#utility.yul\":4390:4395   */\n      dup3\n        /* \"#utility.yul\":4387:4464   */\n      sub\n        /* \"#utility.yul\":4384:4487   */\n      tag_179\n      jumpi\n        /* \"#utility.yul\":4467:4485   */\n      tag_180\n      tag_115\n      jump\t// in\n    tag_180:\n        /* \"#utility.yul\":4384:4487   */\n    tag_179:\n        /* \"#utility.yul\":4514:4515   */\n      0x01\n        /* \"#utility.yul\":4507:4512   */\n      dup3\n        /* \"#utility.yul\":4503:4516   */\n      add\n        /* \"#utility.yul\":4496:4516   */\n      swap1\n      pop\n        /* \"#utility.yul\":4289:4522   */\n      swap2\n      swap1\n      pop\n      jump\t// out\n        /* \"#utility.yul\":4528:4708   */\n    tag_65:\n        /* \"#utility.yul\":4576:4653   */\n      0x4e487b7100000000000000000000000000000000000000000000000000000000\n        /* \"#utility.yul\":4573:4574   */\n      0x00\n        /* \"#utility.yul\":4566:4654   */\n      mstore\n        /* \"#utility.yul\":4673:4677   */\n      0x41\n        /* \"#utility.yul\":4670:4671   */\n      0x04\n        /* \"#utility.yul\":4663:4678   */\n      mstore\n        /* \"#utility.yul\":4697:4701   */\n      0x24\n        /* \"#utility.yul\":4694:4695   */\n      0x00\n        /* \"#utility.yul\":4687:4702   */\n      revert\n        /* \"#utility.yul\":4714:4861   */\n    tag_116:\n        /* \"#utility.yul\":4815:4826   */\n      0x00\n        /* \"#utility.yul\":4852:4855   */\n      dup2\n        /* \"#utility.yul\":4837:4855   */\n      swap1\n      pop\n        /* \"#utility.yul\":4714:4861   */\n      swap3\n      swap2\n      pop\n      pop\n      jump\t// out\n        /* \"#utility.yul\":4867:4981   */\n    tag_117:\n      pop\n      jump\t// out\n        /* \"#utility.yul\":4987:5385   */\n    tag_118:\n        /* \"#utility.yul\":5146:5149   */\n      0x00\n        /* \"#utility.yul\":5167:5250   */\n      tag_185\n        /* \"#utility.yul\":5248:5249   */\n      0x00\n        /* \"#utility.yul\":5243:5246   */\n      dup4\n        /* \"#utility.yul\":5167:5250   */\n      tag_116\n      jump\t// in\n    tag_185:\n        /* \"#utility.yul\":5160:5250   */\n      swap2\n      pop\n        /* \"#utility.yul\":5259:5352   */\n      tag_186\n        /* \"#utility.yul\":5348:5351   */\n      dup3\n        /* \"#utility.yul\":5259:5352   */\n      tag_117\n      jump\t// in\n    tag_186:\n        /* \"#utility.yul\":5377:5378   */\n      0x00\n        /* \"#utility.yul\":5372:5375   */\n      dup3\n        /* \"#utility.yul\":5368:5379   */\n      add\n        /* \"#utility.yul\":5361:5379   */\n      swap1\n      pop\n        /* \"#utility.yul\":4987:5385   */\n      swap2\n      swap1\n      pop\n      jump\t// out\n        /* \"#utility.yul\":5391:5770   */\n    tag_70:\n        /* \"#utility.yul\":5575:5578   */\n      0x00\n        /* \"#utility.yul\":5597:5744   */\n      tag_188\n        /* \"#utility.yul\":5740:5743   */\n      dup3\n        /* \"#utility.yul\":5597:5744   */\n      tag_118\n      jump\t// in\n    tag_188:\n        /* \"#utility.yul\":5590:5744   */\n      swap2\n      pop\n        /* \"#utility.yul\":5761:5764   */\n      dup2\n        /* \"#utility.yul\":5754:5764   */\n      swap1\n      pop\n        /* \"#utility.yul\":5391:5770   */\n      swap2\n      swap1\n      pop\n      jump\t// out\n        /* \"#utility.yul\":5776:5937   */\n    tag_119:\n        /* \"#utility.yul\":5916:5929   */\n      0x63616c6c206661696c6564000000000000000000000000000000000000000000\n        /* \"#utility.yul\":5912:5913   */\n      0x00\n        /* \"#utility.yul\":5904:5910   */\n      dup3\n        /* \"#utility.yul\":5900:5914   */\n      add\n        /* \"#utility.yul\":5893:5930   */\n      mstore\n        /* \"#utility.yul\":5776:5937   */\n      pop\n      jump\t// out\n        /* \"#utility.yul\":5943:6309   */\n    tag_120:\n        /* \"#utility.yul\":6085:6088   */\n      0x00\n        /* \"#utility.yul\":6106:6173   */\n      tag_191\n        /* \"#utility.yul\":6170:6172   */\n      0x0b\n        /* \"#utility.yul\":6165:6168   */\n      dup4\n        /* \"#utility.yul\":6106:6173   */\n      tag_112\n      jump\t// in\n    tag_191:\n        /* \"#utility.yul\":6099:6173   */\n      swap2\n      pop\n        /* \"#utility.yul\":6182:6275   */\n      tag_192\n        /* \"#utility.yul\":6271:6274   */\n      dup3\n        /* \"#utility.yul\":6182:6275   */\n      tag_119\n      jump\t// in\n    tag_192:\n        /* \"#utility.yul\":6300:6302   */\n      0x20\n        /* \"#utility.yul\":6295:6298   */\n      dup3\n        /* \"#utility.yul\":6291:6303   */\n      add\n        /* \"#utility.yul\":6284:6303   */\n      swap1\n      pop\n        /* \"#utility.yul\":5943:6309   */\n      swap2\n      swap1\n      pop\n      jump\t// out\n        /* \"#utility.yul\":6315:6734   */\n    tag_76:\n        /* \"#utility.yul\":6481:6485   */\n      0x00\n        /* \"#utility.yul\":6519:6521   */\n      0x20\n        /* \"#utility.yul\":6508:6517   */\n      dup3\n        /* \"#utility.yul\":6504:6522   */\n      add\n        /* \"#utility.yul\":6496:6522   */\n      swap1\n      pop\n        /* \"#utility.yul\":6568:6577   */\n      dup2\n        /* \"#utility.yul\":6562:6566   */\n      dup2\n        /* \"#utility.yul\":6558:6578   */\n      sub\n        /* \"#utility.yul\":6554:6555   */\n      0x00\n        /* \"#utility.yul\":6543:6552   */\n      dup4\n        /* \"#utility.yul\":6539:6556   */\n      add\n        /* \"#utility.yul\":6532:6579   */\n      mstore\n        /* \"#utility.yul\":6596:6727   */\n      tag_194\n        /* \"#utility.yul\":6722:6726   */\n      dup2\n        /* \"#utility.yul\":6596:6727   */\n      tag_120\n      jump\t// in\n    tag_194:\n        /* \"#utility.yul\":6588:6727   */\n      swap1\n      pop\n        /* \"#utility.yul\":6315:6734   */\n      swap2\n      swap1\n      pop\n      jump\t// out\n        /* \"#utility.yul\":6740:7150   */\n    tag_83:\n        /* \"#utility.yul\":6780:6787   */\n      0x00\n        /* \"#utility.yul\":6803:6823   */\n      tag_196\n        /* \"#utility.yul\":6821:6822   */\n      dup3\n        /* \"#utility.yul\":6803:6823   */\n      tag_100\n      jump\t// in\n    tag_196:\n        /* \"#utility.yul\":6798:6823   */\n      swap2\n      pop\n        /* \"#utility.yul\":6837:6857   */\n      tag_197\n        /* \"#utility.yul\":6855:6856   */\n      dup4\n        /* \"#utility.yul\":6837:6857   */\n      tag_100\n      jump\t// in\n    tag_197:\n        /* \"#utility.yul\":6832:6857   */\n      swap3\n      pop\n        /* \"#utility.yul\":6892:6893   */\n      dup3\n        /* \"#utility.yul\":6889:6890   */\n      dup3\n        /* \"#utility.yul\":6885:6894   */\n      mul\n        /* \"#utility.yul\":6914:6944   */\n      tag_198\n        /* \"#utility.yul\":6932:6943   */\n      dup2\n        /* \"#utility.yul\":6914:6944   */\n      tag_100\n      jump\t// in\n    tag_198:\n        /* \"#utility.yul\":6903:6944   */\n      swap2\n      pop\n        /* \"#utility.yul\":7093:7094   */\n      dup3\n        /* \"#utility.yul\":7084:7091   */\n      dup3\n        /* \"#utility.yul\":7080:7095   */\n      div\n        /* \"#utility.yul\":7077:7078   */\n      dup5\n        /* \"#utility.yul\":7074:7096   */\n      eq\n        /* \"#utility.yul\":7054:7055   */\n      dup4\n        /* \"#utility.yul\":7047:7056   */\n      iszero\n        /* \"#utility.yul\":7027:7110   */\n      or\n        /* \"#utility.yul\":7004:7143   */\n      tag_199\n      jumpi\n        /* \"#utility.yul\":7123:7141   */\n      tag_200\n      tag_115\n      jump\t// in\n    tag_200:\n        /* \"#utility.yul\":7004:7143   */\n    tag_199:\n        /* \"#utility.yul\":6788:7150   */\n      pop\n        /* \"#utility.yul\":6740:7150   */\n      swap3\n      swap2\n      pop\n      pop\n      jump\t// out\n        /* \"#utility.yul\":7156:7336   */\n    tag_121:\n        /* \"#utility.yul\":7204:7281   */\n      0x4e487b7100000000000000000000000000000000000000000000000000000000\n        /* \"#utility.yul\":7201:7202   */\n      0x00\n        /* \"#utility.yul\":7194:7282   */\n      mstore\n        /* \"#utility.yul\":7301:7305   */\n      0x12\n        /* \"#utility.yul\":7298:7299   */\n      0x04\n        /* \"#utility.yul\":7291:7306   */\n      mstore\n        /* \"#utility.yul\":7325:7329   */\n      0x24\n        /* \"#utility.yul\":7322:7323   */\n      0x00\n        /* \"#utility.yul\":7315:7330   */\n      revert\n        /* \"#utility.yul\":7342:7527   */\n    tag_85:\n        /* \"#utility.yul\":7382:7383   */\n      0x00\n        /* \"#utility.yul\":7399:7419   */\n      tag_203\n        /* \"#utility.yul\":7417:7418   */\n      dup3\n        /* \"#utility.yul\":7399:7419   */\n      tag_100\n      jump\t// in\n    tag_203:\n        /* \"#utility.yul\":7394:7419   */\n      swap2\n      pop\n        /* \"#utility.yul\":7433:7453   */\n      tag_204\n        /* \"#utility.yul\":7451:7452   */\n      dup4\n        /* \"#utility.yul\":7433:7453   */\n      tag_100\n      jump\t// in\n    tag_204:\n        /* \"#utility.yul\":7428:7453   */\n      swap3\n      pop\n        /* \"#utility.yul\":7472:7473   */\n      dup3\n        /* \"#utility.yul\":7462:7497   */\n      tag_205\n      jumpi\n        /* \"#utility.yul\":7477:7495   */\n      tag_206\n      tag_121\n      jump\t// in\n    tag_206:\n        /* \"#utility.yul\":7462:7497   */\n    tag_205:\n        /* \"#utility.yul\":7519:7520   */\n      dup3\n        /* \"#utility.yul\":7516:7517   */\n      dup3\n        /* \"#utility.yul\":7512:7521   */\n      div\n        /* \"#utility.yul\":7507:7521   */\n      swap1\n      pop\n        /* \"#utility.yul\":7342:7527   */\n      swap3\n      swap2\n      pop\n      pop\n      jump\t// out\n        /* \"#utility.yul\":7533:7638   */\n    tag_122:\n        /* \"#utility.yul\":7569:7576   */\n      0x00\n        /* \"#utility.yul\":7609:7631   */\n      0xffffffffffffffffffff\n        /* \"#utility.yul\":7602:7607   */\n      dup3\n        /* \"#utility.yul\":7598:7632   */\n      and\n        /* \"#utility.yul\":7587:7632   */\n      swap1\n      pop\n        /* \"#utility.yul\":7533:7638   */\n      swap2\n      swap1\n      pop\n      jump\t// out\n        /* \"#utility.yul\":7644:7764   */\n    tag_123:\n        /* \"#utility.yul\":7716:7739   */\n      tag_209\n        /* \"#utility.yul\":7733:7738   */\n      dup2\n        /* \"#utility.yul\":7716:7739   */\n      tag_122\n      jump\t// in\n    tag_209:\n        /* \"#utility.yul\":7709:7714   */\n      dup2\n        /* \"#utility.yul\":7706:7740   */\n      eq\n        /* \"#utility.yul\":7696:7758   */\n      tag_210\n      jumpi\n        /* \"#utility.yul\":7754:7755   */\n      0x00\n        /* \"#utility.yul\":7751:7752   */\n      dup1\n        /* \"#utility.yul\":7744:7756   */\n      revert\n        /* \"#utility.yul\":7696:7758   */\n    tag_210:\n        /* \"#utility.yul\":7644:7764   */\n      pop\n      jump\t// out\n        /* \"#utility.yul\":7770:7911   */\n    tag_124:\n        /* \"#utility.yul\":7826:7831   */\n      0x00\n        /* \"#utility.yul\":7857:7863   */\n      dup2\n        /* \"#utility.yul\":7851:7864   */\n      mload\n        /* \"#utility.yul\":7842:7864   */\n      swap1\n      pop\n        /* \"#utility.yul\":7873:7905   */\n      tag_212\n        /* \"#utility.yul\":7899:7904   */\n      dup2\n        /* \"#utility.yul\":7873:7905   */\n      tag_123\n      jump\t// in\n    tag_212:\n        /* \"#utility.yul\":7770:7911   */\n      swap3\n      swap2\n      pop\n      pop\n      jump\t// out\n        /* \"#utility.yul\":7917:7993   */\n    tag_125:\n        /* \"#utility.yul\":7953:7960   */\n      0x00\n        /* \"#utility.yul\":7982:7987   */\n      dup2\n        /* \"#utility.yul\":7971:7987   */\n      swap1\n      pop\n        /* \"#utility.yul\":7917:7993   */\n      swap2\n      swap1\n      pop\n      jump\t// out\n        /* \"#utility.yul\":7999:8119   */\n    tag_126:\n        /* \"#utility.yul\":8071:8094   */\n      tag_215\n        /* \"#utility.yul\":8088:8093   */\n      dup2\n        /* \"#utility.yul\":8071:8094   */\n      tag_125\n      jump\t// in\n    tag_215:\n        /* \"#utility.yul\":8064:8069   */\n      dup2\n        /* \"#utility.yul\":8061:8095   */\n      eq\n        /* \"#utility.yul\":8051:8113   */\n      tag_216\n      jumpi\n        /* \"#utility.yul\":8109:8110   */\n      0x00\n        /* \"#utility.yul\":8106:8107   */\n      dup1\n        /* \"#utility.yul\":8099:8111   */\n      revert\n        /* \"#utility.yul\":8051:8113   */\n    tag_216:\n        /* \"#utility.yul\":7999:8119   */\n      pop\n      jump\t// out\n        /* \"#utility.yul\":8125:8266   */\n    tag_127:\n        /* \"#utility.yul\":8181:8186   */\n      0x00\n        /* \"#utility.yul\":8212:8218   */\n      dup2\n        /* \"#utility.yul\":8206:8219   */\n      mload\n        /* \"#utility.yul\":8197:8219   */\n      swap1\n      pop\n        /* \"#utility.yul\":8228:8260   */\n      tag_218\n        /* \"#utility.yul\":8254:8259   */\n      dup2\n        /* \"#utility.yul\":8228:8260   */\n      tag_126\n      jump\t// in\n    tag_218:\n        /* \"#utility.yul\":8125:8266   */\n      swap3\n      swap2\n      pop\n      pop\n      jump\t// out\n        /* \"#utility.yul\":8272:8415   */\n    tag_128:\n        /* \"#utility.yul\":8329:8334   */\n      0x00\n        /* \"#utility.yul\":8360:8366   */\n      dup2\n        /* \"#utility.yul\":8354:8367   */\n      mload\n        /* \"#utility.yul\":8345:8367   */\n      swap1\n      pop\n        /* \"#utility.yul\":8376:8409   */\n      tag_220\n        /* \"#utility.yul\":8403:8408   */\n      dup2\n        /* \"#utility.yul\":8376:8409   */\n      tag_110\n      jump\t// in\n    tag_220:\n        /* \"#utility.yul\":8272:8415   */\n      swap3\n      swap2\n      pop\n      pop\n      jump\t// out\n        /* \"#utility.yul\":8421:9392   */\n    tag_90:\n        /* \"#utility.yul\":8524:8530   */\n      0x00\n        /* \"#utility.yul\":8532:8538   */\n      dup1\n        /* \"#utility.yul\":8540:8546   */\n      0x00\n        /* \"#utility.yul\":8548:8554   */\n      dup1\n        /* \"#utility.yul\":8556:8562   */\n      0x00\n        /* \"#utility.yul\":8605:8608   */\n      0xa0\n        /* \"#utility.yul\":8593:8602   */\n      dup7\n        /* \"#utility.yul\":8584:8591   */\n      dup9\n        /* \"#utility.yul\":8580:8603   */\n      sub\n        /* \"#utility.yul\":8576:8609   */\n      slt\n        /* \"#utility.yul\":8573:8693   */\n      iszero\n      tag_222\n      jumpi\n        /* \"#utility.yul\":8612:8691   */\n      tag_223\n      tag_103\n      jump\t// in\n    tag_223:\n        /* \"#utility.yul\":8573:8693   */\n    tag_222:\n        /* \"#utility.yul\":8732:8733   */\n      0x00\n        /* \"#utility.yul\":8757:8820   */\n      tag_224\n        /* \"#utility.yul\":8812:8819   */\n      dup9\n        /* \"#utility.yul\":8803:8809   */\n      dup3\n        /* \"#utility.yul\":8792:8801   */\n      dup10\n        /* \"#utility.yul\":8788:8810   */\n      add\n        /* \"#utility.yul\":8757:8820   */\n      tag_124\n      jump\t// in\n    tag_224:\n        /* \"#utility.yul\":8747:8820   */\n      swap6\n      pop\n        /* \"#utility.yul\":8703:8830   */\n      pop\n        /* \"#utility.yul\":8869:8871   */\n      0x20\n        /* \"#utility.yul\":8895:8958   */\n      tag_225\n        /* \"#utility.yul\":8950:8957   */\n      dup9\n        /* \"#utility.yul\":8941:8947   */\n      dup3\n        /* \"#utility.yul\":8930:8939   */\n      dup10\n        /* \"#utility.yul\":8926:8948   */\n      add\n        /* \"#utility.yul\":8895:8958   */\n      tag_127\n      jump\t// in\n    tag_225:\n        /* \"#utility.yul\":8885:8958   */\n      swap5\n      pop\n        /* \"#utility.yul\":8840:8968   */\n      pop\n        /* \"#utility.yul\":9007:9009   */\n      0x40\n        /* \"#utility.yul\":9033:9097   */\n      tag_226\n        /* \"#utility.yul\":9089:9096   */\n      dup9\n        /* \"#utility.yul\":9080:9086   */\n      dup3\n        /* \"#utility.yul\":9069:9078   */\n      dup10\n        /* \"#utility.yul\":9065:9087   */\n      add\n        /* \"#utility.yul\":9033:9097   */\n      tag_128\n      jump\t// in\n    tag_226:\n        /* \"#utility.yul\":9023:9097   */\n      swap4\n      pop\n        /* \"#utility.yul\":8978:9107   */\n      pop\n        /* \"#utility.yul\":9146:9148   */\n      0x60\n        /* \"#utility.yul\":9172:9236   */\n      tag_227\n        /* \"#utility.yul\":9228:9235   */\n      dup9\n        /* \"#utility.yul\":9219:9225   */\n      dup3\n        /* \"#utility.yul\":9208:9217   */\n      dup10\n        /* \"#utility.yul\":9204:9226   */\n      add\n        /* \"#utility.yul\":9172:9236   */\n      tag_128\n      jump\t// in\n    tag_227:\n        /* \"#utility.yul\":9162:9236   */\n      swap3\n      pop\n        /* \"#utility.yul\":9117:9246   */\n      pop\n        /* \"#utility.yul\":9285:9288   */\n      0x80\n        /* \"#utility.yul\":9312:9375   */\n      tag_228\n        /* \"#utility.yul\":9367:9374   */\n      dup9\n        /* \"#utility.yul\":9358:9364   */\n      dup3\n        /* \"#utility.yul\":9347:9356   */\n      dup10\n        /* \"#utility.yul\":9343:9365   */\n      add\n        /* \"#utility.yul\":9312:9375   */\n      tag_124\n      jump\t// in\n    tag_228:\n        /* \"#utility.yul\":9302:9375   */\n      swap2\n      pop\n        /* \"#utility.yul\":9256:9385   */\n      pop\n        /* \"#utility.yul\":8421:9392   */\n      swap3\n      swap6\n      pop\n      swap3\n      swap6\n      swap1\n      swap4\n      pop\n      jump\t// out\n        /* \"#utility.yul\":9398:9954   */\n    tag_92:\n        /* \"#utility.yul\":9437:9444   */\n      0x00\n        /* \"#utility.yul\":9460:9479   */\n      tag_230\n        /* \"#utility.yul\":9477:9478   */\n      dup3\n        /* \"#utility.yul\":9460:9479   */\n      tag_125\n      jump\t// in\n    tag_230:\n        /* \"#utility.yul\":9455:9479   */\n      swap2\n      pop\n        /* \"#utility.yul\":9493:9512   */\n      tag_231\n        /* \"#utility.yul\":9510:9511   */\n      dup4\n        /* \"#utility.yul\":9493:9512   */\n      tag_125\n      jump\t// in\n    tag_231:\n        /* \"#utility.yul\":9488:9512   */\n      swap3\n      pop\n        /* \"#utility.yul\":9547:9548   */\n      dup3\n        /* \"#utility.yul\":9544:9545   */\n      dup3\n        /* \"#utility.yul\":9540:9549   */\n      mul\n        /* \"#utility.yul\":9569:9598   */\n      tag_232\n        /* \"#utility.yul\":9586:9597   */\n      dup2\n        /* \"#utility.yul\":9569:9598   */\n      tag_125\n      jump\t// in\n    tag_232:\n        /* \"#utility.yul\":9558:9598   */\n      swap2\n      pop\n        /* \"#utility.yul\":9656:9722   */\n      0x8000000000000000000000000000000000000000000000000000000000000000\n        /* \"#utility.yul\":9653:9654   */\n      dup5\n        /* \"#utility.yul\":9650:9723   */\n      eq\n        /* \"#utility.yul\":9646:9647   */\n      0x00\n        /* \"#utility.yul\":9643:9644   */\n      dup5\n        /* \"#utility.yul\":9639:9648   */\n      slt\n        /* \"#utility.yul\":9635:9724   */\n      and\n        /* \"#utility.yul\":9632:9747   */\n      iszero\n      tag_233\n      jumpi\n        /* \"#utility.yul\":9727:9745   */\n      tag_234\n      tag_115\n      jump\t// in\n    tag_234:\n        /* \"#utility.yul\":9632:9747   */\n    tag_233:\n        /* \"#utility.yul\":9897:9898   */\n      dup3\n        /* \"#utility.yul\":9888:9895   */\n      dup3\n        /* \"#utility.yul\":9883:9899   */\n      sdiv\n        /* \"#utility.yul\":9880:9881   */\n      dup5\n        /* \"#utility.yul\":9877:9900   */\n      eq\n        /* \"#utility.yul\":9857:9858   */\n      dup4\n        /* \"#utility.yul\":9850:9859   */\n      iszero\n        /* \"#utility.yul\":9830:9914   */\n      or\n        /* \"#utility.yul\":9807:9947   */\n      tag_235\n      jumpi\n        /* \"#utility.yul\":9927:9945   */\n      tag_236\n      tag_115\n      jump\t// in\n    tag_236:\n        /* \"#utility.yul\":9807:9947   */\n    tag_235:\n        /* \"#utility.yul\":9445:9954   */\n      pop\n        /* \"#utility.yul\":9398:9954   */\n      swap3\n      swap2\n      pop\n      pop\n      jump\t// out\n\n    auxdata: 0xa2646970667358221220f4658589cd82d4bdb6603c29aa472f645ff1edea7a7e17cddf1508e316ddc44164736f6c634300081a0033\n}\n",
				"bytecode": {
					"linkReferences": {},
					"object": "60a0604052348015600e575f80fd5b503373ffffffffffffffffffffffffffffffffffffffff1660808173ffffffffffffffffffffffffffffffffffffffff1681525050608051610c366100625f395f818161026601526104b80152610c365ff3fe608060405260043610610058575f3560e01c80630fdb1c10146100715780633430a88c146100875780633e47d6f3146100b1578063b60d4288146100ed578063dba6335f146100f7578063dc0d3dff1461012157610067565b366100675761006561015d565b005b61006f61015d565b005b34801561007c575f80fd5b50610085610264565b005b348015610092575f80fd5b5061009b610494565b6040516100a891906106ae565b60405180910390f35b3480156100bc575f80fd5b506100d760048036038101906100d29190610725565b6104a1565b6040516100e491906106ae565b60405180910390f35b6100f561015d565b005b348015610102575f80fd5b5061010b6104b6565b604051610118919061075f565b60405180910390f35b34801561012c575f80fd5b50610147600480360381019061014291906107a2565b6104da565b604051610154919061075f565b60405180910390f35b6802b5e3af16b188000061017034610514565b116101b0576040517f08c379a00000000000000000000000000000000000000000000000000000000081526004016101a790610827565b60405180910390fd5b5f33908060018154018082558091505060019003905f5260205f20015f9091909190916101000a81548173ffffffffffffffffffffffffffffffffffffffff021916908373ffffffffffffffffffffffffffffffffffffffff1602179055503460015f3373ffffffffffffffffffffffffffffffffffffffff1673ffffffffffffffffffffffffffffffffffffffff1681526020019081526020015f205f82825461025b9190610872565b92505081905550565b7f000000000000000000000000000000000000000000000000000000000000000073ffffffffffffffffffffffffffffffffffffffff163373ffffffffffffffffffffffffffffffffffffffff16146102e9576040517f251c9d6300000000000000000000000000000000000000000000000000000000815260040160405180910390fd5b5f5b5f80549050811161038a575f80828154811061030a576103096108a5565b5b905f5260205f20015f9054906101000a900473ffffffffffffffffffffffffffffffffffffffff1690505f60015f8373ffffffffffffffffffffffffffffffffffffffff1673ffffffffffffffffffffffffffffffffffffffff1681526020019081526020015f2081905550508080610382906108d2565b9150506102eb565b505f67ffffffffffffffff8111156103a5576103a4610919565b5b6040519080825280602002602001820160405280156103d35781602001602082028036833780820191505090505b505f90805190602001906103e89291906105f4565b505f3373ffffffffffffffffffffffffffffffffffffffff164760405161040e90610973565b5f6040518083038185875af1925050503d805f8114610448576040519150601f19603f3d011682016040523d82523d5f602084013e61044d565b606091505b5050905080610491576040517f08c379a0000000000000000000000000000000000000000000000000000000008152600401610488906109d1565b60405180910390fd5b50565b6802b5e3af16b188000081565b6001602052805f5260405f205f915090505481565b7f000000000000000000000000000000000000000000000000000000000000000081565b5f81815481106104e8575f80fd5b905f5260205f20015f915054906101000a900473ffffffffffffffffffffffffffffffffffffffff1681565b5f8061051e61054c565b90505f670de0b6b3a7640000848361053691906109ef565b6105409190610a5d565b90508092505050919050565b5f8073694aa1769357215de4fac081bf1f309adc32530690505f8173ffffffffffffffffffffffffffffffffffffffff1663feaf968c6040518163ffffffff1660e01b815260040160a060405180830381865afa1580156105af573d5f803e3d5ffd5b505050506040513d601f19601f820116820180604052508101906105d39190610b13565b505050915050670de0b6b3a7640000816105ed9190610b8a565b9250505090565b828054828255905f5260205f2090810192821561066a579160200282015b82811115610669578251825f6101000a81548173ffffffffffffffffffffffffffffffffffffffff021916908373ffffffffffffffffffffffffffffffffffffffff16021790555091602001919060010190610612565b5b509050610677919061067b565b5090565b5b80821115610692575f815f90555060010161067c565b5090565b5f819050919050565b6106a881610696565b82525050565b5f6020820190506106c15f83018461069f565b92915050565b5f80fd5b5f73ffffffffffffffffffffffffffffffffffffffff82169050919050565b5f6106f4826106cb565b9050919050565b610704816106ea565b811461070e575f80fd5b50565b5f8135905061071f816106fb565b92915050565b5f6020828403121561073a576107396106c7565b5b5f61074784828501610711565b91505092915050565b610759816106ea565b82525050565b5f6020820190506107725f830184610750565b92915050565b61078181610696565b811461078b575f80fd5b50565b5f8135905061079c81610778565b92915050565b5f602082840312156107b7576107b66106c7565b5b5f6107c48482850161078e565b91505092915050565b5f82825260208201905092915050565b7f6469646e742073656e6420656e6f7567682045544800000000000000000000005f82015250565b5f6108116015836107cd565b915061081c826107dd565b602082019050919050565b5f6020820190508181035f83015261083e81610805565b9050919050565b7f4e487b71000000000000000000000000000000000000000000000000000000005f52601160045260245ffd5b5f61087c82610696565b915061088783610696565b925082820190508082111561089f5761089e610845565b5b92915050565b7f4e487b71000000000000000000000000000000000000000000000000000000005f52603260045260245ffd5b5f6108dc82610696565b91507fffffffffffffffffffffffffffffffffffffffffffffffffffffffffffffffff820361090e5761090d610845565b5b600182019050919050565b7f4e487b71000000000000000000000000000000000000000000000000000000005f52604160045260245ffd5b5f81905092915050565b50565b5f61095e5f83610946565b915061096982610950565b5f82019050919050565b5f61097d82610953565b9150819050919050565b7f63616c6c206661696c65640000000000000000000000000000000000000000005f82015250565b5f6109bb600b836107cd565b91506109c682610987565b602082019050919050565b5f6020820190508181035f8301526109e8816109af565b9050919050565b5f6109f982610696565b9150610a0483610696565b9250828202610a1281610696565b91508282048414831517610a2957610a28610845565b5b5092915050565b7f4e487b71000000000000000000000000000000000000000000000000000000005f52601260045260245ffd5b5f610a6782610696565b9150610a7283610696565b925082610a8257610a81610a30565b5b828204905092915050565b5f69ffffffffffffffffffff82169050919050565b610aab81610a8d565b8114610ab5575f80fd5b50565b5f81519050610ac681610aa2565b92915050565b5f819050919050565b610ade81610acc565b8114610ae8575f80fd5b50565b5f81519050610af981610ad5565b92915050565b5f81519050610b0d81610778565b92915050565b5f805f805f60a08688031215610b2c57610b2b6106c7565b5b5f610b3988828901610ab8565b9550506020610b4a88828901610aeb565b9450506040610b5b88828901610aff565b9350506060610b6c88828901610aff565b9250506080610b7d88828901610ab8565b9150509295509295909350565b5f610b9482610acc565b9150610b9f83610acc565b9250828202610bad81610acc565b91507f800000000000000000000000000000000000000000000000000000000000000084145f84121615610be457610be3610845565b5b8282058414831517610bf957610bf8610845565b5b509291505056fea2646970667358221220f4658589cd82d4bdb6603c29aa472f645ff1edea7a7e17cddf1508e316ddc44164736f6c634300081a0033",
					"opcodes": "PUSH1 0xA0 PUSH1 0x40 MSTORE CALLVALUE DUP1 ISZERO PUSH1 0xE JUMPI PUSH0 DUP1 REVERT JUMPDEST POP CALLER PUSH20 0xFFFFFFFFFFFFFFFFFFFFFFFFFFFFFFFFFFFFFFFF AND PUSH1 0x80 DUP2 PUSH20 0xFFFFFFFFFFFFFFFFFFFFFFFFFFFFFFFFFFFFFFFF AND DUP2 MSTORE POP POP PUSH1 0x80 MLOAD PUSH2 0xC36 PUSH2 0x62 PUSH0 CODECOPY PUSH0 DUP2 DUP2 PUSH2 0x266 ADD MSTORE PUSH2 0x4B8 ADD MSTORE PUSH2 0xC36 PUSH0 RETURN INVALID PUSH1 0x80 PUSH1 0x40 MSTORE PUSH1 0x4 CALLDATASIZE LT PUSH2 0x58 JUMPI PUSH0 CALLDATALOAD PUSH1 0xE0 SHR DUP1 PUSH4 0xFDB1C10 EQ PUSH2 0x71 JUMPI DUP1 PUSH4 0x3430A88C EQ PUSH2 0x87 JUMPI DUP1 PUSH4 0x3E47D6F3 EQ PUSH2 0xB1 JUMPI DUP1 PUSH4 0xB60D4288 EQ PUSH2 0xED JUMPI DUP1 PUSH4 0xDBA6335F EQ PUSH2 0xF7 JUMPI DUP1 PUSH4 0xDC0D3DFF EQ PUSH2 0x121 JUMPI PUSH2 0x67 JUMP JUMPDEST CALLDATASIZE PUSH2 0x67 JUMPI PUSH2 0x65 PUSH2 0x15D JUMP JUMPDEST STOP JUMPDEST PUSH2 0x6F PUSH2 0x15D JUMP JUMPDEST STOP JUMPDEST CALLVALUE DUP1 ISZERO PUSH2 0x7C JUMPI PUSH0 DUP1 REVERT JUMPDEST POP PUSH2 0x85 PUSH2 0x264 JUMP JUMPDEST STOP JUMPDEST CALLVALUE DUP1 ISZERO PUSH2 0x92 JUMPI PUSH0 DUP1 REVERT JUMPDEST POP PUSH2 0x9B PUSH2 0x494 JUMP JUMPDEST PUSH1 0x40 MLOAD PUSH2 0xA8 SWAP2 SWAP1 PUSH2 0x6AE JUMP JUMPDEST PUSH1 0x40 MLOAD DUP1 SWAP2 SUB SWAP1 RETURN JUMPDEST CALLVALUE DUP1 ISZERO PUSH2 0xBC JUMPI PUSH0 DUP1 REVERT JUMPDEST POP PUSH2 0xD7 PUSH1 0x4 DUP1 CALLDATASIZE SUB DUP2 ADD SWAP1 PUSH2 0xD2 SWAP2 SWAP1 PUSH2 0x725 JUMP JUMPDEST PUSH2 0x4A1 JUMP JUMPDEST PUSH1 0x40 MLOAD PUSH2 0xE4 SWAP2 SWAP1 PUSH2 0x6AE JUMP JUMPDEST PUSH1 0x40 MLOAD DUP1 SWAP2 SUB SWAP1 RETURN JUMPDEST PUSH2 0xF5 PUSH2 0x15D JUMP JUMPDEST STOP JUMPDEST CALLVALUE DUP1 ISZERO PUSH2 0x102 JUMPI PUSH0 DUP1 REVERT JUMPDEST POP PUSH2 0x10B PUSH2 0x4B6 JUMP JUMPDEST PUSH1 0x40 MLOAD PUSH2 0x118 SWAP2 SWAP1 PUSH2 0x75F JUMP JUMPDEST PUSH1 0x40 MLOAD DUP1 SWAP2 SUB SWAP1 RETURN JUMPDEST CALLVALUE DUP1 ISZERO PUSH2 0x12C JUMPI PUSH0 DUP1 REVERT JUMPDEST POP PUSH2 0x147 PUSH1 0x4 DUP1 CALLDATASIZE SUB DUP2 ADD SWAP1 PUSH2 0x142 SWAP2 SWAP1 PUSH2 0x7A2 JUMP JUMPDEST PUSH2 0x4DA JUMP JUMPDEST PUSH1 0x40 MLOAD PUSH2 0x154 SWAP2 SWAP1 PUSH2 0x75F JUMP JUMPDEST PUSH1 0x40 MLOAD DUP1 SWAP2 SUB SWAP1 RETURN JUMPDEST PUSH9 0x2B5E3AF16B1880000 PUSH2 0x170 CALLVALUE PUSH2 0x514 JUMP JUMPDEST GT PUSH2 0x1B0 JUMPI PUSH1 0x40 MLOAD PUSH32 0x8C379A000000000000000000000000000000000000000000000000000000000 DUP2 MSTORE PUSH1 0x4 ADD PUSH2 0x1A7 SWAP1 PUSH2 0x827 JUMP JUMPDEST PUSH1 0x40 MLOAD DUP1 SWAP2 SUB SWAP1 REVERT JUMPDEST PUSH0 CALLER SWAP1 DUP1 PUSH1 0x1 DUP2 SLOAD ADD DUP1 DUP3 SSTORE DUP1 SWAP2 POP POP PUSH1 0x1 SWAP1 SUB SWAP1 PUSH0 MSTORE PUSH1 0x20 PUSH0 KECCAK256 ADD PUSH0 SWAP1 SWAP2 SWAP1 SWAP2 SWAP1 SWAP2 PUSH2 0x100 EXP DUP2 SLOAD DUP2 PUSH20 0xFFFFFFFFFFFFFFFFFFFFFFFFFFFFFFFFFFFFFFFF MUL NOT AND SWAP1 DUP4 PUSH20 0xFFFFFFFFFFFFFFFFFFFFFFFFFFFFFFFFFFFFFFFF AND MUL OR SWAP1 SSTORE POP CALLVALUE PUSH1 0x1 PUSH0 CALLER PUSH20 0xFFFFFFFFFFFFFFFFFFFFFFFFFFFFFFFFFFFFFFFF AND PUSH20 0xFFFFFFFFFFFFFFFFFFFFFFFFFFFFFFFFFFFFFFFF AND DUP2 MSTORE PUSH1 0x20 ADD SWAP1 DUP2 MSTORE PUSH1 0x20 ADD PUSH0 KECCAK256 PUSH0 DUP3 DUP3 SLOAD PUSH2 0x25B SWAP2 SWAP1 PUSH2 0x872 JUMP JUMPDEST SWAP3 POP POP DUP2 SWAP1 SSTORE POP JUMP JUMPDEST PUSH32 0x0 PUSH20 0xFFFFFFFFFFFFFFFFFFFFFFFFFFFFFFFFFFFFFFFF AND CALLER PUSH20 0xFFFFFFFFFFFFFFFFFFFFFFFFFFFFFFFFFFFFFFFF AND EQ PUSH2 0x2E9 JUMPI PUSH1 0x40 MLOAD PUSH32 0x251C9D6300000000000000000000000000000000000000000000000000000000 DUP2 MSTORE PUSH1 0x4 ADD PUSH1 0x40 MLOAD DUP1 SWAP2 SUB SWAP1 REVERT JUMPDEST PUSH0 JUMPDEST PUSH0 DUP1 SLOAD SWAP1 POP DUP2 GT PUSH2 0x38A JUMPI PUSH0 DUP1 DUP3 DUP2 SLOAD DUP2 LT PUSH2 0x30A JUMPI PUSH2 0x309 PUSH2 0x8A5 JUMP JUMPDEST JUMPDEST SWAP1 PUSH0 MSTORE PUSH1 0x20 PUSH0 KECCAK256 ADD PUSH0 SWAP1 SLOAD SWAP1 PUSH2 0x100 EXP SWAP1 DIV PUSH20 0xFFFFFFFFFFFFFFFFFFFFFFFFFFFFFFFFFFFFFFFF AND SWAP1 POP PUSH0 PUSH1 0x1 PUSH0 DUP4 PUSH20 0xFFFFFFFFFFFFFFFFFFFFFFFFFFFFFFFFFFFFFFFF AND PUSH20 0xFFFFFFFFFFFFFFFFFFFFFFFFFFFFFFFFFFFFFFFF AND DUP2 MSTORE PUSH1 0x20 ADD SWAP1 DUP2 MSTORE PUSH1 0x20 ADD PUSH0 KECCAK256 DUP2 SWAP1 SSTORE POP POP DUP1 DUP1 PUSH2 0x382 SWAP1 PUSH2 0x8D2 JUMP JUMPDEST SWAP2 POP POP PUSH2 0x2EB JUMP JUMPDEST POP PUSH0 PUSH8 0xFFFFFFFFFFFFFFFF DUP2 GT ISZERO PUSH2 0x3A5 JUMPI PUSH2 0x3A4 PUSH2 0x919 JUMP JUMPDEST JUMPDEST PUSH1 0x40 MLOAD SWAP1 DUP1 DUP3 MSTORE DUP1 PUSH1 0x20 MUL PUSH1 0x20 ADD DUP3 ADD PUSH1 0x40 MSTORE DUP1 ISZERO PUSH2 0x3D3 JUMPI DUP2 PUSH1 0x20 ADD PUSH1 0x20 DUP3 MUL DUP1 CALLDATASIZE DUP4 CALLDATACOPY DUP1 DUP3 ADD SWAP2 POP POP SWAP1 POP JUMPDEST POP PUSH0 SWAP1 DUP1 MLOAD SWAP1 PUSH1 0x20 ADD SWAP1 PUSH2 0x3E8 SWAP3 SWAP2 SWAP1 PUSH2 0x5F4 JUMP JUMPDEST POP PUSH0 CALLER PUSH20 0xFFFFFFFFFFFFFFFFFFFFFFFFFFFFFFFFFFFFFFFF AND SELFBALANCE PUSH1 0x40 MLOAD PUSH2 0x40E SWAP1 PUSH2 0x973 JUMP JUMPDEST PUSH0 PUSH1 0x40 MLOAD DUP1 DUP4 SUB DUP2 DUP6 DUP8 GAS CALL SWAP3 POP POP POP RETURNDATASIZE DUP1 PUSH0 DUP2 EQ PUSH2 0x448 JUMPI PUSH1 0x40 MLOAD SWAP2 POP PUSH1 0x1F NOT PUSH1 0x3F RETURNDATASIZE ADD AND DUP3 ADD PUSH1 0x40 MSTORE RETURNDATASIZE DUP3 MSTORE RETURNDATASIZE PUSH0 PUSH1 0x20 DUP5 ADD RETURNDATACOPY PUSH2 0x44D JUMP JUMPDEST PUSH1 0x60 SWAP2 POP JUMPDEST POP POP SWAP1 POP DUP1 PUSH2 0x491 JUMPI PUSH1 0x40 MLOAD PUSH32 0x8C379A000000000000000000000000000000000000000000000000000000000 DUP2 MSTORE PUSH1 0x4 ADD PUSH2 0x488 SWAP1 PUSH2 0x9D1 JUMP JUMPDEST PUSH1 0x40 MLOAD DUP1 SWAP2 SUB SWAP1 REVERT JUMPDEST POP JUMP JUMPDEST PUSH9 0x2B5E3AF16B1880000 DUP2 JUMP JUMPDEST PUSH1 0x1 PUSH1 0x20 MSTORE DUP1 PUSH0 MSTORE PUSH1 0x40 PUSH0 KECCAK256 PUSH0 SWAP2 POP SWAP1 POP SLOAD DUP2 JUMP JUMPDEST PUSH32 0x0 DUP2 JUMP JUMPDEST PUSH0 DUP2 DUP2 SLOAD DUP2 LT PUSH2 0x4E8 JUMPI PUSH0 DUP1 REVERT JUMPDEST SWAP1 PUSH0 MSTORE PUSH1 0x20 PUSH0 KECCAK256 ADD PUSH0 SWAP2 POP SLOAD SWAP1 PUSH2 0x100 EXP SWAP1 DIV PUSH20 0xFFFFFFFFFFFFFFFFFFFFFFFFFFFFFFFFFFFFFFFF AND DUP2 JUMP JUMPDEST PUSH0 DUP1 PUSH2 0x51E PUSH2 0x54C JUMP JUMPDEST SWAP1 POP PUSH0 PUSH8 0xDE0B6B3A7640000 DUP5 DUP4 PUSH2 0x536 SWAP2 SWAP1 PUSH2 0x9EF JUMP JUMPDEST PUSH2 0x540 SWAP2 SWAP1 PUSH2 0xA5D JUMP JUMPDEST SWAP1 POP DUP1 SWAP3 POP POP POP SWAP2 SWAP1 POP JUMP JUMPDEST PUSH0 DUP1 PUSH20 0x694AA1769357215DE4FAC081BF1F309ADC325306 SWAP1 POP PUSH0 DUP2 PUSH20 0xFFFFFFFFFFFFFFFFFFFFFFFFFFFFFFFFFFFFFFFF AND PUSH4 0xFEAF968C PUSH1 0x40 MLOAD DUP2 PUSH4 0xFFFFFFFF AND PUSH1 0xE0 SHL DUP2 MSTORE PUSH1 0x4 ADD PUSH1 0xA0 PUSH1 0x40 MLOAD DUP1 DUP4 SUB DUP2 DUP7 GAS STATICCALL ISZERO DUP1 ISZERO PUSH2 0x5AF JUMPI RETURNDATASIZE PUSH0 DUP1 RETURNDATACOPY RETURNDATASIZE PUSH0 REVERT JUMPDEST POP POP POP POP PUSH1 0x40 MLOAD RETURNDATASIZE PUSH1 0x1F NOT PUSH1 0x1F DUP3 ADD AND DUP3 ADD DUP1 PUSH1 0x40 MSTORE POP DUP2 ADD SWAP1 PUSH2 0x5D3 SWAP2 SWAP1 PUSH2 0xB13 JUMP JUMPDEST POP POP POP SWAP2 POP POP PUSH8 0xDE0B6B3A7640000 DUP2 PUSH2 0x5ED SWAP2 SWAP1 PUSH2 0xB8A JUMP JUMPDEST SWAP3 POP POP POP SWAP1 JUMP JUMPDEST DUP3 DUP1 SLOAD DUP3 DUP3 SSTORE SWAP1 PUSH0 MSTORE PUSH1 0x20 PUSH0 KECCAK256 SWAP1 DUP2 ADD SWAP3 DUP3 ISZERO PUSH2 0x66A JUMPI SWAP2 PUSH1 0x20 MUL DUP3 ADD JUMPDEST DUP3 DUP2 GT ISZERO PUSH2 0x669 JUMPI DUP3 MLOAD DUP3 PUSH0 PUSH2 0x100 EXP DUP2 SLOAD DUP2 PUSH20 0xFFFFFFFFFFFFFFFFFFFFFFFFFFFFFFFFFFFFFFFF MUL NOT AND SWAP1 DUP4 PUSH20 0xFFFFFFFFFFFFFFFFFFFFFFFFFFFFFFFFFFFFFFFF AND MUL OR SWAP1 SSTORE POP SWAP2 PUSH1 0x20 ADD SWAP2 SWAP1 PUSH1 0x1 ADD SWAP1 PUSH2 0x612 JUMP JUMPDEST JUMPDEST POP SWAP1 POP PUSH2 0x677 SWAP2 SWAP1 PUSH2 0x67B JUMP JUMPDEST POP SWAP1 JUMP JUMPDEST JUMPDEST DUP1 DUP3 GT ISZERO PUSH2 0x692 JUMPI PUSH0 DUP2 PUSH0 SWAP1 SSTORE POP PUSH1 0x1 ADD PUSH2 0x67C JUMP JUMPDEST POP SWAP1 JUMP JUMPDEST PUSH0 DUP2 SWAP1 POP SWAP2 SWAP1 POP JUMP JUMPDEST PUSH2 0x6A8 DUP2 PUSH2 0x696 JUMP JUMPDEST DUP3 MSTORE POP POP JUMP JUMPDEST PUSH0 PUSH1 0x20 DUP3 ADD SWAP1 POP PUSH2 0x6C1 PUSH0 DUP4 ADD DUP5 PUSH2 0x69F JUMP JUMPDEST SWAP3 SWAP2 POP POP JUMP JUMPDEST PUSH0 DUP1 REVERT JUMPDEST PUSH0 PUSH20 0xFFFFFFFFFFFFFFFFFFFFFFFFFFFFFFFFFFFFFFFF DUP3 AND SWAP1 POP SWAP2 SWAP1 POP JUMP JUMPDEST PUSH0 PUSH2 0x6F4 DUP3 PUSH2 0x6CB JUMP JUMPDEST SWAP1 POP SWAP2 SWAP1 POP JUMP JUMPDEST PUSH2 0x704 DUP2 PUSH2 0x6EA JUMP JUMPDEST DUP2 EQ PUSH2 0x70E JUMPI PUSH0 DUP1 REVERT JUMPDEST POP JUMP JUMPDEST PUSH0 DUP2 CALLDATALOAD SWAP1 POP PUSH2 0x71F DUP2 PUSH2 0x6FB JUMP JUMPDEST SWAP3 SWAP2 POP POP JUMP JUMPDEST PUSH0 PUSH1 0x20 DUP3 DUP5 SUB SLT ISZERO PUSH2 0x73A JUMPI PUSH2 0x739 PUSH2 0x6C7 JUMP JUMPDEST JUMPDEST PUSH0 PUSH2 0x747 DUP5 DUP3 DUP6 ADD PUSH2 0x711 JUMP JUMPDEST SWAP2 POP POP SWAP3 SWAP2 POP POP JUMP JUMPDEST PUSH2 0x759 DUP2 PUSH2 0x6EA JUMP JUMPDEST DUP3 MSTORE POP POP JUMP JUMPDEST PUSH0 PUSH1 0x20 DUP3 ADD SWAP1 POP PUSH2 0x772 PUSH0 DUP4 ADD DUP5 PUSH2 0x750 JUMP JUMPDEST SWAP3 SWAP2 POP POP JUMP JUMPDEST PUSH2 0x781 DUP2 PUSH2 0x696 JUMP JUMPDEST DUP2 EQ PUSH2 0x78B JUMPI PUSH0 DUP1 REVERT JUMPDEST POP JUMP JUMPDEST PUSH0 DUP2 CALLDATALOAD SWAP1 POP PUSH2 0x79C DUP2 PUSH2 0x778 JUMP JUMPDEST SWAP3 SWAP2 POP POP JUMP JUMPDEST PUSH0 PUSH1 0x20 DUP3 DUP5 SUB SLT ISZERO PUSH2 0x7B7 JUMPI PUSH2 0x7B6 PUSH2 0x6C7 JUMP JUMPDEST JUMPDEST PUSH0 PUSH2 0x7C4 DUP5 DUP3 DUP6 ADD PUSH2 0x78E JUMP JUMPDEST SWAP2 POP POP SWAP3 SWAP2 POP POP JUMP JUMPDEST PUSH0 DUP3 DUP3 MSTORE PUSH1 0x20 DUP3 ADD SWAP1 POP SWAP3 SWAP2 POP POP JUMP JUMPDEST PUSH32 0x6469646E742073656E6420656E6F756768204554480000000000000000000000 PUSH0 DUP3 ADD MSTORE POP JUMP JUMPDEST PUSH0 PUSH2 0x811 PUSH1 0x15 DUP4 PUSH2 0x7CD JUMP JUMPDEST SWAP2 POP PUSH2 0x81C DUP3 PUSH2 0x7DD JUMP JUMPDEST PUSH1 0x20 DUP3 ADD SWAP1 POP SWAP2 SWAP1 POP JUMP JUMPDEST PUSH0 PUSH1 0x20 DUP3 ADD SWAP1 POP DUP2 DUP2 SUB PUSH0 DUP4 ADD MSTORE PUSH2 0x83E DUP2 PUSH2 0x805 JUMP JUMPDEST SWAP1 POP SWAP2 SWAP1 POP JUMP JUMPDEST PUSH32 0x4E487B7100000000000000000000000000000000000000000000000000000000 PUSH0 MSTORE PUSH1 0x11 PUSH1 0x4 MSTORE PUSH1 0x24 PUSH0 REVERT JUMPDEST PUSH0 PUSH2 0x87C DUP3 PUSH2 0x696 JUMP JUMPDEST SWAP2 POP PUSH2 0x887 DUP4 PUSH2 0x696 JUMP JUMPDEST SWAP3 POP DUP3 DUP3 ADD SWAP1 POP DUP1 DUP3 GT ISZERO PUSH2 0x89F JUMPI PUSH2 0x89E PUSH2 0x845 JUMP JUMPDEST JUMPDEST SWAP3 SWAP2 POP POP JUMP JUMPDEST PUSH32 0x4E487B7100000000000000000000000000000000000000000000000000000000 PUSH0 MSTORE PUSH1 0x32 PUSH1 0x4 MSTORE PUSH1 0x24 PUSH0 REVERT JUMPDEST PUSH0 PUSH2 0x8DC DUP3 PUSH2 0x696 JUMP JUMPDEST SWAP2 POP PUSH32 0xFFFFFFFFFFFFFFFFFFFFFFFFFFFFFFFFFFFFFFFFFFFFFFFFFFFFFFFFFFFFFFFF DUP3 SUB PUSH2 0x90E JUMPI PUSH2 0x90D PUSH2 0x845 JUMP JUMPDEST JUMPDEST PUSH1 0x1 DUP3 ADD SWAP1 POP SWAP2 SWAP1 POP JUMP JUMPDEST PUSH32 0x4E487B7100000000000000000000000000000000000000000000000000000000 PUSH0 MSTORE PUSH1 0x41 PUSH1 0x4 MSTORE PUSH1 0x24 PUSH0 REVERT JUMPDEST PUSH0 DUP2 SWAP1 POP SWAP3 SWAP2 POP POP JUMP JUMPDEST POP JUMP JUMPDEST PUSH0 PUSH2 0x95E PUSH0 DUP4 PUSH2 0x946 JUMP JUMPDEST SWAP2 POP PUSH2 0x969 DUP3 PUSH2 0x950 JUMP JUMPDEST PUSH0 DUP3 ADD SWAP1 POP SWAP2 SWAP1 POP JUMP JUMPDEST PUSH0 PUSH2 0x97D DUP3 PUSH2 0x953 JUMP JUMPDEST SWAP2 POP DUP2 SWAP1 POP SWAP2 SWAP1 POP JUMP JUMPDEST PUSH32 0x63616C6C206661696C6564000000000000000000000000000000000000000000 PUSH0 DUP3 ADD MSTORE POP JUMP JUMPDEST PUSH0 PUSH2 0x9BB PUSH1 0xB DUP4 PUSH2 0x7CD JUMP JUMPDEST SWAP2 POP PUSH2 0x9C6 DUP3 PUSH2 0x987 JUMP JUMPDEST PUSH1 0x20 DUP3 ADD SWAP1 POP SWAP2 SWAP1 POP JUMP JUMPDEST PUSH0 PUSH1 0x20 DUP3 ADD SWAP1 POP DUP2 DUP2 SUB PUSH0 DUP4 ADD MSTORE PUSH2 0x9E8 DUP2 PUSH2 0x9AF JUMP JUMPDEST SWAP1 POP SWAP2 SWAP1 POP JUMP JUMPDEST PUSH0 PUSH2 0x9F9 DUP3 PUSH2 0x696 JUMP JUMPDEST SWAP2 POP PUSH2 0xA04 DUP4 PUSH2 0x696 JUMP JUMPDEST SWAP3 POP DUP3 DUP3 MUL PUSH2 0xA12 DUP2 PUSH2 0x696 JUMP JUMPDEST SWAP2 POP DUP3 DUP3 DIV DUP5 EQ DUP4 ISZERO OR PUSH2 0xA29 JUMPI PUSH2 0xA28 PUSH2 0x845 JUMP JUMPDEST JUMPDEST POP SWAP3 SWAP2 POP POP JUMP JUMPDEST PUSH32 0x4E487B7100000000000000000000000000000000000000000000000000000000 PUSH0 MSTORE PUSH1 0x12 PUSH1 0x4 MSTORE PUSH1 0x24 PUSH0 REVERT JUMPDEST PUSH0 PUSH2 0xA67 DUP3 PUSH2 0x696 JUMP JUMPDEST SWAP2 POP PUSH2 0xA72 DUP4 PUSH2 0x696 JUMP JUMPDEST SWAP3 POP DUP3 PUSH2 0xA82 JUMPI PUSH2 0xA81 PUSH2 0xA30 JUMP JUMPDEST JUMPDEST DUP3 DUP3 DIV SWAP1 POP SWAP3 SWAP2 POP POP JUMP JUMPDEST PUSH0 PUSH10 0xFFFFFFFFFFFFFFFFFFFF DUP3 AND SWAP1 POP SWAP2 SWAP1 POP JUMP JUMPDEST PUSH2 0xAAB DUP2 PUSH2 0xA8D JUMP JUMPDEST DUP2 EQ PUSH2 0xAB5 JUMPI PUSH0 DUP1 REVERT JUMPDEST POP JUMP JUMPDEST PUSH0 DUP2 MLOAD SWAP1 POP PUSH2 0xAC6 DUP2 PUSH2 0xAA2 JUMP JUMPDEST SWAP3 SWAP2 POP POP JUMP JUMPDEST PUSH0 DUP2 SWAP1 POP SWAP2 SWAP1 POP JUMP JUMPDEST PUSH2 0xADE DUP2 PUSH2 0xACC JUMP JUMPDEST DUP2 EQ PUSH2 0xAE8 JUMPI PUSH0 DUP1 REVERT JUMPDEST POP JUMP JUMPDEST PUSH0 DUP2 MLOAD SWAP1 POP PUSH2 0xAF9 DUP2 PUSH2 0xAD5 JUMP JUMPDEST SWAP3 SWAP2 POP POP JUMP JUMPDEST PUSH0 DUP2 MLOAD SWAP1 POP PUSH2 0xB0D DUP2 PUSH2 0x778 JUMP JUMPDEST SWAP3 SWAP2 POP POP JUMP JUMPDEST PUSH0 DUP1 PUSH0 DUP1 PUSH0 PUSH1 0xA0 DUP7 DUP9 SUB SLT ISZERO PUSH2 0xB2C JUMPI PUSH2 0xB2B PUSH2 0x6C7 JUMP JUMPDEST JUMPDEST PUSH0 PUSH2 0xB39 DUP9 DUP3 DUP10 ADD PUSH2 0xAB8 JUMP JUMPDEST SWAP6 POP POP PUSH1 0x20 PUSH2 0xB4A DUP9 DUP3 DUP10 ADD PUSH2 0xAEB JUMP JUMPDEST SWAP5 POP POP PUSH1 0x40 PUSH2 0xB5B DUP9 DUP3 DUP10 ADD PUSH2 0xAFF JUMP JUMPDEST SWAP4 POP POP PUSH1 0x60 PUSH2 0xB6C DUP9 DUP3 DUP10 ADD PUSH2 0xAFF JUMP JUMPDEST SWAP3 POP POP PUSH1 0x80 PUSH2 0xB7D DUP9 DUP3 DUP10 ADD PUSH2 0xAB8 JUMP JUMPDEST SWAP2 POP POP SWAP3 SWAP6 POP SWAP3 SWAP6 SWAP1 SWAP4 POP JUMP JUMPDEST PUSH0 PUSH2 0xB94 DUP3 PUSH2 0xACC JUMP JUMPDEST SWAP2 POP PUSH2 0xB9F DUP4 PUSH2 0xACC JUMP JUMPDEST SWAP3 POP DUP3 DUP3 MUL PUSH2 0xBAD DUP2 PUSH2 0xACC JUMP JUMPDEST SWAP2 POP PUSH32 0x8000000000000000000000000000000000000000000000000000000000000000 DUP5 EQ PUSH0 DUP5 SLT AND ISZERO PUSH2 0xBE4 JUMPI PUSH2 0xBE3 PUSH2 0x845 JUMP JUMPDEST JUMPDEST DUP3 DUP3 SDIV DUP5 EQ DUP4 ISZERO OR PUSH2 0xBF9 JUMPI PUSH2 0xBF8 PUSH2 0x845 JUMP JUMPDEST JUMPDEST POP SWAP3 SWAP2 POP POP JUMP INVALID LOG2 PUSH5 0x6970667358 0x22 SLT KECCAK256 DELEGATECALL PUSH6 0x8589CD82D4BD 0xB6 PUSH1 0x3C 0x29 0xAA SELFBALANCE 0x2F PUSH5 0x5FF1EDEA7A PUSH31 0x17CDDF1508E316DDC44164736F6C634300081A003300000000000000000000 "
				},
				"gasEstimates": {
					"creation": {
						"codeDepositCost": "625200",
						"executionCost": "infinite",
						"totalCost": "infinite"
					},
					"external": {
						"": "infinite",
						"addressToAmountFunded(address)": "2824",
						"fund()": "infinite",
						"funders(uint256)": "5031",
						"i_owner()": "infinite",
						"minimumUSD()": "325",
						"withDraw()": "infinite"
					}
				},
				"methodIdentifiers": {
					"addressToAmountFunded(address)": "3e47d6f3",
					"fund()": "b60d4288",
					"funders(uint256)": "dc0d3dff",
					"i_owner()": "dba6335f",
					"minimumUSD()": "3430a88c",
					"withDraw()": "0fdb1c10"
				}
			},
			"storageLayout": {
				"storage": [
					{
						"astId": 64,
						"contract": "fundMe.sol:FundMe",
						"label": "funders",
						"offset": 0,
						"slot": "0",
						"type": "t_array(t_address)dyn_storage"
					},
					{
						"astId": 68,
						"contract": "fundMe.sol:FundMe",
						"label": "addressToAmountFunded",
						"offset": 0,
						"slot": "1",
						"type": "t_mapping(t_address,t_uint256)"
					}
				],
				"types": {
					"t_address": {
						"encoding": "inplace",
						"label": "address",
						"numberOfBytes": "20"
					},
					"t_array(t_address)dyn_storage": {
						"base": "t_address",
						"encoding": "dynamic_array",
						"label": "address[]",
						"numberOfBytes": "32"
					},
					"t_mapping(t_address,t_uint256)": {
						"encoding": "mapping",
						"key": "t_address",
						"label": "mapping(address => uint256)",
						"numberOfBytes": "32",
						"value": "t_uint256"
					},
					"t_uint256": {
						"encoding": "inplace",
						"label": "uint256",
						"numberOfBytes": "32"
					}
				}
			},
			"userdoc": {
				"kind": "user",
				"methods": {},
				"version": 1
			}
		}
	}
}